{
	"data": {
		"bytecode": {
			"linkReferences": {},
			"object": "6080604052600019600055600180805563013489aa600281905561002291610053565b600355600160dc1b600455600160058190556006805460ff1916909117905534801561004d57600080fd5b50610079565b6000821982111561007457634e487b7160e01b600052601160045260246000fd5b500190565b61010c806100886000396000f3fe6080604052348015600f57600080fd5b506004361060735760003560e01c80636e8d0c9e1160545780636e8d0c9e1460a3578063af45869e1460ab578063e37c6c821460b3578063f9bd55cc1460ce57600080fd5b806319bff7df1460785780632543135b1460935780636b1d2c4e14609b575b600080fd5b608060055481565b6040519081526020015b60405180910390f35b608060015481565b608060045481565b608060035481565b608060005481565b60065460bf9060ff1681565b6040519015158152602001608a565b60806002548156fea26469706673582212206a537654807506d1be910d1c16bfb993a28e288b4f0b7b5a3add6f57681179fb64736f6c63430008070033",
			"opcodes": "PUSH1 0x80 PUSH1 0x40 MSTORE PUSH1 0x0 NOT PUSH1 0x0 SSTORE PUSH1 0x1 DUP1 DUP1 SSTORE PUSH4 0x13489AA PUSH1 0x2 DUP2 SWAP1 SSTORE PUSH2 0x22 SWAP2 PUSH2 0x53 JUMP JUMPDEST PUSH1 0x3 SSTORE PUSH1 0x1 PUSH1 0xDC SHL PUSH1 0x4 SSTORE PUSH1 0x1 PUSH1 0x5 DUP2 SWAP1 SSTORE PUSH1 0x6 DUP1 SLOAD PUSH1 0xFF NOT AND SWAP1 SWAP2 OR SWAP1 SSTORE CALLVALUE DUP1 ISZERO PUSH2 0x4D JUMPI PUSH1 0x0 DUP1 REVERT JUMPDEST POP PUSH2 0x79 JUMP JUMPDEST PUSH1 0x0 DUP3 NOT DUP3 GT ISZERO PUSH2 0x74 JUMPI PUSH4 0x4E487B71 PUSH1 0xE0 SHL PUSH1 0x0 MSTORE PUSH1 0x11 PUSH1 0x4 MSTORE PUSH1 0x24 PUSH1 0x0 REVERT JUMPDEST POP ADD SWAP1 JUMP JUMPDEST PUSH2 0x10C DUP1 PUSH2 0x88 PUSH1 0x0 CODECOPY PUSH1 0x0 RETURN INVALID PUSH1 0x80 PUSH1 0x40 MSTORE CALLVALUE DUP1 ISZERO PUSH1 0xF JUMPI PUSH1 0x0 DUP1 REVERT JUMPDEST POP PUSH1 0x4 CALLDATASIZE LT PUSH1 0x73 JUMPI PUSH1 0x0 CALLDATALOAD PUSH1 0xE0 SHR DUP1 PUSH4 0x6E8D0C9E GT PUSH1 0x54 JUMPI DUP1 PUSH4 0x6E8D0C9E EQ PUSH1 0xA3 JUMPI DUP1 PUSH4 0xAF45869E EQ PUSH1 0xAB JUMPI DUP1 PUSH4 0xE37C6C82 EQ PUSH1 0xB3 JUMPI DUP1 PUSH4 0xF9BD55CC EQ PUSH1 0xCE JUMPI PUSH1 0x0 DUP1 REVERT JUMPDEST DUP1 PUSH4 0x19BFF7DF EQ PUSH1 0x78 JUMPI DUP1 PUSH4 0x2543135B EQ PUSH1 0x93 JUMPI DUP1 PUSH4 0x6B1D2C4E EQ PUSH1 0x9B JUMPI JUMPDEST PUSH1 0x0 DUP1 REVERT JUMPDEST PUSH1 0x80 PUSH1 0x5 SLOAD DUP2 JUMP JUMPDEST PUSH1 0x40 MLOAD SWAP1 DUP2 MSTORE PUSH1 0x20 ADD JUMPDEST PUSH1 0x40 MLOAD DUP1 SWAP2 SUB SWAP1 RETURN JUMPDEST PUSH1 0x80 PUSH1 0x1 SLOAD DUP2 JUMP JUMPDEST PUSH1 0x80 PUSH1 0x4 SLOAD DUP2 JUMP JUMPDEST PUSH1 0x80 PUSH1 0x3 SLOAD DUP2 JUMP JUMPDEST PUSH1 0x80 PUSH1 0x0 SLOAD DUP2 JUMP JUMPDEST PUSH1 0x6 SLOAD PUSH1 0xBF SWAP1 PUSH1 0xFF AND DUP2 JUMP JUMPDEST PUSH1 0x40 MLOAD SWAP1 ISZERO ISZERO DUP2 MSTORE PUSH1 0x20 ADD PUSH1 0x8A JUMP JUMPDEST PUSH1 0x80 PUSH1 0x2 SLOAD DUP2 JUMP INVALID LOG2 PUSH5 0x6970667358 0x22 SLT KECCAK256 PUSH11 0x537654807506D1BE910D1C AND 0xBF 0xB9 SWAP4 LOG2 DUP15 0x28 DUP12 0x4F SIGNEXTEND PUSH28 0x5A3ADD6F57681179FB64736F6C634300080700330000000000000000 "
		},
		"gasEstimates": {
			"creation": {
				"codeDepositCost": "53600",
				"executionCost": "157068",
				"totalCost": "210668"
			},
			"external": {
				"_int()": "2306",
				"_number()": "2350",
				"_number1()": "2284",
				"_number2()": "2329",
				"_number3()": "2285",
				"_numberbool()": "2354",
				"_uint()": "2307"
			}
		},
		"methodIdentifiers": {
			"_int()": "af45869e",
			"_number()": "f9bd55cc",
			"_number1()": "6e8d0c9e",
			"_number2()": "6b1d2c4e",
			"_number3()": "19bff7df",
			"_numberbool()": "e37c6c82",
			"_uint()": "2543135b"
		}
	},
	"abi": [
		{
			"inputs": [],
			"name": "_int",
			"outputs": [
				{
					"internalType": "int256",
					"name": "",
					"type": "int256"
				}
			],
			"stateMutability": "view",
			"type": "function"
		},
		{
			"inputs": [],
			"name": "_number",
			"outputs": [
				{
					"internalType": "uint256",
					"name": "",
					"type": "uint256"
				}
			],
			"stateMutability": "view",
			"type": "function"
		},
		{
			"inputs": [],
			"name": "_number1",
			"outputs": [
				{
					"internalType": "uint256",
					"name": "",
					"type": "uint256"
				}
			],
			"stateMutability": "view",
			"type": "function"
		},
		{
			"inputs": [],
			"name": "_number2",
			"outputs": [
				{
					"internalType": "uint256",
					"name": "",
					"type": "uint256"
				}
			],
			"stateMutability": "view",
			"type": "function"
		},
		{
			"inputs": [],
			"name": "_number3",
			"outputs": [
				{
					"internalType": "uint256",
					"name": "",
					"type": "uint256"
				}
			],
			"stateMutability": "view",
			"type": "function"
		},
		{
			"inputs": [],
			"name": "_numberbool",
			"outputs": [
				{
					"internalType": "bool",
					"name": "",
					"type": "bool"
				}
			],
			"stateMutability": "view",
			"type": "function"
		},
		{
			"inputs": [],
			"name": "_uint",
			"outputs": [
				{
					"internalType": "uint256",
					"name": "",
					"type": "uint256"
				}
			],
			"stateMutability": "view",
			"type": "function"
		}
	]
}