{
	"data": {
		"bytecode": {
			"linkReferences": {},
			"object": "6080604052600019600055600180805563013489aa6002819055610022916100b7565b600355600160dc1b600455600160055560068054747a58c0be72be218b41c608b7fe7c5bb630736c71016001600160a81b03199091161790819055600780546001600160a01b0319166101009092046001600160a01b03169182179055316008556b4d696e69536f6c696469747960a01b600955600a805461ffff19166102691790553480156100b157600080fd5b506100dd565b600082198211156100d857634e487b7160e01b600052601160045260246000fd5b500190565b61022d806100ec6000396000f3fe608060405234801561001057600080fd5b50600436106100cf5760003560e01c80636e8d0c9e1161008c578063af45869e11610066578063af45869e14610185578063b69ef8a81461018e578063e37c6c8214610197578063f9bd55cc146101b457600080fd5b80636e8d0c9e14610143578063ac7294031461014c578063aeb6f2921461015f57600080fd5b806301019958146100d457806318bad217146100ef57806319bff7df1461011f5780632543135b146101285780633f346102146101315780636b1d2c4e1461013a575b600080fd5b6100dc6101bd565b6040519081526020015b60405180910390f35b6006546101079061010090046001600160a01b031681565b6040516001600160a01b0390911681526020016100e6565b6100dc60055481565b6100dc60015481565b6100dc60095481565b6100dc60045481565b6100dc60035481565b600754610107906001600160a01b031681565b600a5461016c9060f81b81565b6040516001600160f81b031990911681526020016100e6565b6100dc60005481565b6100dc60085481565b6006546101a49060ff1681565b60405190151581526020016100e6565b6100dc60025481565b600a54600090610100900460ff1660028111156101dc576101dc6101e1565b905090565b634e487b7160e01b600052602160045260246000fdfea2646970667358221220203f873f9039d42f2c2aef34451133326541739cda4d08f9d56fa2c9a51da05264736f6c63430008070033",
			"opcodes": "PUSH1 0x80 PUSH1 0x40 MSTORE PUSH1 0x0 NOT PUSH1 0x0 SSTORE PUSH1 0x1 DUP1 DUP1 SSTORE PUSH4 0x13489AA PUSH1 0x2 DUP2 SWAP1 SSTORE PUSH2 0x22 SWAP2 PUSH2 0xB7 JUMP JUMPDEST PUSH1 0x3 SSTORE PUSH1 0x1 PUSH1 0xDC SHL PUSH1 0x4 SSTORE PUSH1 0x1 PUSH1 0x5 SSTORE PUSH1 0x6 DUP1 SLOAD PUSH21 0x7A58C0BE72BE218B41C608B7FE7C5BB630736C7101 PUSH1 0x1 PUSH1 0x1 PUSH1 0xA8 SHL SUB NOT SWAP1 SWAP2 AND OR SWAP1 DUP2 SWAP1 SSTORE PUSH1 0x7 DUP1 SLOAD PUSH1 0x1 PUSH1 0x1 PUSH1 0xA0 SHL SUB NOT AND PUSH2 0x100 SWAP1 SWAP3 DIV PUSH1 0x1 PUSH1 0x1 PUSH1 0xA0 SHL SUB AND SWAP2 DUP3 OR SWAP1 SSTORE BALANCE PUSH1 0x8 SSTORE PUSH12 0x4D696E69536F6C6964697479 PUSH1 0xA0 SHL PUSH1 0x9 SSTORE PUSH1 0xA DUP1 SLOAD PUSH2 0xFFFF NOT AND PUSH2 0x269 OR SWAP1 SSTORE CALLVALUE DUP1 ISZERO PUSH2 0xB1 JUMPI PUSH1 0x0 DUP1 REVERT JUMPDEST POP PUSH2 0xDD JUMP JUMPDEST PUSH1 0x0 DUP3 NOT DUP3 GT ISZERO PUSH2 0xD8 JUMPI PUSH4 0x4E487B71 PUSH1 0xE0 SHL PUSH1 0x0 MSTORE PUSH1 0x11 PUSH1 0x4 MSTORE PUSH1 0x24 PUSH1 0x0 REVERT JUMPDEST POP ADD SWAP1 JUMP JUMPDEST PUSH2 0x22D DUP1 PUSH2 0xEC PUSH1 0x0 CODECOPY PUSH1 0x0 RETURN INVALID PUSH1 0x80 PUSH1 0x40 MSTORE CALLVALUE DUP1 ISZERO PUSH2 0x10 JUMPI PUSH1 0x0 DUP1 REVERT JUMPDEST POP PUSH1 0x4 CALLDATASIZE LT PUSH2 0xCF JUMPI PUSH1 0x0 CALLDATALOAD PUSH1 0xE0 SHR DUP1 PUSH4 0x6E8D0C9E GT PUSH2 0x8C JUMPI DUP1 PUSH4 0xAF45869E GT PUSH2 0x66 JUMPI DUP1 PUSH4 0xAF45869E EQ PUSH2 0x185 JUMPI DUP1 PUSH4 0xB69EF8A8 EQ PUSH2 0x18E JUMPI DUP1 PUSH4 0xE37C6C82 EQ PUSH2 0x197 JUMPI DUP1 PUSH4 0xF9BD55CC EQ PUSH2 0x1B4 JUMPI PUSH1 0x0 DUP1 REVERT JUMPDEST DUP1 PUSH4 0x6E8D0C9E EQ PUSH2 0x143 JUMPI DUP1 PUSH4 0xAC729403 EQ PUSH2 0x14C JUMPI DUP1 PUSH4 0xAEB6F292 EQ PUSH2 0x15F JUMPI PUSH1 0x0 DUP1 REVERT JUMPDEST DUP1 PUSH4 0x1019958 EQ PUSH2 0xD4 JUMPI DUP1 PUSH4 0x18BAD217 EQ PUSH2 0xEF JUMPI DUP1 PUSH4 0x19BFF7DF EQ PUSH2 0x11F JUMPI DUP1 PUSH4 0x2543135B EQ PUSH2 0x128 JUMPI DUP1 PUSH4 0x3F346102 EQ PUSH2 0x131 JUMPI DUP1 PUSH4 0x6B1D2C4E EQ PUSH2 0x13A JUMPI JUMPDEST PUSH1 0x0 DUP1 REVERT JUMPDEST PUSH2 0xDC PUSH2 0x1BD JUMP JUMPDEST PUSH1 0x40 MLOAD SWAP1 DUP2 MSTORE PUSH1 0x20 ADD JUMPDEST PUSH1 0x40 MLOAD DUP1 SWAP2 SUB SWAP1 RETURN JUMPDEST PUSH1 0x6 SLOAD PUSH2 0x107 SWAP1 PUSH2 0x100 SWAP1 DIV PUSH1 0x1 PUSH1 0x1 PUSH1 0xA0 SHL SUB AND DUP2 JUMP JUMPDEST PUSH1 0x40 MLOAD PUSH1 0x1 PUSH1 0x1 PUSH1 0xA0 SHL SUB SWAP1 SWAP2 AND DUP2 MSTORE PUSH1 0x20 ADD PUSH2 0xE6 JUMP JUMPDEST PUSH2 0xDC PUSH1 0x5 SLOAD DUP2 JUMP JUMPDEST PUSH2 0xDC PUSH1 0x1 SLOAD DUP2 JUMP JUMPDEST PUSH2 0xDC PUSH1 0x9 SLOAD DUP2 JUMP JUMPDEST PUSH2 0xDC PUSH1 0x4 SLOAD DUP2 JUMP JUMPDEST PUSH2 0xDC PUSH1 0x3 SLOAD DUP2 JUMP JUMPDEST PUSH1 0x7 SLOAD PUSH2 0x107 SWAP1 PUSH1 0x1 PUSH1 0x1 PUSH1 0xA0 SHL SUB AND DUP2 JUMP JUMPDEST PUSH1 0xA SLOAD PUSH2 0x16C SWAP1 PUSH1 0xF8 SHL DUP2 JUMP JUMPDEST PUSH1 0x40 MLOAD PUSH1 0x1 PUSH1 0x1 PUSH1 0xF8 SHL SUB NOT SWAP1 SWAP2 AND DUP2 MSTORE PUSH1 0x20 ADD PUSH2 0xE6 JUMP JUMPDEST PUSH2 0xDC PUSH1 0x0 SLOAD DUP2 JUMP JUMPDEST PUSH2 0xDC PUSH1 0x8 SLOAD DUP2 JUMP JUMPDEST PUSH1 0x6 SLOAD PUSH2 0x1A4 SWAP1 PUSH1 0xFF AND DUP2 JUMP JUMPDEST PUSH1 0x40 MLOAD SWAP1 ISZERO ISZERO DUP2 MSTORE PUSH1 0x20 ADD PUSH2 0xE6 JUMP JUMPDEST PUSH2 0xDC PUSH1 0x2 SLOAD DUP2 JUMP JUMPDEST PUSH1 0xA SLOAD PUSH1 0x0 SWAP1 PUSH2 0x100 SWAP1 DIV PUSH1 0xFF AND PUSH1 0x2 DUP2 GT ISZERO PUSH2 0x1DC JUMPI PUSH2 0x1DC PUSH2 0x1E1 JUMP JUMPDEST SWAP1 POP SWAP1 JUMP JUMPDEST PUSH4 0x4E487B71 PUSH1 0xE0 SHL PUSH1 0x0 MSTORE PUSH1 0x21 PUSH1 0x4 MSTORE PUSH1 0x24 PUSH1 0x0 REVERT INVALID LOG2 PUSH5 0x6970667358 0x22 SLT KECCAK256 KECCAK256 EXTCODEHASH DUP8 EXTCODEHASH SWAP1 CODECOPY 0xD4 0x2F 0x2C 0x2A 0xEF CALLVALUE GASLIMIT GT CALLER ORIGIN PUSH6 0x41739CDA4D08 0xF9 0xD5 PUSH16 0xA2C9A51DA05264736F6C634300080700 CALLER "
		},
		"gasEstimates": {
			"creation": {
				"codeDepositCost": "111400",
				"executionCost": "252447",
				"totalCost": "363847"
			},
			"external": {
				"_address()": "2371",
				"_address1()": "2382",
				"_byte()": "2395",
				"_byte32()": "2373",
				"_int()": "2306",
				"_number()": "2372",
				"_number1()": "2307",
				"_number2()": "2395",
				"_number3()": "2329",
				"_numberbool()": "2376",
				"_uint()": "2351",
				"balance()": "2328",
				"enumToUint()": "2351"
			}
		},
		"methodIdentifiers": {
			"_address()": "18bad217",
			"_address1()": "ac729403",
			"_byte()": "aeb6f292",
			"_byte32()": "3f346102",
			"_int()": "af45869e",
			"_number()": "f9bd55cc",
			"_number1()": "6e8d0c9e",
			"_number2()": "6b1d2c4e",
			"_number3()": "19bff7df",
			"_numberbool()": "e37c6c82",
			"_uint()": "2543135b",
			"balance()": "b69ef8a8",
			"enumToUint()": "01019958"
		}
	},
	"abi": [
		{
			"inputs": [],
			"name": "_address",
			"outputs": [
				{
					"internalType": "address",
					"name": "",
					"type": "address"
				}
			],
			"stateMutability": "view",
			"type": "function"
		},
		{
			"inputs": [],
			"name": "_address1",
			"outputs": [
				{
					"internalType": "address payable",
					"name": "",
					"type": "address"
				}
			],
			"stateMutability": "view",
			"type": "function"
		},
		{
			"inputs": [],
			"name": "_byte",
			"outputs": [
				{
					"internalType": "bytes1",
					"name": "",
					"type": "bytes1"
				}
			],
			"stateMutability": "view",
			"type": "function"
		},
		{
			"inputs": [],
			"name": "_byte32",
			"outputs": [
				{
					"internalType": "bytes32",
					"name": "",
					"type": "bytes32"
				}
			],
			"stateMutability": "view",
			"type": "function"
		},
		{
			"inputs": [],
			"name": "_int",
			"outputs": [
				{
					"internalType": "int256",
					"name": "",
					"type": "int256"
				}
			],
			"stateMutability": "view",
			"type": "function"
		},
		{
			"inputs": [],
			"name": "_number",
			"outputs": [
				{
					"internalType": "uint256",
					"name": "",
					"type": "uint256"
				}
			],
			"stateMutability": "view",
			"type": "function"
		},
		{
			"inputs": [],
			"name": "_number1",
			"outputs": [
				{
					"internalType": "uint256",
					"name": "",
					"type": "uint256"
				}
			],
			"stateMutability": "view",
			"type": "function"
		},
		{
			"inputs": [],
			"name": "_number2",
			"outputs": [
				{
					"internalType": "uint256",
					"name": "",
					"type": "uint256"
				}
			],
			"stateMutability": "view",
			"type": "function"
		},
		{
			"inputs": [],
			"name": "_number3",
			"outputs": [
				{
					"internalType": "uint256",
					"name": "",
					"type": "uint256"
				}
			],
			"stateMutability": "view",
			"type": "function"
		},
		{
			"inputs": [],
			"name": "_numberbool",
			"outputs": [
				{
					"internalType": "bool",
					"name": "",
					"type": "bool"
				}
			],
			"stateMutability": "view",
			"type": "function"
		},
		{
			"inputs": [],
			"name": "_uint",
			"outputs": [
				{
					"internalType": "uint256",
					"name": "",
					"type": "uint256"
				}
			],
			"stateMutability": "view",
			"type": "function"
		},
		{
			"inputs": [],
			"name": "balance",
			"outputs": [
				{
					"internalType": "uint256",
					"name": "",
					"type": "uint256"
				}
			],
			"stateMutability": "view",
			"type": "function"
		},
		{
			"inputs": [],
			"name": "enumToUint",
			"outputs": [
				{
					"internalType": "uint256",
					"name": "",
					"type": "uint256"
				}
			],
			"stateMutability": "view",
			"type": "function"
		}
	]
}