{
	"data": {
		"bytecode": {
			"linkReferences": {},
			"object": "60806040526064600081905560018190556100199061002e565b60025534801561002857600080fd5b506101a2565b600061003b600283610176565b92915050565b80825b60018086116100535750610086565b6001600160ff1b0382900482111561006d5761006d61018c565b8086161561007a57918102915b9490941c938002610044565b935093915050565b60008280156100a457600181146100ae576100b7565b600191505061003b565b8291505061003b565b50816100c55750600061003b565b506001600082138082146100de5780156100fd57610117565b6001600160ff1b038390048311156100f8576100f861018c565b610117565b6001600160ff1b038390058312156101175761011761018c565b50808316156101235750805b6101338360011c83840283610041565b600082136001600160ff1b03829004831116156101525761015261018c565b60008212600160ff1b8290058312161561016e5761016e61018c565b029392505050565b600061018560ff84168361008e565b9392505050565b634e487b7160e01b600052601160045260246000fd5b610254806101b16000396000f3fe608060405234801561001057600080fd5b506004361061004c5760003560e01c80632797ec45146100515780636b1d2c4e146100765780636e8d0c9e1461007f578063f9bd55cc14610088575b600080fd5b61006461005f3660046100a4565b610091565b60405190815260200160405180910390f35b61006460025481565b61006460015481565b61006460005481565b600061009e6002836101f2565b92915050565b6000602082840312156100b657600080fd5b5035919050565b80825b60018086116100cf5750610102565b6001600160ff1b038290048211156100e9576100e9610208565b808616156100f657918102915b9490941c9380026100c0565b935093915050565b6000828015610120576001811461012a57610133565b600191505061009e565b8291505061009e565b50816101415750600061009e565b5060016000821380821461015a57801561017957610193565b6001600160ff1b0383900483111561017457610174610208565b610193565b6001600160ff1b0383900583121561019357610193610208565b508083161561019f5750805b6101af8360011c838402836100bd565b600082136001600160ff1b03829004831116156101ce576101ce610208565b60008212600160ff1b829005831216156101ea576101ea610208565b029392505050565b600061020160ff84168361010a565b9392505050565b634e487b7160e01b600052601160045260246000fdfea2646970667358221220275aee862df540d52bc6d20c1a592addd93d37bd28fa24731684093167ad7c7664736f6c63430008070033",
			"opcodes": "PUSH1 0x80 PUSH1 0x40 MSTORE PUSH1 0x64 PUSH1 0x0 DUP2 SWAP1 SSTORE PUSH1 0x1 DUP2 SWAP1 SSTORE PUSH2 0x19 SWAP1 PUSH2 0x2E JUMP JUMPDEST PUSH1 0x2 SSTORE CALLVALUE DUP1 ISZERO PUSH2 0x28 JUMPI PUSH1 0x0 DUP1 REVERT JUMPDEST POP PUSH2 0x1A2 JUMP JUMPDEST PUSH1 0x0 PUSH2 0x3B PUSH1 0x2 DUP4 PUSH2 0x176 JUMP JUMPDEST SWAP3 SWAP2 POP POP JUMP JUMPDEST DUP1 DUP3 JUMPDEST PUSH1 0x1 DUP1 DUP7 GT PUSH2 0x53 JUMPI POP PUSH2 0x86 JUMP JUMPDEST PUSH1 0x1 PUSH1 0x1 PUSH1 0xFF SHL SUB DUP3 SWAP1 DIV DUP3 GT ISZERO PUSH2 0x6D JUMPI PUSH2 0x6D PUSH2 0x18C JUMP JUMPDEST DUP1 DUP7 AND ISZERO PUSH2 0x7A JUMPI SWAP2 DUP2 MUL SWAP2 JUMPDEST SWAP5 SWAP1 SWAP5 SHR SWAP4 DUP1 MUL PUSH2 0x44 JUMP JUMPDEST SWAP4 POP SWAP4 SWAP2 POP POP JUMP JUMPDEST PUSH1 0x0 DUP3 DUP1 ISZERO PUSH2 0xA4 JUMPI PUSH1 0x1 DUP2 EQ PUSH2 0xAE JUMPI PUSH2 0xB7 JUMP JUMPDEST PUSH1 0x1 SWAP2 POP POP PUSH2 0x3B JUMP JUMPDEST DUP3 SWAP2 POP POP PUSH2 0x3B JUMP JUMPDEST POP DUP2 PUSH2 0xC5 JUMPI POP PUSH1 0x0 PUSH2 0x3B JUMP JUMPDEST POP PUSH1 0x1 PUSH1 0x0 DUP3 SGT DUP1 DUP3 EQ PUSH2 0xDE JUMPI DUP1 ISZERO PUSH2 0xFD JUMPI PUSH2 0x117 JUMP JUMPDEST PUSH1 0x1 PUSH1 0x1 PUSH1 0xFF SHL SUB DUP4 SWAP1 DIV DUP4 GT ISZERO PUSH2 0xF8 JUMPI PUSH2 0xF8 PUSH2 0x18C JUMP JUMPDEST PUSH2 0x117 JUMP JUMPDEST PUSH1 0x1 PUSH1 0x1 PUSH1 0xFF SHL SUB DUP4 SWAP1 SDIV DUP4 SLT ISZERO PUSH2 0x117 JUMPI PUSH2 0x117 PUSH2 0x18C JUMP JUMPDEST POP DUP1 DUP4 AND ISZERO PUSH2 0x123 JUMPI POP DUP1 JUMPDEST PUSH2 0x133 DUP4 PUSH1 0x1 SHR DUP4 DUP5 MUL DUP4 PUSH2 0x41 JUMP JUMPDEST PUSH1 0x0 DUP3 SGT PUSH1 0x1 PUSH1 0x1 PUSH1 0xFF SHL SUB DUP3 SWAP1 DIV DUP4 GT AND ISZERO PUSH2 0x152 JUMPI PUSH2 0x152 PUSH2 0x18C JUMP JUMPDEST PUSH1 0x0 DUP3 SLT PUSH1 0x1 PUSH1 0xFF SHL DUP3 SWAP1 SDIV DUP4 SLT AND ISZERO PUSH2 0x16E JUMPI PUSH2 0x16E PUSH2 0x18C JUMP JUMPDEST MUL SWAP4 SWAP3 POP POP POP JUMP JUMPDEST PUSH1 0x0 PUSH2 0x185 PUSH1 0xFF DUP5 AND DUP4 PUSH2 0x8E JUMP JUMPDEST SWAP4 SWAP3 POP POP POP JUMP JUMPDEST PUSH4 0x4E487B71 PUSH1 0xE0 SHL PUSH1 0x0 MSTORE PUSH1 0x11 PUSH1 0x4 MSTORE PUSH1 0x24 PUSH1 0x0 REVERT JUMPDEST PUSH2 0x254 DUP1 PUSH2 0x1B1 PUSH1 0x0 CODECOPY PUSH1 0x0 RETURN INVALID PUSH1 0x80 PUSH1 0x40 MSTORE CALLVALUE DUP1 ISZERO PUSH2 0x10 JUMPI PUSH1 0x0 DUP1 REVERT JUMPDEST POP PUSH1 0x4 CALLDATASIZE LT PUSH2 0x4C JUMPI PUSH1 0x0 CALLDATALOAD PUSH1 0xE0 SHR DUP1 PUSH4 0x2797EC45 EQ PUSH2 0x51 JUMPI DUP1 PUSH4 0x6B1D2C4E EQ PUSH2 0x76 JUMPI DUP1 PUSH4 0x6E8D0C9E EQ PUSH2 0x7F JUMPI DUP1 PUSH4 0xF9BD55CC EQ PUSH2 0x88 JUMPI JUMPDEST PUSH1 0x0 DUP1 REVERT JUMPDEST PUSH2 0x64 PUSH2 0x5F CALLDATASIZE PUSH1 0x4 PUSH2 0xA4 JUMP JUMPDEST PUSH2 0x91 JUMP JUMPDEST PUSH1 0x40 MLOAD SWAP1 DUP2 MSTORE PUSH1 0x20 ADD PUSH1 0x40 MLOAD DUP1 SWAP2 SUB SWAP1 RETURN JUMPDEST PUSH2 0x64 PUSH1 0x2 SLOAD DUP2 JUMP JUMPDEST PUSH2 0x64 PUSH1 0x1 SLOAD DUP2 JUMP JUMPDEST PUSH2 0x64 PUSH1 0x0 SLOAD DUP2 JUMP JUMPDEST PUSH1 0x0 PUSH2 0x9E PUSH1 0x2 DUP4 PUSH2 0x1F2 JUMP JUMPDEST SWAP3 SWAP2 POP POP JUMP JUMPDEST PUSH1 0x0 PUSH1 0x20 DUP3 DUP5 SUB SLT ISZERO PUSH2 0xB6 JUMPI PUSH1 0x0 DUP1 REVERT JUMPDEST POP CALLDATALOAD SWAP2 SWAP1 POP JUMP JUMPDEST DUP1 DUP3 JUMPDEST PUSH1 0x1 DUP1 DUP7 GT PUSH2 0xCF JUMPI POP PUSH2 0x102 JUMP JUMPDEST PUSH1 0x1 PUSH1 0x1 PUSH1 0xFF SHL SUB DUP3 SWAP1 DIV DUP3 GT ISZERO PUSH2 0xE9 JUMPI PUSH2 0xE9 PUSH2 0x208 JUMP JUMPDEST DUP1 DUP7 AND ISZERO PUSH2 0xF6 JUMPI SWAP2 DUP2 MUL SWAP2 JUMPDEST SWAP5 SWAP1 SWAP5 SHR SWAP4 DUP1 MUL PUSH2 0xC0 JUMP JUMPDEST SWAP4 POP SWAP4 SWAP2 POP POP JUMP JUMPDEST PUSH1 0x0 DUP3 DUP1 ISZERO PUSH2 0x120 JUMPI PUSH1 0x1 DUP2 EQ PUSH2 0x12A JUMPI PUSH2 0x133 JUMP JUMPDEST PUSH1 0x1 SWAP2 POP POP PUSH2 0x9E JUMP JUMPDEST DUP3 SWAP2 POP POP PUSH2 0x9E JUMP JUMPDEST POP DUP2 PUSH2 0x141 JUMPI POP PUSH1 0x0 PUSH2 0x9E JUMP JUMPDEST POP PUSH1 0x1 PUSH1 0x0 DUP3 SGT DUP1 DUP3 EQ PUSH2 0x15A JUMPI DUP1 ISZERO PUSH2 0x179 JUMPI PUSH2 0x193 JUMP JUMPDEST PUSH1 0x1 PUSH1 0x1 PUSH1 0xFF SHL SUB DUP4 SWAP1 DIV DUP4 GT ISZERO PUSH2 0x174 JUMPI PUSH2 0x174 PUSH2 0x208 JUMP JUMPDEST PUSH2 0x193 JUMP JUMPDEST PUSH1 0x1 PUSH1 0x1 PUSH1 0xFF SHL SUB DUP4 SWAP1 SDIV DUP4 SLT ISZERO PUSH2 0x193 JUMPI PUSH2 0x193 PUSH2 0x208 JUMP JUMPDEST POP DUP1 DUP4 AND ISZERO PUSH2 0x19F JUMPI POP DUP1 JUMPDEST PUSH2 0x1AF DUP4 PUSH1 0x1 SHR DUP4 DUP5 MUL DUP4 PUSH2 0xBD JUMP JUMPDEST PUSH1 0x0 DUP3 SGT PUSH1 0x1 PUSH1 0x1 PUSH1 0xFF SHL SUB DUP3 SWAP1 DIV DUP4 GT AND ISZERO PUSH2 0x1CE JUMPI PUSH2 0x1CE PUSH2 0x208 JUMP JUMPDEST PUSH1 0x0 DUP3 SLT PUSH1 0x1 PUSH1 0xFF SHL DUP3 SWAP1 SDIV DUP4 SLT AND ISZERO PUSH2 0x1EA JUMPI PUSH2 0x1EA PUSH2 0x208 JUMP JUMPDEST MUL SWAP4 SWAP3 POP POP POP JUMP JUMPDEST PUSH1 0x0 PUSH2 0x201 PUSH1 0xFF DUP5 AND DUP4 PUSH2 0x10A JUMP JUMPDEST SWAP4 SWAP3 POP POP POP JUMP JUMPDEST PUSH4 0x4E487B71 PUSH1 0xE0 SHL PUSH1 0x0 MSTORE PUSH1 0x11 PUSH1 0x4 MSTORE PUSH1 0x24 PUSH1 0x0 REVERT INVALID LOG2 PUSH5 0x6970667358 0x22 SLT KECCAK256 0x27 GAS 0xEE DUP7 0x2D CREATE2 BLOCKHASH 0xD5 0x2B 0xC6 0xD2 0xC BYTE MSIZE 0x2A 0xDD 0xD9 RETURNDATASIZE CALLDATACOPY 0xBD 0x28 STATICCALL 0x24 PUSH20 0x1684093167AD7C7664736F6C6343000807003300 "
		},
		"gasEstimates": {
			"creation": {
				"codeDepositCost": "119200",
				"executionCost": "67067",
				"totalCost": "186267"
			},
			"external": {
				"_number()": "2327",
				"_number1()": "2305",
				"_number2()": "2283",
				"square(int256)": "790"
			}
		},
		"methodIdentifiers": {
			"_number()": "f9bd55cc",
			"_number1()": "6e8d0c9e",
			"_number2()": "6b1d2c4e",
			"square(int256)": "2797ec45"
		}
	},
	"abi": [
		{
			"inputs": [],
			"name": "_number",
			"outputs": [
				{
					"internalType": "int256",
					"name": "",
					"type": "int256"
				}
			],
			"stateMutability": "view",
			"type": "function"
		},
		{
			"inputs": [],
			"name": "_number1",
			"outputs": [
				{
					"internalType": "int256",
					"name": "",
					"type": "int256"
				}
			],
			"stateMutability": "view",
			"type": "function"
		},
		{
			"inputs": [],
			"name": "_number2",
			"outputs": [
				{
					"internalType": "int256",
					"name": "",
					"type": "int256"
				}
			],
			"stateMutability": "view",
			"type": "function"
		},
		{
			"inputs": [
				{
					"internalType": "int256",
					"name": "x",
					"type": "int256"
				}
			],
			"name": "square",
			"outputs": [
				{
					"internalType": "int256",
					"name": "",
					"type": "int256"
				}
			],
			"stateMutability": "pure",
			"type": "function"
		}
	]
}