{
	"WTF/wtf_17(callContract).sol": {
		"CallContract": {
			"abi": [
				{
					"inputs": [
						{
							"internalType": "contract OtherContract",
							"name": "_Address",
							"type": "address"
						}
					],
					"name": "callGetX",
					"outputs": [
						{
							"internalType": "uint256",
							"name": "x",
							"type": "uint256"
						}
					],
					"stateMutability": "view",
					"type": "function"
				},
				{
					"inputs": [
						{
							"internalType": "address",
							"name": "_Address",
							"type": "address"
						}
					],
					"name": "callGetX2",
					"outputs": [
						{
							"internalType": "uint256",
							"name": "x",
							"type": "uint256"
						}
					],
					"stateMutability": "view",
					"type": "function"
				},
				{
					"inputs": [
						{
							"internalType": "address",
							"name": "_Address",
							"type": "address"
						},
						{
							"internalType": "uint256",
							"name": "x",
							"type": "uint256"
						}
					],
					"name": "callSetX",
					"outputs": [],
					"stateMutability": "nonpayable",
					"type": "function"
				},
				{
					"inputs": [
						{
							"internalType": "address",
							"name": "_Address",
							"type": "address"
						},
						{
							"internalType": "uint256",
							"name": "x",
							"type": "uint256"
						}
					],
					"name": "setXTransferETH",
					"outputs": [],
					"stateMutability": "payable",
					"type": "function"
				}
			],
			"devdoc": {
				"kind": "dev",
				"methods": {},
				"version": 1
			},
			"evm": {
				"assembly": "    /* \"WTF/wtf_17(callContract).sol\":693:1406  contract CallContract {\r... */\n  mstore(0x40, 0x80)\n  callvalue\n  dup1\n  iszero\n  tag_1\n  jumpi\n  0x00\n  dup1\n  revert\ntag_1:\n  pop\n  dataSize(sub_0)\n  dup1\n  dataOffset(sub_0)\n  0x00\n  codecopy\n  0x00\n  return\nstop\n\nsub_0: assembly {\n        /* \"WTF/wtf_17(callContract).sol\":693:1406  contract CallContract {\r... */\n      mstore(0x40, 0x80)\n      jumpi(tag_1, lt(calldatasize, 0x04))\n      shr(0xe0, calldataload(0x00))\n      dup1\n      0x3004b163\n      eq\n      tag_2\n      jumpi\n      dup1\n      0x3ca065bb\n      eq\n      tag_3\n      jumpi\n      dup1\n      0x66563e69\n      eq\n      tag_4\n      jumpi\n      dup1\n      0x94a7b4f4\n      eq\n      tag_5\n      jumpi\n    tag_1:\n      0x00\n      dup1\n      revert\n        /* \"WTF/wtf_17(callContract).sol\":1265:1403  function setXTransferETH(address _Address, uint256 x) payable external{\r... */\n    tag_2:\n      tag_6\n      0x04\n      dup1\n      calldatasize\n      sub\n      dup2\n      add\n      swap1\n      tag_7\n      swap2\n      swap1\n      tag_8\n      jump\t// in\n    tag_7:\n      tag_9\n      jump\t// in\n    tag_6:\n      stop\n        /* \"WTF/wtf_17(callContract).sol\":722:827  function callSetX(address _Address, uint256 x) external{\r... */\n    tag_3:\n      callvalue\n      dup1\n      iszero\n      tag_10\n      jumpi\n      0x00\n      dup1\n      revert\n    tag_10:\n      pop\n      tag_11\n      0x04\n      dup1\n      calldatasize\n      sub\n      dup2\n      add\n      swap1\n      tag_12\n      swap2\n      swap1\n      tag_8\n      jump\t// in\n    tag_12:\n      tag_13\n      jump\t// in\n    tag_11:\n      stop\n        /* \"WTF/wtf_17(callContract).sol\":835:944  function callGetX(OtherContract _Address) external view returns(uint x){\r... */\n    tag_4:\n      callvalue\n      dup1\n      iszero\n      tag_14\n      jumpi\n      0x00\n      dup1\n      revert\n    tag_14:\n      pop\n      tag_15\n      0x04\n      dup1\n      calldatasize\n      sub\n      dup2\n      add\n      swap1\n      tag_16\n      swap2\n      swap1\n      tag_17\n      jump\t// in\n    tag_16:\n      tag_18\n      jump\t// in\n    tag_15:\n      mload(0x40)\n      tag_19\n      swap2\n      swap1\n      tag_20\n      jump\t// in\n    tag_19:\n      mload(0x40)\n      dup1\n      swap2\n      sub\n      swap1\n      return\n        /* \"WTF/wtf_17(callContract).sol\":952:1154  function callGetX2(address _Address) external view returns(uint x){\r... */\n    tag_5:\n      callvalue\n      dup1\n      iszero\n      tag_21\n      jumpi\n      0x00\n      dup1\n      revert\n    tag_21:\n      pop\n      tag_22\n      0x04\n      dup1\n      calldatasize\n      sub\n      dup2\n      add\n      swap1\n      tag_23\n      swap2\n      swap1\n      tag_24\n      jump\t// in\n    tag_23:\n      tag_25\n      jump\t// in\n    tag_22:\n      mload(0x40)\n      tag_26\n      swap2\n      swap1\n      tag_20\n      jump\t// in\n    tag_26:\n      mload(0x40)\n      dup1\n      swap2\n      sub\n      swap1\n      return\n        /* \"WTF/wtf_17(callContract).sol\":1265:1403  function setXTransferETH(address _Address, uint256 x) payable external{\r... */\n    tag_9:\n        /* \"WTF/wtf_17(callContract).sol\":1360:1368  _Address */\n      dup2\n        /* \"WTF/wtf_17(callContract).sol\":1346:1374  OtherContract(_Address).setX */\n      0xffffffffffffffffffffffffffffffffffffffff\n      and\n      0x4018d9aa\n        /* \"WTF/wtf_17(callContract).sol\":1382:1391  msg.value */\n      callvalue\n        /* \"WTF/wtf_17(callContract).sol\":1393:1394  x */\n      dup4\n        /* \"WTF/wtf_17(callContract).sol\":1346:1395  OtherContract(_Address).setX{value: msg.value}(x) */\n      mload(0x40)\n      dup4\n      0xffffffff\n      and\n      0xe0\n      shl\n      dup2\n      mstore\n      0x04\n      add\n      tag_28\n      swap2\n      swap1\n      tag_20\n      jump\t// in\n    tag_28:\n      0x00\n      mload(0x40)\n      dup1\n      dup4\n      sub\n      dup2\n      dup6\n      dup9\n      dup1\n      extcodesize\n      iszero\n      dup1\n      iszero\n      tag_29\n      jumpi\n      0x00\n      dup1\n      revert\n    tag_29:\n      pop\n      gas\n      call\n      iszero\n      dup1\n      iszero\n      tag_31\n      jumpi\n      returndatasize\n      0x00\n      dup1\n      returndatacopy\n      revert(0x00, returndatasize)\n    tag_31:\n      pop\n      pop\n      pop\n      pop\n      pop\n        /* \"WTF/wtf_17(callContract).sol\":1265:1403  function setXTransferETH(address _Address, uint256 x) payable external{\r... */\n      pop\n      pop\n      jump\t// out\n        /* \"WTF/wtf_17(callContract).sol\":722:827  function callSetX(address _Address, uint256 x) external{\r... */\n    tag_13:\n        /* \"WTF/wtf_17(callContract).sol\":802:810  _Address */\n      dup2\n        /* \"WTF/wtf_17(callContract).sol\":788:816  OtherContract(_Address).setX */\n      0xffffffffffffffffffffffffffffffffffffffff\n      and\n      0x4018d9aa\n        /* \"WTF/wtf_17(callContract).sol\":817:818  x */\n      dup3\n        /* \"WTF/wtf_17(callContract).sol\":788:819  OtherContract(_Address).setX(x) */\n      mload(0x40)\n      dup3\n      0xffffffff\n      and\n      0xe0\n      shl\n      dup2\n      mstore\n      0x04\n      add\n      tag_33\n      swap2\n      swap1\n      tag_20\n      jump\t// in\n    tag_33:\n      0x00\n      mload(0x40)\n      dup1\n      dup4\n      sub\n      dup2\n      0x00\n      dup8\n      dup1\n      extcodesize\n      iszero\n      dup1\n      iszero\n      tag_34\n      jumpi\n      0x00\n      dup1\n      revert\n    tag_34:\n      pop\n      gas\n      call\n      iszero\n      dup1\n      iszero\n      tag_36\n      jumpi\n      returndatasize\n      0x00\n      dup1\n      returndatacopy\n      revert(0x00, returndatasize)\n    tag_36:\n      pop\n      pop\n      pop\n      pop\n        /* \"WTF/wtf_17(callContract).sol\":722:827  function callSetX(address _Address, uint256 x) external{\r... */\n      pop\n      pop\n      jump\t// out\n        /* \"WTF/wtf_17(callContract).sol\":835:944  function callGetX(OtherContract _Address) external view returns(uint x){\r... */\n    tag_18:\n        /* \"WTF/wtf_17(callContract).sol\":899:905  uint x */\n      0x00\n        /* \"WTF/wtf_17(callContract).sol\":921:929  _Address */\n      dup2\n        /* \"WTF/wtf_17(callContract).sol\":921:934  _Address.getX */\n      0xffffffffffffffffffffffffffffffffffffffff\n      and\n      0x5197c7aa\n        /* \"WTF/wtf_17(callContract).sol\":921:936  _Address.getX() */\n      mload(0x40)\n      dup2\n      0xffffffff\n      and\n      0xe0\n      shl\n      dup2\n      mstore\n      0x04\n      add\n      0x20\n      mload(0x40)\n      dup1\n      dup4\n      sub\n      dup2\n      dup7\n      dup1\n      extcodesize\n      iszero\n      dup1\n      iszero\n      tag_38\n      jumpi\n      0x00\n      dup1\n      revert\n    tag_38:\n      pop\n      gas\n      staticcall\n      iszero\n      dup1\n      iszero\n      tag_40\n      jumpi\n      returndatasize\n      0x00\n      dup1\n      returndatacopy\n      revert(0x00, returndatasize)\n    tag_40:\n      pop\n      pop\n      pop\n      pop\n      mload(0x40)\n      returndatasize\n      not(0x1f)\n      0x1f\n      dup3\n      add\n      and\n      dup3\n      add\n      dup1\n      0x40\n      mstore\n      pop\n      dup2\n      add\n      swap1\n      tag_41\n      swap2\n      swap1\n      tag_42\n      jump\t// in\n    tag_41:\n        /* \"WTF/wtf_17(callContract).sol\":917:936  x = _Address.getX() */\n      swap1\n      pop\n        /* \"WTF/wtf_17(callContract).sol\":835:944  function callGetX(OtherContract _Address) external view returns(uint x){\r... */\n      swap2\n      swap1\n      pop\n      jump\t// out\n        /* \"WTF/wtf_17(callContract).sol\":952:1154  function callGetX2(address _Address) external view returns(uint x){\r... */\n    tag_25:\n        /* \"WTF/wtf_17(callContract).sol\":1011:1017  uint x */\n      0x00\n        /* \"WTF/wtf_17(callContract).sol\":1130:1138  _Address */\n      dup2\n        /* \"WTF/wtf_17(callContract).sol\":1116:1144  OtherContract(_Address).getX */\n      0xffffffffffffffffffffffffffffffffffffffff\n      and\n      0x5197c7aa\n        /* \"WTF/wtf_17(callContract).sol\":1116:1146  OtherContract(_Address).getX() */\n      mload(0x40)\n      dup2\n      0xffffffff\n      and\n      0xe0\n      shl\n      dup2\n      mstore\n      0x04\n      add\n      0x20\n      mload(0x40)\n      dup1\n      dup4\n      sub\n      dup2\n      dup7\n      dup1\n      extcodesize\n      iszero\n      dup1\n      iszero\n      tag_44\n      jumpi\n      0x00\n      dup1\n      revert\n    tag_44:\n      pop\n      gas\n      staticcall\n      iszero\n      dup1\n      iszero\n      tag_46\n      jumpi\n      returndatasize\n      0x00\n      dup1\n      returndatacopy\n      revert(0x00, returndatasize)\n    tag_46:\n      pop\n      pop\n      pop\n      pop\n      mload(0x40)\n      returndatasize\n      not(0x1f)\n      0x1f\n      dup3\n      add\n      and\n      dup3\n      add\n      dup1\n      0x40\n      mstore\n      pop\n      dup2\n      add\n      swap1\n      tag_47\n      swap2\n      swap1\n      tag_42\n      jump\t// in\n    tag_47:\n        /* \"WTF/wtf_17(callContract).sol\":1112:1146  x = OtherContract(_Address).getX() */\n      swap1\n      pop\n        /* \"WTF/wtf_17(callContract).sol\":952:1154  function callGetX2(address _Address) external view returns(uint x){\r... */\n      swap2\n      swap1\n      pop\n      jump\t// out\n        /* \"#utility.yul\":7:146   */\n    tag_49:\n        /* \"#utility.yul\":53:58   */\n      0x00\n        /* \"#utility.yul\":91:97   */\n      dup2\n        /* \"#utility.yul\":78:98   */\n      calldataload\n        /* \"#utility.yul\":69:98   */\n      swap1\n      pop\n        /* \"#utility.yul\":107:140   */\n      tag_51\n        /* \"#utility.yul\":134:139   */\n      dup2\n        /* \"#utility.yul\":107:140   */\n      tag_52\n      jump\t// in\n    tag_51:\n        /* \"#utility.yul\":7:146   */\n      swap3\n      swap2\n      pop\n      pop\n      jump\t// out\n        /* \"#utility.yul\":152:331   */\n    tag_53:\n        /* \"#utility.yul\":218:223   */\n      0x00\n        /* \"#utility.yul\":256:262   */\n      dup2\n        /* \"#utility.yul\":243:263   */\n      calldataload\n        /* \"#utility.yul\":234:263   */\n      swap1\n      pop\n        /* \"#utility.yul\":272:325   */\n      tag_55\n        /* \"#utility.yul\":319:324   */\n      dup2\n        /* \"#utility.yul\":272:325   */\n      tag_56\n      jump\t// in\n    tag_55:\n        /* \"#utility.yul\":152:331   */\n      swap3\n      swap2\n      pop\n      pop\n      jump\t// out\n        /* \"#utility.yul\":337:476   */\n    tag_57:\n        /* \"#utility.yul\":383:388   */\n      0x00\n        /* \"#utility.yul\":421:427   */\n      dup2\n        /* \"#utility.yul\":408:428   */\n      calldataload\n        /* \"#utility.yul\":399:428   */\n      swap1\n      pop\n        /* \"#utility.yul\":437:470   */\n      tag_59\n        /* \"#utility.yul\":464:469   */\n      dup2\n        /* \"#utility.yul\":437:470   */\n      tag_60\n      jump\t// in\n    tag_59:\n        /* \"#utility.yul\":337:476   */\n      swap3\n      swap2\n      pop\n      pop\n      jump\t// out\n        /* \"#utility.yul\":482:625   */\n    tag_61:\n        /* \"#utility.yul\":539:544   */\n      0x00\n        /* \"#utility.yul\":570:576   */\n      dup2\n        /* \"#utility.yul\":564:577   */\n      mload\n        /* \"#utility.yul\":555:577   */\n      swap1\n      pop\n        /* \"#utility.yul\":586:619   */\n      tag_63\n        /* \"#utility.yul\":613:618   */\n      dup2\n        /* \"#utility.yul\":586:619   */\n      tag_60\n      jump\t// in\n    tag_63:\n        /* \"#utility.yul\":482:625   */\n      swap3\n      swap2\n      pop\n      pop\n      jump\t// out\n        /* \"#utility.yul\":631:960   */\n    tag_24:\n        /* \"#utility.yul\":690:696   */\n      0x00\n        /* \"#utility.yul\":739:741   */\n      0x20\n        /* \"#utility.yul\":727:736   */\n      dup3\n        /* \"#utility.yul\":718:725   */\n      dup5\n        /* \"#utility.yul\":714:737   */\n      sub\n        /* \"#utility.yul\":710:742   */\n      slt\n        /* \"#utility.yul\":707:826   */\n      iszero\n      tag_65\n      jumpi\n        /* \"#utility.yul\":745:824   */\n      tag_66\n      tag_67\n      jump\t// in\n    tag_66:\n        /* \"#utility.yul\":707:826   */\n    tag_65:\n        /* \"#utility.yul\":865:866   */\n      0x00\n        /* \"#utility.yul\":890:943   */\n      tag_68\n        /* \"#utility.yul\":935:942   */\n      dup5\n        /* \"#utility.yul\":926:932   */\n      dup3\n        /* \"#utility.yul\":915:924   */\n      dup6\n        /* \"#utility.yul\":911:933   */\n      add\n        /* \"#utility.yul\":890:943   */\n      tag_49\n      jump\t// in\n    tag_68:\n        /* \"#utility.yul\":880:943   */\n      swap2\n      pop\n        /* \"#utility.yul\":836:953   */\n      pop\n        /* \"#utility.yul\":631:960   */\n      swap3\n      swap2\n      pop\n      pop\n      jump\t// out\n        /* \"#utility.yul\":966:1440   */\n    tag_8:\n        /* \"#utility.yul\":1034:1040   */\n      0x00\n        /* \"#utility.yul\":1042:1048   */\n      dup1\n        /* \"#utility.yul\":1091:1093   */\n      0x40\n        /* \"#utility.yul\":1079:1088   */\n      dup4\n        /* \"#utility.yul\":1070:1077   */\n      dup6\n        /* \"#utility.yul\":1066:1089   */\n      sub\n        /* \"#utility.yul\":1062:1094   */\n      slt\n        /* \"#utility.yul\":1059:1178   */\n      iszero\n      tag_70\n      jumpi\n        /* \"#utility.yul\":1097:1176   */\n      tag_71\n      tag_67\n      jump\t// in\n    tag_71:\n        /* \"#utility.yul\":1059:1178   */\n    tag_70:\n        /* \"#utility.yul\":1217:1218   */\n      0x00\n        /* \"#utility.yul\":1242:1295   */\n      tag_72\n        /* \"#utility.yul\":1287:1294   */\n      dup6\n        /* \"#utility.yul\":1278:1284   */\n      dup3\n        /* \"#utility.yul\":1267:1276   */\n      dup7\n        /* \"#utility.yul\":1263:1285   */\n      add\n        /* \"#utility.yul\":1242:1295   */\n      tag_49\n      jump\t// in\n    tag_72:\n        /* \"#utility.yul\":1232:1295   */\n      swap3\n      pop\n        /* \"#utility.yul\":1188:1305   */\n      pop\n        /* \"#utility.yul\":1344:1346   */\n      0x20\n        /* \"#utility.yul\":1370:1423   */\n      tag_73\n        /* \"#utility.yul\":1415:1422   */\n      dup6\n        /* \"#utility.yul\":1406:1412   */\n      dup3\n        /* \"#utility.yul\":1395:1404   */\n      dup7\n        /* \"#utility.yul\":1391:1413   */\n      add\n        /* \"#utility.yul\":1370:1423   */\n      tag_57\n      jump\t// in\n    tag_73:\n        /* \"#utility.yul\":1360:1423   */\n      swap2\n      pop\n        /* \"#utility.yul\":1315:1433   */\n      pop\n        /* \"#utility.yul\":966:1440   */\n      swap3\n      pop\n      swap3\n      swap1\n      pop\n      jump\t// out\n        /* \"#utility.yul\":1446:1815   */\n    tag_17:\n        /* \"#utility.yul\":1525:1531   */\n      0x00\n        /* \"#utility.yul\":1574:1576   */\n      0x20\n        /* \"#utility.yul\":1562:1571   */\n      dup3\n        /* \"#utility.yul\":1553:1560   */\n      dup5\n        /* \"#utility.yul\":1549:1572   */\n      sub\n        /* \"#utility.yul\":1545:1577   */\n      slt\n        /* \"#utility.yul\":1542:1661   */\n      iszero\n      tag_75\n      jumpi\n        /* \"#utility.yul\":1580:1659   */\n      tag_76\n      tag_67\n      jump\t// in\n    tag_76:\n        /* \"#utility.yul\":1542:1661   */\n    tag_75:\n        /* \"#utility.yul\":1700:1701   */\n      0x00\n        /* \"#utility.yul\":1725:1798   */\n      tag_77\n        /* \"#utility.yul\":1790:1797   */\n      dup5\n        /* \"#utility.yul\":1781:1787   */\n      dup3\n        /* \"#utility.yul\":1770:1779   */\n      dup6\n        /* \"#utility.yul\":1766:1788   */\n      add\n        /* \"#utility.yul\":1725:1798   */\n      tag_53\n      jump\t// in\n    tag_77:\n        /* \"#utility.yul\":1715:1798   */\n      swap2\n      pop\n        /* \"#utility.yul\":1671:1808   */\n      pop\n        /* \"#utility.yul\":1446:1815   */\n      swap3\n      swap2\n      pop\n      pop\n      jump\t// out\n        /* \"#utility.yul\":1821:2172   */\n    tag_42:\n        /* \"#utility.yul\":1891:1897   */\n      0x00\n        /* \"#utility.yul\":1940:1942   */\n      0x20\n        /* \"#utility.yul\":1928:1937   */\n      dup3\n        /* \"#utility.yul\":1919:1926   */\n      dup5\n        /* \"#utility.yul\":1915:1938   */\n      sub\n        /* \"#utility.yul\":1911:1943   */\n      slt\n        /* \"#utility.yul\":1908:2027   */\n      iszero\n      tag_79\n      jumpi\n        /* \"#utility.yul\":1946:2025   */\n      tag_80\n      tag_67\n      jump\t// in\n    tag_80:\n        /* \"#utility.yul\":1908:2027   */\n    tag_79:\n        /* \"#utility.yul\":2066:2067   */\n      0x00\n        /* \"#utility.yul\":2091:2155   */\n      tag_81\n        /* \"#utility.yul\":2147:2154   */\n      dup5\n        /* \"#utility.yul\":2138:2144   */\n      dup3\n        /* \"#utility.yul\":2127:2136   */\n      dup6\n        /* \"#utility.yul\":2123:2145   */\n      add\n        /* \"#utility.yul\":2091:2155   */\n      tag_61\n      jump\t// in\n    tag_81:\n        /* \"#utility.yul\":2081:2155   */\n      swap2\n      pop\n        /* \"#utility.yul\":2037:2165   */\n      pop\n        /* \"#utility.yul\":1821:2172   */\n      swap3\n      swap2\n      pop\n      pop\n      jump\t// out\n        /* \"#utility.yul\":2178:2296   */\n    tag_82:\n        /* \"#utility.yul\":2265:2289   */\n      tag_84\n        /* \"#utility.yul\":2283:2288   */\n      dup2\n        /* \"#utility.yul\":2265:2289   */\n      tag_85\n      jump\t// in\n    tag_84:\n        /* \"#utility.yul\":2260:2263   */\n      dup3\n        /* \"#utility.yul\":2253:2290   */\n      mstore\n        /* \"#utility.yul\":2178:2296   */\n      pop\n      pop\n      jump\t// out\n        /* \"#utility.yul\":2302:2524   */\n    tag_20:\n        /* \"#utility.yul\":2395:2399   */\n      0x00\n        /* \"#utility.yul\":2433:2435   */\n      0x20\n        /* \"#utility.yul\":2422:2431   */\n      dup3\n        /* \"#utility.yul\":2418:2436   */\n      add\n        /* \"#utility.yul\":2410:2436   */\n      swap1\n      pop\n        /* \"#utility.yul\":2446:2517   */\n      tag_87\n        /* \"#utility.yul\":2514:2515   */\n      0x00\n        /* \"#utility.yul\":2503:2512   */\n      dup4\n        /* \"#utility.yul\":2499:2516   */\n      add\n        /* \"#utility.yul\":2490:2496   */\n      dup5\n        /* \"#utility.yul\":2446:2517   */\n      tag_82\n      jump\t// in\n    tag_87:\n        /* \"#utility.yul\":2302:2524   */\n      swap3\n      swap2\n      pop\n      pop\n      jump\t// out\n        /* \"#utility.yul\":2611:2707   */\n    tag_90:\n        /* \"#utility.yul\":2648:2655   */\n      0x00\n        /* \"#utility.yul\":2677:2701   */\n      tag_92\n        /* \"#utility.yul\":2695:2700   */\n      dup3\n        /* \"#utility.yul\":2677:2701   */\n      tag_93\n      jump\t// in\n    tag_92:\n        /* \"#utility.yul\":2666:2701   */\n      swap1\n      pop\n        /* \"#utility.yul\":2611:2707   */\n      swap2\n      swap1\n      pop\n      jump\t// out\n        /* \"#utility.yul\":2713:2829   */\n    tag_94:\n        /* \"#utility.yul\":2770:2777   */\n      0x00\n        /* \"#utility.yul\":2799:2823   */\n      tag_96\n        /* \"#utility.yul\":2817:2822   */\n      dup3\n        /* \"#utility.yul\":2799:2823   */\n      tag_90\n      jump\t// in\n    tag_96:\n        /* \"#utility.yul\":2788:2823   */\n      swap1\n      pop\n        /* \"#utility.yul\":2713:2829   */\n      swap2\n      swap1\n      pop\n      jump\t// out\n        /* \"#utility.yul\":2835:2961   */\n    tag_93:\n        /* \"#utility.yul\":2872:2879   */\n      0x00\n        /* \"#utility.yul\":2912:2954   */\n      0xffffffffffffffffffffffffffffffffffffffff\n        /* \"#utility.yul\":2905:2910   */\n      dup3\n        /* \"#utility.yul\":2901:2955   */\n      and\n        /* \"#utility.yul\":2890:2955   */\n      swap1\n      pop\n        /* \"#utility.yul\":2835:2961   */\n      swap2\n      swap1\n      pop\n      jump\t// out\n        /* \"#utility.yul\":2967:3044   */\n    tag_85:\n        /* \"#utility.yul\":3004:3011   */\n      0x00\n        /* \"#utility.yul\":3033:3038   */\n      dup2\n        /* \"#utility.yul\":3022:3038   */\n      swap1\n      pop\n        /* \"#utility.yul\":2967:3044   */\n      swap2\n      swap1\n      pop\n      jump\t// out\n        /* \"#utility.yul\":3173:3290   */\n    tag_67:\n        /* \"#utility.yul\":3282:3283   */\n      0x00\n        /* \"#utility.yul\":3279:3280   */\n      dup1\n        /* \"#utility.yul\":3272:3284   */\n      revert\n        /* \"#utility.yul\":3296:3418   */\n    tag_52:\n        /* \"#utility.yul\":3369:3393   */\n      tag_103\n        /* \"#utility.yul\":3387:3392   */\n      dup2\n        /* \"#utility.yul\":3369:3393   */\n      tag_90\n      jump\t// in\n    tag_103:\n        /* \"#utility.yul\":3362:3367   */\n      dup2\n        /* \"#utility.yul\":3359:3394   */\n      eq\n        /* \"#utility.yul\":3349:3412   */\n      tag_104\n      jumpi\n        /* \"#utility.yul\":3408:3409   */\n      0x00\n        /* \"#utility.yul\":3405:3406   */\n      dup1\n        /* \"#utility.yul\":3398:3410   */\n      revert\n        /* \"#utility.yul\":3349:3412   */\n    tag_104:\n        /* \"#utility.yul\":3296:3418   */\n      pop\n      jump\t// out\n        /* \"#utility.yul\":3424:3586   */\n    tag_56:\n        /* \"#utility.yul\":3517:3561   */\n      tag_106\n        /* \"#utility.yul\":3555:3560   */\n      dup2\n        /* \"#utility.yul\":3517:3561   */\n      tag_94\n      jump\t// in\n    tag_106:\n        /* \"#utility.yul\":3510:3515   */\n      dup2\n        /* \"#utility.yul\":3507:3562   */\n      eq\n        /* \"#utility.yul\":3497:3580   */\n      tag_107\n      jumpi\n        /* \"#utility.yul\":3576:3577   */\n      0x00\n        /* \"#utility.yul\":3573:3574   */\n      dup1\n        /* \"#utility.yul\":3566:3578   */\n      revert\n        /* \"#utility.yul\":3497:3580   */\n    tag_107:\n        /* \"#utility.yul\":3424:3586   */\n      pop\n      jump\t// out\n        /* \"#utility.yul\":3592:3714   */\n    tag_60:\n        /* \"#utility.yul\":3665:3689   */\n      tag_109\n        /* \"#utility.yul\":3683:3688   */\n      dup2\n        /* \"#utility.yul\":3665:3689   */\n      tag_85\n      jump\t// in\n    tag_109:\n        /* \"#utility.yul\":3658:3663   */\n      dup2\n        /* \"#utility.yul\":3655:3690   */\n      eq\n        /* \"#utility.yul\":3645:3708   */\n      tag_110\n      jumpi\n        /* \"#utility.yul\":3704:3705   */\n      0x00\n        /* \"#utility.yul\":3701:3702   */\n      dup1\n        /* \"#utility.yul\":3694:3706   */\n      revert\n        /* \"#utility.yul\":3645:3708   */\n    tag_110:\n        /* \"#utility.yul\":3592:3714   */\n      pop\n      jump\t// out\n\n    auxdata: 0xa264697066735822122062f6e2072dd0b49af5466c77bae8f49005c4daf484c7a3e5ebce99b46e83270364736f6c63430008070033\n}\n",
				"bytecode": {
					"linkReferences": {},
					"object": "608060405234801561001057600080fd5b50610503806100206000396000f3fe60806040526004361061003f5760003560e01c80633004b163146100445780633ca065bb1461006057806366563e691461008957806394a7b4f4146100c6575b600080fd5b61005e60048036038101906100599190610371565b610103565b005b34801561006c57600080fd5b5061008760048036038101906100829190610371565b610173565b005b34801561009557600080fd5b506100b060048036038101906100ab91906103b1565b6101e2565b6040516100bd919061041a565b60405180910390f35b3480156100d257600080fd5b506100ed60048036038101906100e89190610344565b610269565b6040516100fa919061041a565b60405180910390f35b8173ffffffffffffffffffffffffffffffffffffffff16634018d9aa34836040518363ffffffff1660e01b815260040161013d919061041a565b6000604051808303818588803b15801561015657600080fd5b505af115801561016a573d6000803e3d6000fd5b50505050505050565b8173ffffffffffffffffffffffffffffffffffffffff16634018d9aa826040518263ffffffff1660e01b81526004016101ac919061041a565b600060405180830381600087803b1580156101c657600080fd5b505af11580156101da573d6000803e3d6000fd5b505050505050565b60008173ffffffffffffffffffffffffffffffffffffffff16635197c7aa6040518163ffffffff1660e01b815260040160206040518083038186803b15801561022a57600080fd5b505afa15801561023e573d6000803e3d6000fd5b505050506040513d601f19601f8201168201806040525081019061026291906103de565b9050919050565b60008173ffffffffffffffffffffffffffffffffffffffff16635197c7aa6040518163ffffffff1660e01b815260040160206040518083038186803b1580156102b157600080fd5b505afa1580156102c5573d6000803e3d6000fd5b505050506040513d601f19601f820116820180604052508101906102e991906103de565b9050919050565b6000813590506102ff81610488565b92915050565b6000813590506103148161049f565b92915050565b600081359050610329816104b6565b92915050565b60008151905061033e816104b6565b92915050565b60006020828403121561035a57610359610483565b5b6000610368848285016102f0565b91505092915050565b6000806040838503121561038857610387610483565b5b6000610396858286016102f0565b92505060206103a78582860161031a565b9150509250929050565b6000602082840312156103c7576103c6610483565b5b60006103d584828501610305565b91505092915050565b6000602082840312156103f4576103f3610483565b5b60006104028482850161032f565b91505092915050565b61041481610479565b82525050565b600060208201905061042f600083018461040b565b92915050565b600061044082610459565b9050919050565b600061045282610435565b9050919050565b600073ffffffffffffffffffffffffffffffffffffffff82169050919050565b6000819050919050565b600080fd5b61049181610435565b811461049c57600080fd5b50565b6104a881610447565b81146104b357600080fd5b50565b6104bf81610479565b81146104ca57600080fd5b5056fea264697066735822122062f6e2072dd0b49af5466c77bae8f49005c4daf484c7a3e5ebce99b46e83270364736f6c63430008070033",
					"opcodes": "PUSH1 0x80 PUSH1 0x40 MSTORE CALLVALUE DUP1 ISZERO PUSH2 0x10 JUMPI PUSH1 0x0 DUP1 REVERT JUMPDEST POP PUSH2 0x503 DUP1 PUSH2 0x20 PUSH1 0x0 CODECOPY PUSH1 0x0 RETURN INVALID PUSH1 0x80 PUSH1 0x40 MSTORE PUSH1 0x4 CALLDATASIZE LT PUSH2 0x3F JUMPI PUSH1 0x0 CALLDATALOAD PUSH1 0xE0 SHR DUP1 PUSH4 0x3004B163 EQ PUSH2 0x44 JUMPI DUP1 PUSH4 0x3CA065BB EQ PUSH2 0x60 JUMPI DUP1 PUSH4 0x66563E69 EQ PUSH2 0x89 JUMPI DUP1 PUSH4 0x94A7B4F4 EQ PUSH2 0xC6 JUMPI JUMPDEST PUSH1 0x0 DUP1 REVERT JUMPDEST PUSH2 0x5E PUSH1 0x4 DUP1 CALLDATASIZE SUB DUP2 ADD SWAP1 PUSH2 0x59 SWAP2 SWAP1 PUSH2 0x371 JUMP JUMPDEST PUSH2 0x103 JUMP JUMPDEST STOP JUMPDEST CALLVALUE DUP1 ISZERO PUSH2 0x6C JUMPI PUSH1 0x0 DUP1 REVERT JUMPDEST POP PUSH2 0x87 PUSH1 0x4 DUP1 CALLDATASIZE SUB DUP2 ADD SWAP1 PUSH2 0x82 SWAP2 SWAP1 PUSH2 0x371 JUMP JUMPDEST PUSH2 0x173 JUMP JUMPDEST STOP JUMPDEST CALLVALUE DUP1 ISZERO PUSH2 0x95 JUMPI PUSH1 0x0 DUP1 REVERT JUMPDEST POP PUSH2 0xB0 PUSH1 0x4 DUP1 CALLDATASIZE SUB DUP2 ADD SWAP1 PUSH2 0xAB SWAP2 SWAP1 PUSH2 0x3B1 JUMP JUMPDEST PUSH2 0x1E2 JUMP JUMPDEST PUSH1 0x40 MLOAD PUSH2 0xBD SWAP2 SWAP1 PUSH2 0x41A JUMP JUMPDEST PUSH1 0x40 MLOAD DUP1 SWAP2 SUB SWAP1 RETURN JUMPDEST CALLVALUE DUP1 ISZERO PUSH2 0xD2 JUMPI PUSH1 0x0 DUP1 REVERT JUMPDEST POP PUSH2 0xED PUSH1 0x4 DUP1 CALLDATASIZE SUB DUP2 ADD SWAP1 PUSH2 0xE8 SWAP2 SWAP1 PUSH2 0x344 JUMP JUMPDEST PUSH2 0x269 JUMP JUMPDEST PUSH1 0x40 MLOAD PUSH2 0xFA SWAP2 SWAP1 PUSH2 0x41A JUMP JUMPDEST PUSH1 0x40 MLOAD DUP1 SWAP2 SUB SWAP1 RETURN JUMPDEST DUP2 PUSH20 0xFFFFFFFFFFFFFFFFFFFFFFFFFFFFFFFFFFFFFFFF AND PUSH4 0x4018D9AA CALLVALUE DUP4 PUSH1 0x40 MLOAD DUP4 PUSH4 0xFFFFFFFF AND PUSH1 0xE0 SHL DUP2 MSTORE PUSH1 0x4 ADD PUSH2 0x13D SWAP2 SWAP1 PUSH2 0x41A JUMP JUMPDEST PUSH1 0x0 PUSH1 0x40 MLOAD DUP1 DUP4 SUB DUP2 DUP6 DUP9 DUP1 EXTCODESIZE ISZERO DUP1 ISZERO PUSH2 0x156 JUMPI PUSH1 0x0 DUP1 REVERT JUMPDEST POP GAS CALL ISZERO DUP1 ISZERO PUSH2 0x16A JUMPI RETURNDATASIZE PUSH1 0x0 DUP1 RETURNDATACOPY RETURNDATASIZE PUSH1 0x0 REVERT JUMPDEST POP POP POP POP POP POP POP JUMP JUMPDEST DUP2 PUSH20 0xFFFFFFFFFFFFFFFFFFFFFFFFFFFFFFFFFFFFFFFF AND PUSH4 0x4018D9AA DUP3 PUSH1 0x40 MLOAD DUP3 PUSH4 0xFFFFFFFF AND PUSH1 0xE0 SHL DUP2 MSTORE PUSH1 0x4 ADD PUSH2 0x1AC SWAP2 SWAP1 PUSH2 0x41A JUMP JUMPDEST PUSH1 0x0 PUSH1 0x40 MLOAD DUP1 DUP4 SUB DUP2 PUSH1 0x0 DUP8 DUP1 EXTCODESIZE ISZERO DUP1 ISZERO PUSH2 0x1C6 JUMPI PUSH1 0x0 DUP1 REVERT JUMPDEST POP GAS CALL ISZERO DUP1 ISZERO PUSH2 0x1DA JUMPI RETURNDATASIZE PUSH1 0x0 DUP1 RETURNDATACOPY RETURNDATASIZE PUSH1 0x0 REVERT JUMPDEST POP POP POP POP POP POP JUMP JUMPDEST PUSH1 0x0 DUP2 PUSH20 0xFFFFFFFFFFFFFFFFFFFFFFFFFFFFFFFFFFFFFFFF AND PUSH4 0x5197C7AA PUSH1 0x40 MLOAD DUP2 PUSH4 0xFFFFFFFF AND PUSH1 0xE0 SHL DUP2 MSTORE PUSH1 0x4 ADD PUSH1 0x20 PUSH1 0x40 MLOAD DUP1 DUP4 SUB DUP2 DUP7 DUP1 EXTCODESIZE ISZERO DUP1 ISZERO PUSH2 0x22A JUMPI PUSH1 0x0 DUP1 REVERT JUMPDEST POP GAS STATICCALL ISZERO DUP1 ISZERO PUSH2 0x23E JUMPI RETURNDATASIZE PUSH1 0x0 DUP1 RETURNDATACOPY RETURNDATASIZE PUSH1 0x0 REVERT JUMPDEST POP POP POP POP PUSH1 0x40 MLOAD RETURNDATASIZE PUSH1 0x1F NOT PUSH1 0x1F DUP3 ADD AND DUP3 ADD DUP1 PUSH1 0x40 MSTORE POP DUP2 ADD SWAP1 PUSH2 0x262 SWAP2 SWAP1 PUSH2 0x3DE JUMP JUMPDEST SWAP1 POP SWAP2 SWAP1 POP JUMP JUMPDEST PUSH1 0x0 DUP2 PUSH20 0xFFFFFFFFFFFFFFFFFFFFFFFFFFFFFFFFFFFFFFFF AND PUSH4 0x5197C7AA PUSH1 0x40 MLOAD DUP2 PUSH4 0xFFFFFFFF AND PUSH1 0xE0 SHL DUP2 MSTORE PUSH1 0x4 ADD PUSH1 0x20 PUSH1 0x40 MLOAD DUP1 DUP4 SUB DUP2 DUP7 DUP1 EXTCODESIZE ISZERO DUP1 ISZERO PUSH2 0x2B1 JUMPI PUSH1 0x0 DUP1 REVERT JUMPDEST POP GAS STATICCALL ISZERO DUP1 ISZERO PUSH2 0x2C5 JUMPI RETURNDATASIZE PUSH1 0x0 DUP1 RETURNDATACOPY RETURNDATASIZE PUSH1 0x0 REVERT JUMPDEST POP POP POP POP PUSH1 0x40 MLOAD RETURNDATASIZE PUSH1 0x1F NOT PUSH1 0x1F DUP3 ADD AND DUP3 ADD DUP1 PUSH1 0x40 MSTORE POP DUP2 ADD SWAP1 PUSH2 0x2E9 SWAP2 SWAP1 PUSH2 0x3DE JUMP JUMPDEST SWAP1 POP SWAP2 SWAP1 POP JUMP JUMPDEST PUSH1 0x0 DUP2 CALLDATALOAD SWAP1 POP PUSH2 0x2FF DUP2 PUSH2 0x488 JUMP JUMPDEST SWAP3 SWAP2 POP POP JUMP JUMPDEST PUSH1 0x0 DUP2 CALLDATALOAD SWAP1 POP PUSH2 0x314 DUP2 PUSH2 0x49F JUMP JUMPDEST SWAP3 SWAP2 POP POP JUMP JUMPDEST PUSH1 0x0 DUP2 CALLDATALOAD SWAP1 POP PUSH2 0x329 DUP2 PUSH2 0x4B6 JUMP JUMPDEST SWAP3 SWAP2 POP POP JUMP JUMPDEST PUSH1 0x0 DUP2 MLOAD SWAP1 POP PUSH2 0x33E DUP2 PUSH2 0x4B6 JUMP JUMPDEST SWAP3 SWAP2 POP POP JUMP JUMPDEST PUSH1 0x0 PUSH1 0x20 DUP3 DUP5 SUB SLT ISZERO PUSH2 0x35A JUMPI PUSH2 0x359 PUSH2 0x483 JUMP JUMPDEST JUMPDEST PUSH1 0x0 PUSH2 0x368 DUP5 DUP3 DUP6 ADD PUSH2 0x2F0 JUMP JUMPDEST SWAP2 POP POP SWAP3 SWAP2 POP POP JUMP JUMPDEST PUSH1 0x0 DUP1 PUSH1 0x40 DUP4 DUP6 SUB SLT ISZERO PUSH2 0x388 JUMPI PUSH2 0x387 PUSH2 0x483 JUMP JUMPDEST JUMPDEST PUSH1 0x0 PUSH2 0x396 DUP6 DUP3 DUP7 ADD PUSH2 0x2F0 JUMP JUMPDEST SWAP3 POP POP PUSH1 0x20 PUSH2 0x3A7 DUP6 DUP3 DUP7 ADD PUSH2 0x31A JUMP JUMPDEST SWAP2 POP POP SWAP3 POP SWAP3 SWAP1 POP JUMP JUMPDEST PUSH1 0x0 PUSH1 0x20 DUP3 DUP5 SUB SLT ISZERO PUSH2 0x3C7 JUMPI PUSH2 0x3C6 PUSH2 0x483 JUMP JUMPDEST JUMPDEST PUSH1 0x0 PUSH2 0x3D5 DUP5 DUP3 DUP6 ADD PUSH2 0x305 JUMP JUMPDEST SWAP2 POP POP SWAP3 SWAP2 POP POP JUMP JUMPDEST PUSH1 0x0 PUSH1 0x20 DUP3 DUP5 SUB SLT ISZERO PUSH2 0x3F4 JUMPI PUSH2 0x3F3 PUSH2 0x483 JUMP JUMPDEST JUMPDEST PUSH1 0x0 PUSH2 0x402 DUP5 DUP3 DUP6 ADD PUSH2 0x32F JUMP JUMPDEST SWAP2 POP POP SWAP3 SWAP2 POP POP JUMP JUMPDEST PUSH2 0x414 DUP2 PUSH2 0x479 JUMP JUMPDEST DUP3 MSTORE POP POP JUMP JUMPDEST PUSH1 0x0 PUSH1 0x20 DUP3 ADD SWAP1 POP PUSH2 0x42F PUSH1 0x0 DUP4 ADD DUP5 PUSH2 0x40B JUMP JUMPDEST SWAP3 SWAP2 POP POP JUMP JUMPDEST PUSH1 0x0 PUSH2 0x440 DUP3 PUSH2 0x459 JUMP JUMPDEST SWAP1 POP SWAP2 SWAP1 POP JUMP JUMPDEST PUSH1 0x0 PUSH2 0x452 DUP3 PUSH2 0x435 JUMP JUMPDEST SWAP1 POP SWAP2 SWAP1 POP JUMP JUMPDEST PUSH1 0x0 PUSH20 0xFFFFFFFFFFFFFFFFFFFFFFFFFFFFFFFFFFFFFFFF DUP3 AND SWAP1 POP SWAP2 SWAP1 POP JUMP JUMPDEST PUSH1 0x0 DUP2 SWAP1 POP SWAP2 SWAP1 POP JUMP JUMPDEST PUSH1 0x0 DUP1 REVERT JUMPDEST PUSH2 0x491 DUP2 PUSH2 0x435 JUMP JUMPDEST DUP2 EQ PUSH2 0x49C JUMPI PUSH1 0x0 DUP1 REVERT JUMPDEST POP JUMP JUMPDEST PUSH2 0x4A8 DUP2 PUSH2 0x447 JUMP JUMPDEST DUP2 EQ PUSH2 0x4B3 JUMPI PUSH1 0x0 DUP1 REVERT JUMPDEST POP JUMP JUMPDEST PUSH2 0x4BF DUP2 PUSH2 0x479 JUMP JUMPDEST DUP2 EQ PUSH2 0x4CA JUMPI PUSH1 0x0 DUP1 REVERT JUMPDEST POP JUMP INVALID LOG2 PUSH5 0x6970667358 0x22 SLT KECCAK256 PUSH3 0xF6E207 0x2D 0xD0 0xB4 SWAP11 CREATE2 CHAINID PUSH13 0x77BAE8F49005C4DAF484C7A3E5 0xEB 0xCE SWAP10 0xB4 PUSH15 0x83270364736F6C6343000807003300 "
				},
				"gasEstimates": {
					"creation": {
						"codeDepositCost": "256600",
						"executionCost": "300",
						"totalCost": "256900"
					},
					"external": {
						"callGetX(address)": "infinite",
						"callGetX2(address)": "infinite",
						"callSetX(address,uint256)": "infinite",
						"setXTransferETH(address,uint256)": "infinite"
					}
				},
				"methodIdentifiers": {
					"callGetX(address)": "66563e69",
					"callGetX2(address)": "94a7b4f4",
					"callSetX(address,uint256)": "3ca065bb",
					"setXTransferETH(address,uint256)": "3004b163"
				}
			},
			"storageLayout": {
				"storage": [],
				"types": null
			},
			"userdoc": {
				"kind": "user",
				"methods": {},
				"version": 1
			}
		}
	}
}