{
	"WTF/wtf_5.sol": {
		"wtf_5": {
			"abi": [
				{
					"inputs": [],
					"name": "minusCall",
					"outputs": [],
					"stateMutability": "nonpayable",
					"type": "function"
				},
				{
					"inputs": [],
					"name": "minusPayable",
					"outputs": [
						{
							"internalType": "uint256",
							"name": "balance",
							"type": "uint256"
						}
					],
					"stateMutability": "payable",
					"type": "function"
				},
				{
					"inputs": [],
					"name": "number",
					"outputs": [
						{
							"internalType": "uint256",
							"name": "",
							"type": "uint256"
						}
					],
					"stateMutability": "view",
					"type": "function"
				}
			],
			"devdoc": {
				"kind": "dev",
				"methods": {},
				"version": 1
			},
			"evm": {
				"assembly": "    /* \"WTF/wtf_5.sol\":58:522  contract wtf_5{\r... */\n  mstore(0x40, 0x80)\n    /* \"WTF/wtf_5.sol\":100:103  100 */\n  0x64\n    /* \"WTF/wtf_5.sol\":79:103  uint public number = 100 */\n  0x00\n  sstore\n    /* \"WTF/wtf_5.sol\":58:522  contract wtf_5{\r... */\n  callvalue\n  dup1\n  iszero\n  tag_1\n  jumpi\n  0x00\n  dup1\n  revert\ntag_1:\n  pop\n  dataSize(sub_0)\n  dup1\n  dataOffset(sub_0)\n  0x00\n  codecopy\n  0x00\n  return\nstop\n\nsub_0: assembly {\n        /* \"WTF/wtf_5.sol\":58:522  contract wtf_5{\r... */\n      mstore(0x40, 0x80)\n      jumpi(tag_1, lt(calldatasize, 0x04))\n      shr(0xe0, calldataload(0x00))\n      dup1\n      0x303810a6\n      eq\n      tag_2\n      jumpi\n      dup1\n      0x80b4ea08\n      eq\n      tag_3\n      jumpi\n      dup1\n      0x8381f58a\n      eq\n      tag_4\n      jumpi\n    tag_1:\n      0x00\n      dup1\n      revert\n        /* \"WTF/wtf_5.sol\":381:519  function minusPayable() external payable returns(uint256 balance) {\r... */\n    tag_2:\n      tag_5\n      tag_6\n      jump\t// in\n    tag_5:\n      mload(0x40)\n        /* \"#utility.yul\":160:185   */\n      swap1\n      dup2\n      mstore\n        /* \"#utility.yul\":148:150   */\n      0x20\n        /* \"#utility.yul\":133:151   */\n      add\n        /* \"WTF/wtf_5.sol\":381:519  function minusPayable() external payable returns(uint256 balance) {\r... */\n      mload(0x40)\n      dup1\n      swap2\n      sub\n      swap1\n      return\n        /* \"WTF/wtf_5.sol\":260:316  function minusCall() external {\r... */\n    tag_3:\n      callvalue\n      dup1\n      iszero\n      tag_9\n      jumpi\n      0x00\n      dup1\n      revert\n    tag_9:\n      pop\n      tag_10\n      tag_11\n      jump\t// in\n    tag_10:\n      stop\n        /* \"WTF/wtf_5.sol\":79:103  uint public number = 100 */\n    tag_4:\n      callvalue\n      dup1\n      iszero\n      tag_12\n      jumpi\n      0x00\n      dup1\n      revert\n    tag_12:\n      pop\n      tag_5\n      sload(0x00)\n      dup2\n      jump\n        /* \"WTF/wtf_5.sol\":381:519  function minusPayable() external payable returns(uint256 balance) {\r... */\n    tag_6:\n        /* \"WTF/wtf_5.sol\":430:445  uint256 balance */\n      0x00\n        /* \"WTF/wtf_5.sol\":458:465  minus() */\n      tag_17\n        /* \"WTF/wtf_5.sol\":458:463  minus */\n      tag_18\n        /* \"WTF/wtf_5.sol\":458:465  minus() */\n      jump\t// in\n    tag_17:\n      pop\n        /* \"WTF/wtf_5.sol\":490:511  address(this).balance */\n      selfbalance\n      swap1\n        /* \"WTF/wtf_5.sol\":381:519  function minusPayable() external payable returns(uint256 balance) {\r... */\n      jump\t// out\n        /* \"WTF/wtf_5.sol\":260:316  function minusCall() external {\r... */\n    tag_11:\n        /* \"WTF/wtf_5.sol\":301:308  minus() */\n      tag_20\n        /* \"WTF/wtf_5.sol\":301:306  minus */\n      tag_18\n        /* \"WTF/wtf_5.sol\":301:308  minus() */\n      jump\t// in\n    tag_20:\n        /* \"WTF/wtf_5.sol\":260:316  function minusCall() external {\r... */\n      jump\t// out\n        /* \"WTF/wtf_5.sol\":137:201  function minus() internal {\r... */\n    tag_18:\n        /* \"WTF/wtf_5.sol\":192:193  1 */\n      0x01\n        /* \"WTF/wtf_5.sol\":183:189  number */\n      sload(0x00)\n        /* \"WTF/wtf_5.sol\":183:193  number - 1 */\n      tag_22\n      swap2\n      swap1\n      tag_23\n      jump\t// in\n    tag_22:\n        /* \"WTF/wtf_5.sol\":174:180  number */\n      0x00\n        /* \"WTF/wtf_5.sol\":174:193  number = number - 1 */\n      sstore\n        /* \"WTF/wtf_5.sol\":137:201  function minus() internal {\r... */\n      jump\t// out\n        /* \"#utility.yul\":196:418   */\n    tag_23:\n        /* \"#utility.yul\":236:240   */\n      0x00\n        /* \"#utility.yul\":264:265   */\n      dup3\n        /* \"#utility.yul\":261:262   */\n      dup3\n        /* \"#utility.yul\":258:266   */\n      lt\n        /* \"#utility.yul\":255:386   */\n      iszero\n      tag_27\n      jumpi\n        /* \"#utility.yul\":308:318   */\n      0x4e487b71\n        /* \"#utility.yul\":303:306   */\n      0xe0\n        /* \"#utility.yul\":299:319   */\n      shl\n        /* \"#utility.yul\":296:297   */\n      0x00\n        /* \"#utility.yul\":289:320   */\n      mstore\n        /* \"#utility.yul\":343:347   */\n      0x11\n        /* \"#utility.yul\":340:341   */\n      0x04\n        /* \"#utility.yul\":333:348   */\n      mstore\n        /* \"#utility.yul\":371:375   */\n      0x24\n        /* \"#utility.yul\":368:369   */\n      0x00\n        /* \"#utility.yul\":361:376   */\n      revert\n        /* \"#utility.yul\":255:386   */\n    tag_27:\n      pop\n        /* \"#utility.yul\":403:412   */\n      sub\n      swap1\n        /* \"#utility.yul\":196:418   */\n      jump\t// out\n\n    auxdata: 0xa26469706673582212208599c1c36fbc9078d4b9f7f5188ea92ef91342fc62c22b1e7eff599387d303a564736f6c63430008070033\n}\n",
				"bytecode": {
					"linkReferences": {},
					"object": "6080604052606460005534801561001557600080fd5b5060f6806100246000396000f3fe60806040526004361060305760003560e01c8063303810a614603557806380b4ea0814604d5780638381f58a146061575b600080fd5b603b6075565b60405190815260200160405180910390f35b348015605857600080fd5b50605f6082565b005b348015606c57600080fd5b50603b60005481565b6000607d608a565b504790565b6088608a565b565b600160005460979190609c565b600055565b60008282101560bb57634e487b7160e01b600052601160045260246000fd5b50039056fea26469706673582212208599c1c36fbc9078d4b9f7f5188ea92ef91342fc62c22b1e7eff599387d303a564736f6c63430008070033",
					"opcodes": "PUSH1 0x80 PUSH1 0x40 MSTORE PUSH1 0x64 PUSH1 0x0 SSTORE CALLVALUE DUP1 ISZERO PUSH2 0x15 JUMPI PUSH1 0x0 DUP1 REVERT JUMPDEST POP PUSH1 0xF6 DUP1 PUSH2 0x24 PUSH1 0x0 CODECOPY PUSH1 0x0 RETURN INVALID PUSH1 0x80 PUSH1 0x40 MSTORE PUSH1 0x4 CALLDATASIZE LT PUSH1 0x30 JUMPI PUSH1 0x0 CALLDATALOAD PUSH1 0xE0 SHR DUP1 PUSH4 0x303810A6 EQ PUSH1 0x35 JUMPI DUP1 PUSH4 0x80B4EA08 EQ PUSH1 0x4D JUMPI DUP1 PUSH4 0x8381F58A EQ PUSH1 0x61 JUMPI JUMPDEST PUSH1 0x0 DUP1 REVERT JUMPDEST PUSH1 0x3B PUSH1 0x75 JUMP JUMPDEST PUSH1 0x40 MLOAD SWAP1 DUP2 MSTORE PUSH1 0x20 ADD PUSH1 0x40 MLOAD DUP1 SWAP2 SUB SWAP1 RETURN JUMPDEST CALLVALUE DUP1 ISZERO PUSH1 0x58 JUMPI PUSH1 0x0 DUP1 REVERT JUMPDEST POP PUSH1 0x5F PUSH1 0x82 JUMP JUMPDEST STOP JUMPDEST CALLVALUE DUP1 ISZERO PUSH1 0x6C JUMPI PUSH1 0x0 DUP1 REVERT JUMPDEST POP PUSH1 0x3B PUSH1 0x0 SLOAD DUP2 JUMP JUMPDEST PUSH1 0x0 PUSH1 0x7D PUSH1 0x8A JUMP JUMPDEST POP SELFBALANCE SWAP1 JUMP JUMPDEST PUSH1 0x88 PUSH1 0x8A JUMP JUMPDEST JUMP JUMPDEST PUSH1 0x1 PUSH1 0x0 SLOAD PUSH1 0x97 SWAP2 SWAP1 PUSH1 0x9C JUMP JUMPDEST PUSH1 0x0 SSTORE JUMP JUMPDEST PUSH1 0x0 DUP3 DUP3 LT ISZERO PUSH1 0xBB JUMPI PUSH4 0x4E487B71 PUSH1 0xE0 SHL PUSH1 0x0 MSTORE PUSH1 0x11 PUSH1 0x4 MSTORE PUSH1 0x24 PUSH1 0x0 REVERT JUMPDEST POP SUB SWAP1 JUMP INVALID LOG2 PUSH5 0x6970667358 0x22 SLT KECCAK256 DUP6 SWAP10 0xC1 0xC3 PUSH16 0xBC9078D4B9F7F5188EA92EF91342FC62 0xC2 0x2B 0x1E PUSH31 0xFF599387D303A564736F6C6343000807003300000000000000000000000000 "
				},
				"gasEstimates": {
					"creation": {
						"codeDepositCost": "49200",
						"executionCost": "22205",
						"totalCost": "71405"
					},
					"external": {
						"minusCall()": "24444",
						"minusPayable()": "24456",
						"number()": "2305"
					},
					"internal": {
						"minus()": "24285"
					}
				},
				"methodIdentifiers": {
					"minusCall()": "80b4ea08",
					"minusPayable()": "303810a6",
					"number()": "8381f58a"
				}
			},
			"storageLayout": {
				"storage": [
					{
						"astId": 4,
						"contract": "WTF/wtf_5.sol:wtf_5",
						"label": "number",
						"offset": 0,
						"slot": "0",
						"type": "t_uint256"
					}
				],
				"types": {
					"t_uint256": {
						"encoding": "inplace",
						"label": "uint256",
						"numberOfBytes": "32"
					}
				}
			},
			"userdoc": {
				"kind": "user",
				"methods": {},
				"version": 1
			}
		}
	}
}