{
	"WTF/wtf_10.sol": {
		"wtf_10": {
			"abi": [
				{
					"inputs": [
						{
							"internalType": "uint256[]",
							"name": "a",
							"type": "uint256[]"
						}
					],
					"name": "insertionSort",
					"outputs": [
						{
							"internalType": "uint256[]",
							"name": "",
							"type": "uint256[]"
						}
					],
					"stateMutability": "pure",
					"type": "function"
				}
			],
			"devdoc": {
				"kind": "dev",
				"methods": {},
				"version": 1
			},
			"evm": {
				"assembly": "    /* \"WTF/wtf_10.sol\":58:569  contract wtf_10{\r... */\n  mstore(0x40, 0x80)\n  callvalue\n  dup1\n  iszero\n  tag_1\n  jumpi\n  0x00\n  dup1\n  revert\ntag_1:\n  pop\n  dataSize(sub_0)\n  dup1\n  dataOffset(sub_0)\n  0x00\n  codecopy\n  0x00\n  return\nstop\n\nsub_0: assembly {\n        /* \"WTF/wtf_10.sol\":58:569  contract wtf_10{\r... */\n      mstore(0x40, 0x80)\n      callvalue\n      dup1\n      iszero\n      tag_1\n      jumpi\n      0x00\n      dup1\n      revert\n    tag_1:\n      pop\n      jumpi(tag_2, lt(calldatasize, 0x04))\n      shr(0xe0, calldataload(0x00))\n      dup1\n      0x6297206f\n      eq\n      tag_3\n      jumpi\n    tag_2:\n      0x00\n      dup1\n      revert\n        /* \"WTF/wtf_10.sol\":101:566  function insertionSort(uint[] memory a) public pure returns(uint[] memory) {\r... */\n    tag_3:\n      tag_4\n      0x04\n      dup1\n      calldatasize\n      sub\n      dup2\n      add\n      swap1\n      tag_5\n      swap2\n      swap1\n      tag_6\n      jump\t// in\n    tag_5:\n      tag_7\n      jump\t// in\n    tag_4:\n      mload(0x40)\n      tag_8\n      swap2\n      swap1\n      tag_9\n      jump\t// in\n    tag_8:\n      mload(0x40)\n      dup1\n      swap2\n      sub\n      swap1\n      return\n    tag_7:\n        /* \"WTF/wtf_10.sol\":161:174  uint[] memory */\n      0x60\n        /* \"WTF/wtf_10.sol\":246:252  uint i */\n      0x00\n        /* \"WTF/wtf_10.sol\":255:256  1 */\n      0x01\n        /* \"WTF/wtf_10.sol\":246:256  uint i = 1 */\n      swap1\n      pop\n        /* \"WTF/wtf_10.sol\":242:539  for(uint i = 1; i < a.length; i++){\r... */\n    tag_11:\n        /* \"WTF/wtf_10.sol\":262:263  a */\n      dup3\n        /* \"WTF/wtf_10.sol\":262:270  a.length */\n      mload\n        /* \"WTF/wtf_10.sol\":258:259  i */\n      dup2\n        /* \"WTF/wtf_10.sol\":258:270  i < a.length */\n      lt\n        /* \"WTF/wtf_10.sol\":242:539  for(uint i = 1; i < a.length; i++){\r... */\n      iszero\n      tag_12\n      jumpi\n        /* \"WTF/wtf_10.sol\":291:299  uint tmp */\n      0x00\n        /* \"WTF/wtf_10.sol\":302:303  a */\n      dup4\n        /* \"WTF/wtf_10.sol\":304:305  i */\n      dup3\n        /* \"WTF/wtf_10.sol\":302:306  a[i] */\n      dup2\n      mload\n      dup2\n      lt\n      tag_14\n      jumpi\n      tag_15\n      tag_16\n      jump\t// in\n    tag_15:\n    tag_14:\n      0x20\n      mul\n      0x20\n      add\n      add\n      mload\n        /* \"WTF/wtf_10.sol\":291:306  uint tmp = a[i] */\n      swap1\n      pop\n        /* \"WTF/wtf_10.sol\":321:334  uint cntIndex */\n      0x00\n        /* \"WTF/wtf_10.sol\":337:338  i */\n      dup3\n        /* \"WTF/wtf_10.sol\":321:338  uint cntIndex = i */\n      swap1\n      pop\n        /* \"WTF/wtf_10.sol\":353:496  while( (cntIndex >= 1) && (tmp < a[cntIndex - 1])){\r... */\n    tag_17:\n        /* \"WTF/wtf_10.sol\":373:374  1 */\n      0x01\n        /* \"WTF/wtf_10.sol\":361:369  cntIndex */\n      dup2\n        /* \"WTF/wtf_10.sol\":361:374  cntIndex >= 1 */\n      lt\n      iszero\n        /* \"WTF/wtf_10.sol\":360:402  (cntIndex >= 1) && (tmp < a[cntIndex - 1]) */\n      dup1\n      iszero\n      tag_19\n      jumpi\n      pop\n        /* \"WTF/wtf_10.sol\":386:387  a */\n      dup5\n        /* \"WTF/wtf_10.sol\":399:400  1 */\n      0x01\n        /* \"WTF/wtf_10.sol\":388:396  cntIndex */\n      dup3\n        /* \"WTF/wtf_10.sol\":388:400  cntIndex - 1 */\n      tag_20\n      swap2\n      swap1\n      tag_21\n      jump\t// in\n    tag_20:\n        /* \"WTF/wtf_10.sol\":386:401  a[cntIndex - 1] */\n      dup2\n      mload\n      dup2\n      lt\n      tag_22\n      jumpi\n      tag_23\n      tag_16\n      jump\t// in\n    tag_23:\n    tag_22:\n      0x20\n      mul\n      0x20\n      add\n      add\n      mload\n        /* \"WTF/wtf_10.sol\":380:383  tmp */\n      dup3\n        /* \"WTF/wtf_10.sol\":380:401  tmp < a[cntIndex - 1] */\n      lt\n        /* \"WTF/wtf_10.sol\":360:402  (cntIndex >= 1) && (tmp < a[cntIndex - 1]) */\n    tag_19:\n        /* \"WTF/wtf_10.sol\":353:496  while( (cntIndex >= 1) && (tmp < a[cntIndex - 1])){\r... */\n      iszero\n      tag_18\n      jumpi\n        /* \"WTF/wtf_10.sol\":436:437  a */\n      dup5\n        /* \"WTF/wtf_10.sol\":449:450  1 */\n      0x01\n        /* \"WTF/wtf_10.sol\":438:446  cntIndex */\n      dup3\n        /* \"WTF/wtf_10.sol\":438:450  cntIndex - 1 */\n      tag_24\n      swap2\n      swap1\n      tag_21\n      jump\t// in\n    tag_24:\n        /* \"WTF/wtf_10.sol\":436:451  a[cntIndex - 1] */\n      dup2\n      mload\n      dup2\n      lt\n      tag_25\n      jumpi\n      tag_26\n      tag_16\n      jump\t// in\n    tag_26:\n    tag_25:\n      0x20\n      mul\n      0x20\n      add\n      add\n      mload\n        /* \"WTF/wtf_10.sol\":422:423  a */\n      dup6\n        /* \"WTF/wtf_10.sol\":424:432  cntIndex */\n      dup3\n        /* \"WTF/wtf_10.sol\":422:433  a[cntIndex] */\n      dup2\n      mload\n      dup2\n      lt\n      tag_27\n      jumpi\n      tag_28\n      tag_16\n      jump\t// in\n    tag_28:\n    tag_27:\n      0x20\n      mul\n      0x20\n      add\n      add\n        /* \"WTF/wtf_10.sol\":422:451  a[cntIndex] = a[cntIndex - 1] */\n      dup2\n      dup2\n      mstore\n      pop\n      pop\n        /* \"WTF/wtf_10.sol\":470:480  cntIndex-- */\n      dup1\n      dup1\n      tag_29\n      swap1\n      tag_30\n      jump\t// in\n    tag_29:\n      swap2\n      pop\n      pop\n        /* \"WTF/wtf_10.sol\":353:496  while( (cntIndex >= 1) && (tmp < a[cntIndex - 1])){\r... */\n      jump(tag_17)\n    tag_18:\n        /* \"WTF/wtf_10.sol\":524:527  tmp */\n      dup2\n        /* \"WTF/wtf_10.sol\":510:511  a */\n      dup6\n        /* \"WTF/wtf_10.sol\":512:520  cntIndex */\n      dup3\n        /* \"WTF/wtf_10.sol\":510:521  a[cntIndex] */\n      dup2\n      mload\n      dup2\n      lt\n      tag_31\n      jumpi\n      tag_32\n      tag_16\n      jump\t// in\n    tag_32:\n    tag_31:\n      0x20\n      mul\n      0x20\n      add\n      add\n        /* \"WTF/wtf_10.sol\":510:527  a[cntIndex] = tmp */\n      dup2\n      dup2\n      mstore\n      pop\n      pop\n        /* \"WTF/wtf_10.sol\":276:539  {\r... */\n      pop\n      pop\n        /* \"WTF/wtf_10.sol\":272:275  i++ */\n      dup1\n      dup1\n      tag_33\n      swap1\n      tag_34\n      jump\t// in\n    tag_33:\n      swap2\n      pop\n      pop\n        /* \"WTF/wtf_10.sol\":242:539  for(uint i = 1; i < a.length; i++){\r... */\n      jump(tag_11)\n    tag_12:\n      pop\n        /* \"WTF/wtf_10.sol\":556:557  a */\n      dup2\n        /* \"WTF/wtf_10.sol\":549:558  return(a) */\n      swap1\n      pop\n        /* \"WTF/wtf_10.sol\":101:566  function insertionSort(uint[] memory a) public pure returns(uint[] memory) {\r... */\n      swap2\n      swap1\n      pop\n      jump\t// out\n        /* \"#utility.yul\":24:746   */\n    tag_36:\n        /* \"#utility.yul\":120:125   */\n      0x00\n        /* \"#utility.yul\":145:226   */\n      tag_38\n        /* \"#utility.yul\":161:225   */\n      tag_39\n        /* \"#utility.yul\":218:224   */\n      dup5\n        /* \"#utility.yul\":161:225   */\n      tag_40\n      jump\t// in\n    tag_39:\n        /* \"#utility.yul\":145:226   */\n      tag_41\n      jump\t// in\n    tag_38:\n        /* \"#utility.yul\":136:226   */\n      swap1\n      pop\n        /* \"#utility.yul\":246:251   */\n      dup1\n        /* \"#utility.yul\":275:281   */\n      dup4\n        /* \"#utility.yul\":268:273   */\n      dup3\n        /* \"#utility.yul\":261:282   */\n      mstore\n        /* \"#utility.yul\":309:313   */\n      0x20\n        /* \"#utility.yul\":302:307   */\n      dup3\n        /* \"#utility.yul\":298:314   */\n      add\n        /* \"#utility.yul\":291:314   */\n      swap1\n      pop\n        /* \"#utility.yul\":335:341   */\n      dup3\n        /* \"#utility.yul\":385:388   */\n      dup6\n        /* \"#utility.yul\":377:381   */\n      0x20\n        /* \"#utility.yul\":369:375   */\n      dup7\n        /* \"#utility.yul\":365:382   */\n      mul\n        /* \"#utility.yul\":360:363   */\n      dup3\n        /* \"#utility.yul\":356:383   */\n      add\n        /* \"#utility.yul\":353:389   */\n      gt\n        /* \"#utility.yul\":350:493   */\n      iszero\n      tag_42\n      jumpi\n        /* \"#utility.yul\":404:483   */\n      tag_43\n      tag_44\n      jump\t// in\n    tag_43:\n        /* \"#utility.yul\":350:493   */\n    tag_42:\n        /* \"#utility.yul\":517:518   */\n      0x00\n        /* \"#utility.yul\":502:740   */\n    tag_45:\n        /* \"#utility.yul\":527:533   */\n      dup6\n        /* \"#utility.yul\":524:525   */\n      dup2\n        /* \"#utility.yul\":521:534   */\n      lt\n        /* \"#utility.yul\":502:740   */\n      iszero\n      tag_47\n      jumpi\n        /* \"#utility.yul\":595:598   */\n      dup2\n        /* \"#utility.yul\":624:661   */\n      tag_48\n        /* \"#utility.yul\":657:660   */\n      dup9\n        /* \"#utility.yul\":645:655   */\n      dup3\n        /* \"#utility.yul\":624:661   */\n      tag_49\n      jump\t// in\n    tag_48:\n        /* \"#utility.yul\":619:622   */\n      dup5\n        /* \"#utility.yul\":612:662   */\n      mstore\n        /* \"#utility.yul\":691:695   */\n      0x20\n        /* \"#utility.yul\":686:689   */\n      dup5\n        /* \"#utility.yul\":682:696   */\n      add\n        /* \"#utility.yul\":675:696   */\n      swap4\n      pop\n        /* \"#utility.yul\":725:729   */\n      0x20\n        /* \"#utility.yul\":720:723   */\n      dup4\n        /* \"#utility.yul\":716:730   */\n      add\n        /* \"#utility.yul\":709:730   */\n      swap3\n      pop\n        /* \"#utility.yul\":562:740   */\n      pop\n        /* \"#utility.yul\":549:550   */\n      0x01\n        /* \"#utility.yul\":546:547   */\n      dup2\n        /* \"#utility.yul\":542:551   */\n      add\n        /* \"#utility.yul\":537:551   */\n      swap1\n      pop\n        /* \"#utility.yul\":502:740   */\n      jump(tag_45)\n    tag_47:\n        /* \"#utility.yul\":506:520   */\n      pop\n        /* \"#utility.yul\":126:746   */\n      pop\n      pop\n        /* \"#utility.yul\":24:746   */\n      swap4\n      swap3\n      pop\n      pop\n      pop\n      jump\t// out\n        /* \"#utility.yul\":769:1139   */\n    tag_50:\n        /* \"#utility.yul\":840:845   */\n      0x00\n        /* \"#utility.yul\":889:892   */\n      dup3\n        /* \"#utility.yul\":882:886   */\n      0x1f\n        /* \"#utility.yul\":874:880   */\n      dup4\n        /* \"#utility.yul\":870:887   */\n      add\n        /* \"#utility.yul\":866:893   */\n      slt\n        /* \"#utility.yul\":856:978   */\n      tag_52\n      jumpi\n        /* \"#utility.yul\":897:976   */\n      tag_53\n      tag_54\n      jump\t// in\n    tag_53:\n        /* \"#utility.yul\":856:978   */\n    tag_52:\n        /* \"#utility.yul\":1014:1020   */\n      dup2\n        /* \"#utility.yul\":1001:1021   */\n      calldataload\n        /* \"#utility.yul\":1039:1133   */\n      tag_55\n        /* \"#utility.yul\":1129:1132   */\n      dup5\n        /* \"#utility.yul\":1121:1127   */\n      dup3\n        /* \"#utility.yul\":1114:1118   */\n      0x20\n        /* \"#utility.yul\":1106:1112   */\n      dup7\n        /* \"#utility.yul\":1102:1119   */\n      add\n        /* \"#utility.yul\":1039:1133   */\n      tag_36\n      jump\t// in\n    tag_55:\n        /* \"#utility.yul\":1030:1133   */\n      swap2\n      pop\n        /* \"#utility.yul\":846:1139   */\n      pop\n        /* \"#utility.yul\":769:1139   */\n      swap3\n      swap2\n      pop\n      pop\n      jump\t// out\n        /* \"#utility.yul\":1145:1284   */\n    tag_49:\n        /* \"#utility.yul\":1191:1196   */\n      0x00\n        /* \"#utility.yul\":1229:1235   */\n      dup2\n        /* \"#utility.yul\":1216:1236   */\n      calldataload\n        /* \"#utility.yul\":1207:1236   */\n      swap1\n      pop\n        /* \"#utility.yul\":1245:1278   */\n      tag_57\n        /* \"#utility.yul\":1272:1277   */\n      dup2\n        /* \"#utility.yul\":1245:1278   */\n      tag_58\n      jump\t// in\n    tag_57:\n        /* \"#utility.yul\":1145:1284   */\n      swap3\n      swap2\n      pop\n      pop\n      jump\t// out\n        /* \"#utility.yul\":1290:1829   */\n    tag_6:\n        /* \"#utility.yul\":1374:1380   */\n      0x00\n        /* \"#utility.yul\":1423:1425   */\n      0x20\n        /* \"#utility.yul\":1411:1420   */\n      dup3\n        /* \"#utility.yul\":1402:1409   */\n      dup5\n        /* \"#utility.yul\":1398:1421   */\n      sub\n        /* \"#utility.yul\":1394:1426   */\n      slt\n        /* \"#utility.yul\":1391:1510   */\n      iszero\n      tag_60\n      jumpi\n        /* \"#utility.yul\":1429:1508   */\n      tag_61\n      tag_62\n      jump\t// in\n    tag_61:\n        /* \"#utility.yul\":1391:1510   */\n    tag_60:\n        /* \"#utility.yul\":1577:1578   */\n      0x00\n        /* \"#utility.yul\":1566:1575   */\n      dup3\n        /* \"#utility.yul\":1562:1579   */\n      add\n        /* \"#utility.yul\":1549:1580   */\n      calldataload\n        /* \"#utility.yul\":1607:1625   */\n      0xffffffffffffffff\n        /* \"#utility.yul\":1599:1605   */\n      dup2\n        /* \"#utility.yul\":1596:1626   */\n      gt\n        /* \"#utility.yul\":1593:1710   */\n      iszero\n      tag_63\n      jumpi\n        /* \"#utility.yul\":1629:1708   */\n      tag_64\n      tag_65\n      jump\t// in\n    tag_64:\n        /* \"#utility.yul\":1593:1710   */\n    tag_63:\n        /* \"#utility.yul\":1734:1812   */\n      tag_66\n        /* \"#utility.yul\":1804:1811   */\n      dup5\n        /* \"#utility.yul\":1795:1801   */\n      dup3\n        /* \"#utility.yul\":1784:1793   */\n      dup6\n        /* \"#utility.yul\":1780:1802   */\n      add\n        /* \"#utility.yul\":1734:1812   */\n      tag_50\n      jump\t// in\n    tag_66:\n        /* \"#utility.yul\":1724:1812   */\n      swap2\n      pop\n        /* \"#utility.yul\":1520:1822   */\n      pop\n        /* \"#utility.yul\":1290:1829   */\n      swap3\n      swap2\n      pop\n      pop\n      jump\t// out\n        /* \"#utility.yul\":1835:2014   */\n    tag_67:\n        /* \"#utility.yul\":1904:1914   */\n      0x00\n        /* \"#utility.yul\":1925:1971   */\n      tag_69\n        /* \"#utility.yul\":1967:1970   */\n      dup4\n        /* \"#utility.yul\":1959:1965   */\n      dup4\n        /* \"#utility.yul\":1925:1971   */\n      tag_70\n      jump\t// in\n    tag_69:\n        /* \"#utility.yul\":2003:2007   */\n      0x20\n        /* \"#utility.yul\":1998:2001   */\n      dup4\n        /* \"#utility.yul\":1994:2008   */\n      add\n        /* \"#utility.yul\":1980:2008   */\n      swap1\n      pop\n        /* \"#utility.yul\":1835:2014   */\n      swap3\n      swap2\n      pop\n      pop\n      jump\t// out\n        /* \"#utility.yul\":2050:2782   */\n    tag_71:\n        /* \"#utility.yul\":2169:2172   */\n      0x00\n        /* \"#utility.yul\":2198:2252   */\n      tag_73\n        /* \"#utility.yul\":2246:2251   */\n      dup3\n        /* \"#utility.yul\":2198:2252   */\n      tag_74\n      jump\t// in\n    tag_73:\n        /* \"#utility.yul\":2268:2354   */\n      tag_75\n        /* \"#utility.yul\":2347:2353   */\n      dup2\n        /* \"#utility.yul\":2342:2345   */\n      dup6\n        /* \"#utility.yul\":2268:2354   */\n      tag_76\n      jump\t// in\n    tag_75:\n        /* \"#utility.yul\":2261:2354   */\n      swap4\n      pop\n        /* \"#utility.yul\":2378:2434   */\n      tag_77\n        /* \"#utility.yul\":2428:2433   */\n      dup4\n        /* \"#utility.yul\":2378:2434   */\n      tag_78\n      jump\t// in\n    tag_77:\n        /* \"#utility.yul\":2457:2464   */\n      dup1\n        /* \"#utility.yul\":2488:2489   */\n      0x00\n        /* \"#utility.yul\":2473:2757   */\n    tag_79:\n        /* \"#utility.yul\":2498:2504   */\n      dup4\n        /* \"#utility.yul\":2495:2496   */\n      dup2\n        /* \"#utility.yul\":2492:2505   */\n      lt\n        /* \"#utility.yul\":2473:2757   */\n      iszero\n      tag_81\n      jumpi\n        /* \"#utility.yul\":2574:2580   */\n      dup2\n        /* \"#utility.yul\":2568:2581   */\n      mload\n        /* \"#utility.yul\":2601:2664   */\n      tag_82\n        /* \"#utility.yul\":2660:2663   */\n      dup9\n        /* \"#utility.yul\":2645:2658   */\n      dup3\n        /* \"#utility.yul\":2601:2664   */\n      tag_67\n      jump\t// in\n    tag_82:\n        /* \"#utility.yul\":2594:2664   */\n      swap8\n      pop\n        /* \"#utility.yul\":2687:2747   */\n      tag_83\n        /* \"#utility.yul\":2740:2746   */\n      dup4\n        /* \"#utility.yul\":2687:2747   */\n      tag_84\n      jump\t// in\n    tag_83:\n        /* \"#utility.yul\":2677:2747   */\n      swap3\n      pop\n        /* \"#utility.yul\":2533:2757   */\n      pop\n        /* \"#utility.yul\":2520:2521   */\n      0x01\n        /* \"#utility.yul\":2517:2518   */\n      dup2\n        /* \"#utility.yul\":2513:2522   */\n      add\n        /* \"#utility.yul\":2508:2522   */\n      swap1\n      pop\n        /* \"#utility.yul\":2473:2757   */\n      jump(tag_79)\n    tag_81:\n        /* \"#utility.yul\":2477:2491   */\n      pop\n        /* \"#utility.yul\":2773:2776   */\n      dup6\n        /* \"#utility.yul\":2766:2776   */\n      swap4\n      pop\n        /* \"#utility.yul\":2174:2782   */\n      pop\n      pop\n      pop\n        /* \"#utility.yul\":2050:2782   */\n      swap3\n      swap2\n      pop\n      pop\n      jump\t// out\n        /* \"#utility.yul\":2788:2896   */\n    tag_70:\n        /* \"#utility.yul\":2865:2889   */\n      tag_86\n        /* \"#utility.yul\":2883:2888   */\n      dup2\n        /* \"#utility.yul\":2865:2889   */\n      tag_87\n      jump\t// in\n    tag_86:\n        /* \"#utility.yul\":2860:2863   */\n      dup3\n        /* \"#utility.yul\":2853:2890   */\n      mstore\n        /* \"#utility.yul\":2788:2896   */\n      pop\n      pop\n      jump\t// out\n        /* \"#utility.yul\":2902:3275   */\n    tag_9:\n        /* \"#utility.yul\":3045:3049   */\n      0x00\n        /* \"#utility.yul\":3083:3085   */\n      0x20\n        /* \"#utility.yul\":3072:3081   */\n      dup3\n        /* \"#utility.yul\":3068:3086   */\n      add\n        /* \"#utility.yul\":3060:3086   */\n      swap1\n      pop\n        /* \"#utility.yul\":3132:3141   */\n      dup2\n        /* \"#utility.yul\":3126:3130   */\n      dup2\n        /* \"#utility.yul\":3122:3142   */\n      sub\n        /* \"#utility.yul\":3118:3119   */\n      0x00\n        /* \"#utility.yul\":3107:3116   */\n      dup4\n        /* \"#utility.yul\":3103:3120   */\n      add\n        /* \"#utility.yul\":3096:3143   */\n      mstore\n        /* \"#utility.yul\":3160:3268   */\n      tag_89\n        /* \"#utility.yul\":3263:3267   */\n      dup2\n        /* \"#utility.yul\":3254:3260   */\n      dup5\n        /* \"#utility.yul\":3160:3268   */\n      tag_71\n      jump\t// in\n    tag_89:\n        /* \"#utility.yul\":3152:3268   */\n      swap1\n      pop\n        /* \"#utility.yul\":2902:3275   */\n      swap3\n      swap2\n      pop\n      pop\n      jump\t// out\n        /* \"#utility.yul\":3281:3410   */\n    tag_41:\n        /* \"#utility.yul\":3315:3321   */\n      0x00\n        /* \"#utility.yul\":3342:3362   */\n      tag_91\n      tag_92\n      jump\t// in\n    tag_91:\n        /* \"#utility.yul\":3332:3362   */\n      swap1\n      pop\n        /* \"#utility.yul\":3371:3404   */\n      tag_93\n        /* \"#utility.yul\":3399:3403   */\n      dup3\n        /* \"#utility.yul\":3391:3397   */\n      dup3\n        /* \"#utility.yul\":3371:3404   */\n      tag_94\n      jump\t// in\n    tag_93:\n        /* \"#utility.yul\":3281:3410   */\n      swap2\n      swap1\n      pop\n      jump\t// out\n        /* \"#utility.yul\":3416:3491   */\n    tag_92:\n        /* \"#utility.yul\":3449:3455   */\n      0x00\n        /* \"#utility.yul\":3482:3484   */\n      0x40\n        /* \"#utility.yul\":3476:3485   */\n      mload\n        /* \"#utility.yul\":3466:3485   */\n      swap1\n      pop\n        /* \"#utility.yul\":3416:3491   */\n      swap1\n      jump\t// out\n        /* \"#utility.yul\":3497:3808   */\n    tag_40:\n        /* \"#utility.yul\":3574:3578   */\n      0x00\n        /* \"#utility.yul\":3664:3682   */\n      0xffffffffffffffff\n        /* \"#utility.yul\":3656:3662   */\n      dup3\n        /* \"#utility.yul\":3653:3683   */\n      gt\n        /* \"#utility.yul\":3650:3706   */\n      iszero\n      tag_97\n      jumpi\n        /* \"#utility.yul\":3686:3704   */\n      tag_98\n      tag_99\n      jump\t// in\n    tag_98:\n        /* \"#utility.yul\":3650:3706   */\n    tag_97:\n        /* \"#utility.yul\":3736:3740   */\n      0x20\n        /* \"#utility.yul\":3728:3734   */\n      dup3\n        /* \"#utility.yul\":3724:3741   */\n      mul\n        /* \"#utility.yul\":3716:3741   */\n      swap1\n      pop\n        /* \"#utility.yul\":3796:3800   */\n      0x20\n        /* \"#utility.yul\":3790:3794   */\n      dup2\n        /* \"#utility.yul\":3786:3801   */\n      add\n        /* \"#utility.yul\":3778:3801   */\n      swap1\n      pop\n        /* \"#utility.yul\":3497:3808   */\n      swap2\n      swap1\n      pop\n      jump\t// out\n        /* \"#utility.yul\":3814:3946   */\n    tag_78:\n        /* \"#utility.yul\":3881:3885   */\n      0x00\n        /* \"#utility.yul\":3904:3907   */\n      dup2\n        /* \"#utility.yul\":3896:3907   */\n      swap1\n      pop\n        /* \"#utility.yul\":3934:3938   */\n      0x20\n        /* \"#utility.yul\":3929:3932   */\n      dup3\n        /* \"#utility.yul\":3925:3939   */\n      add\n        /* \"#utility.yul\":3917:3939   */\n      swap1\n      pop\n        /* \"#utility.yul\":3814:3946   */\n      swap2\n      swap1\n      pop\n      jump\t// out\n        /* \"#utility.yul\":3952:4066   */\n    tag_74:\n        /* \"#utility.yul\":4019:4025   */\n      0x00\n        /* \"#utility.yul\":4053:4058   */\n      dup2\n        /* \"#utility.yul\":4047:4059   */\n      mload\n        /* \"#utility.yul\":4037:4059   */\n      swap1\n      pop\n        /* \"#utility.yul\":3952:4066   */\n      swap2\n      swap1\n      pop\n      jump\t// out\n        /* \"#utility.yul\":4072:4185   */\n    tag_84:\n        /* \"#utility.yul\":4142:4146   */\n      0x00\n        /* \"#utility.yul\":4174:4178   */\n      0x20\n        /* \"#utility.yul\":4169:4172   */\n      dup3\n        /* \"#utility.yul\":4165:4179   */\n      add\n        /* \"#utility.yul\":4157:4179   */\n      swap1\n      pop\n        /* \"#utility.yul\":4072:4185   */\n      swap2\n      swap1\n      pop\n      jump\t// out\n        /* \"#utility.yul\":4191:4375   */\n    tag_76:\n        /* \"#utility.yul\":4290:4301   */\n      0x00\n        /* \"#utility.yul\":4324:4330   */\n      dup3\n        /* \"#utility.yul\":4319:4322   */\n      dup3\n        /* \"#utility.yul\":4312:4331   */\n      mstore\n        /* \"#utility.yul\":4364:4368   */\n      0x20\n        /* \"#utility.yul\":4359:4362   */\n      dup3\n        /* \"#utility.yul\":4355:4369   */\n      add\n        /* \"#utility.yul\":4340:4369   */\n      swap1\n      pop\n        /* \"#utility.yul\":4191:4375   */\n      swap3\n      swap2\n      pop\n      pop\n      jump\t// out\n        /* \"#utility.yul\":4381:4572   */\n    tag_21:\n        /* \"#utility.yul\":4421:4425   */\n      0x00\n        /* \"#utility.yul\":4441:4461   */\n      tag_105\n        /* \"#utility.yul\":4459:4460   */\n      dup3\n        /* \"#utility.yul\":4441:4461   */\n      tag_87\n      jump\t// in\n    tag_105:\n        /* \"#utility.yul\":4436:4461   */\n      swap2\n      pop\n        /* \"#utility.yul\":4475:4495   */\n      tag_106\n        /* \"#utility.yul\":4493:4494   */\n      dup4\n        /* \"#utility.yul\":4475:4495   */\n      tag_87\n      jump\t// in\n    tag_106:\n        /* \"#utility.yul\":4470:4495   */\n      swap3\n      pop\n        /* \"#utility.yul\":4514:4515   */\n      dup3\n        /* \"#utility.yul\":4511:4512   */\n      dup3\n        /* \"#utility.yul\":4508:4516   */\n      lt\n        /* \"#utility.yul\":4505:4539   */\n      iszero\n      tag_107\n      jumpi\n        /* \"#utility.yul\":4519:4537   */\n      tag_108\n      tag_109\n      jump\t// in\n    tag_108:\n        /* \"#utility.yul\":4505:4539   */\n    tag_107:\n        /* \"#utility.yul\":4564:4565   */\n      dup3\n        /* \"#utility.yul\":4561:4562   */\n      dup3\n        /* \"#utility.yul\":4557:4566   */\n      sub\n        /* \"#utility.yul\":4549:4566   */\n      swap1\n      pop\n        /* \"#utility.yul\":4381:4572   */\n      swap3\n      swap2\n      pop\n      pop\n      jump\t// out\n        /* \"#utility.yul\":4578:4655   */\n    tag_87:\n        /* \"#utility.yul\":4615:4622   */\n      0x00\n        /* \"#utility.yul\":4644:4649   */\n      dup2\n        /* \"#utility.yul\":4633:4649   */\n      swap1\n      pop\n        /* \"#utility.yul\":4578:4655   */\n      swap2\n      swap1\n      pop\n      jump\t// out\n        /* \"#utility.yul\":4661:4832   */\n    tag_30:\n        /* \"#utility.yul\":4700:4703   */\n      0x00\n        /* \"#utility.yul\":4723:4747   */\n      tag_112\n        /* \"#utility.yul\":4741:4746   */\n      dup3\n        /* \"#utility.yul\":4723:4747   */\n      tag_87\n      jump\t// in\n    tag_112:\n        /* \"#utility.yul\":4714:4747   */\n      swap2\n      pop\n        /* \"#utility.yul\":4769:4773   */\n      0x00\n        /* \"#utility.yul\":4762:4767   */\n      dup3\n        /* \"#utility.yul\":4759:4774   */\n      eq\n        /* \"#utility.yul\":4756:4797   */\n      iszero\n      tag_113\n      jumpi\n        /* \"#utility.yul\":4777:4795   */\n      tag_114\n      tag_109\n      jump\t// in\n    tag_114:\n        /* \"#utility.yul\":4756:4797   */\n    tag_113:\n        /* \"#utility.yul\":4824:4825   */\n      0x01\n        /* \"#utility.yul\":4817:4822   */\n      dup3\n        /* \"#utility.yul\":4813:4826   */\n      sub\n        /* \"#utility.yul\":4806:4826   */\n      swap1\n      pop\n        /* \"#utility.yul\":4661:4832   */\n      swap2\n      swap1\n      pop\n      jump\t// out\n        /* \"#utility.yul\":4838:5119   */\n    tag_94:\n        /* \"#utility.yul\":4921:4948   */\n      tag_116\n        /* \"#utility.yul\":4943:4947   */\n      dup3\n        /* \"#utility.yul\":4921:4948   */\n      tag_117\n      jump\t// in\n    tag_116:\n        /* \"#utility.yul\":4913:4919   */\n      dup2\n        /* \"#utility.yul\":4909:4949   */\n      add\n        /* \"#utility.yul\":5051:5057   */\n      dup2\n        /* \"#utility.yul\":5039:5049   */\n      dup2\n        /* \"#utility.yul\":5036:5058   */\n      lt\n        /* \"#utility.yul\":5015:5033   */\n      0xffffffffffffffff\n        /* \"#utility.yul\":5003:5013   */\n      dup3\n        /* \"#utility.yul\":5000:5034   */\n      gt\n        /* \"#utility.yul\":4997:5059   */\n      or\n        /* \"#utility.yul\":4994:5082   */\n      iszero\n      tag_118\n      jumpi\n        /* \"#utility.yul\":5062:5080   */\n      tag_119\n      tag_99\n      jump\t// in\n    tag_119:\n        /* \"#utility.yul\":4994:5082   */\n    tag_118:\n        /* \"#utility.yul\":5102:5112   */\n      dup1\n        /* \"#utility.yul\":5098:5100   */\n      0x40\n        /* \"#utility.yul\":5091:5113   */\n      mstore\n        /* \"#utility.yul\":4881:5119   */\n      pop\n        /* \"#utility.yul\":4838:5119   */\n      pop\n      pop\n      jump\t// out\n        /* \"#utility.yul\":5125:5358   */\n    tag_34:\n        /* \"#utility.yul\":5164:5167   */\n      0x00\n        /* \"#utility.yul\":5187:5211   */\n      tag_121\n        /* \"#utility.yul\":5205:5210   */\n      dup3\n        /* \"#utility.yul\":5187:5211   */\n      tag_87\n      jump\t// in\n    tag_121:\n        /* \"#utility.yul\":5178:5211   */\n      swap2\n      pop\n        /* \"#utility.yul\":5233:5299   */\n      0xffffffffffffffffffffffffffffffffffffffffffffffffffffffffffffffff\n        /* \"#utility.yul\":5226:5231   */\n      dup3\n        /* \"#utility.yul\":5223:5300   */\n      eq\n        /* \"#utility.yul\":5220:5323   */\n      iszero\n      tag_122\n      jumpi\n        /* \"#utility.yul\":5303:5321   */\n      tag_123\n      tag_109\n      jump\t// in\n    tag_123:\n        /* \"#utility.yul\":5220:5323   */\n    tag_122:\n        /* \"#utility.yul\":5350:5351   */\n      0x01\n        /* \"#utility.yul\":5343:5348   */\n      dup3\n        /* \"#utility.yul\":5339:5352   */\n      add\n        /* \"#utility.yul\":5332:5352   */\n      swap1\n      pop\n        /* \"#utility.yul\":5125:5358   */\n      swap2\n      swap1\n      pop\n      jump\t// out\n        /* \"#utility.yul\":5364:5544   */\n    tag_109:\n        /* \"#utility.yul\":5412:5489   */\n      0x4e487b7100000000000000000000000000000000000000000000000000000000\n        /* \"#utility.yul\":5409:5410   */\n      0x00\n        /* \"#utility.yul\":5402:5490   */\n      mstore\n        /* \"#utility.yul\":5509:5513   */\n      0x11\n        /* \"#utility.yul\":5506:5507   */\n      0x04\n        /* \"#utility.yul\":5499:5514   */\n      mstore\n        /* \"#utility.yul\":5533:5537   */\n      0x24\n        /* \"#utility.yul\":5530:5531   */\n      0x00\n        /* \"#utility.yul\":5523:5538   */\n      revert\n        /* \"#utility.yul\":5550:5730   */\n    tag_16:\n        /* \"#utility.yul\":5598:5675   */\n      0x4e487b7100000000000000000000000000000000000000000000000000000000\n        /* \"#utility.yul\":5595:5596   */\n      0x00\n        /* \"#utility.yul\":5588:5676   */\n      mstore\n        /* \"#utility.yul\":5695:5699   */\n      0x32\n        /* \"#utility.yul\":5692:5693   */\n      0x04\n        /* \"#utility.yul\":5685:5700   */\n      mstore\n        /* \"#utility.yul\":5719:5723   */\n      0x24\n        /* \"#utility.yul\":5716:5717   */\n      0x00\n        /* \"#utility.yul\":5709:5724   */\n      revert\n        /* \"#utility.yul\":5736:5916   */\n    tag_99:\n        /* \"#utility.yul\":5784:5861   */\n      0x4e487b7100000000000000000000000000000000000000000000000000000000\n        /* \"#utility.yul\":5781:5782   */\n      0x00\n        /* \"#utility.yul\":5774:5862   */\n      mstore\n        /* \"#utility.yul\":5881:5885   */\n      0x41\n        /* \"#utility.yul\":5878:5879   */\n      0x04\n        /* \"#utility.yul\":5871:5886   */\n      mstore\n        /* \"#utility.yul\":5905:5909   */\n      0x24\n        /* \"#utility.yul\":5902:5903   */\n      0x00\n        /* \"#utility.yul\":5895:5910   */\n      revert\n        /* \"#utility.yul\":5922:6039   */\n    tag_54:\n        /* \"#utility.yul\":6031:6032   */\n      0x00\n        /* \"#utility.yul\":6028:6029   */\n      dup1\n        /* \"#utility.yul\":6021:6033   */\n      revert\n        /* \"#utility.yul\":6045:6162   */\n    tag_44:\n        /* \"#utility.yul\":6154:6155   */\n      0x00\n        /* \"#utility.yul\":6151:6152   */\n      dup1\n        /* \"#utility.yul\":6144:6156   */\n      revert\n        /* \"#utility.yul\":6168:6285   */\n    tag_65:\n        /* \"#utility.yul\":6277:6278   */\n      0x00\n        /* \"#utility.yul\":6274:6275   */\n      dup1\n        /* \"#utility.yul\":6267:6279   */\n      revert\n        /* \"#utility.yul\":6291:6408   */\n    tag_62:\n        /* \"#utility.yul\":6400:6401   */\n      0x00\n        /* \"#utility.yul\":6397:6398   */\n      dup1\n        /* \"#utility.yul\":6390:6402   */\n      revert\n        /* \"#utility.yul\":6414:6516   */\n    tag_117:\n        /* \"#utility.yul\":6455:6461   */\n      0x00\n        /* \"#utility.yul\":6506:6508   */\n      0x1f\n        /* \"#utility.yul\":6502:6509   */\n      not\n        /* \"#utility.yul\":6497:6499   */\n      0x1f\n        /* \"#utility.yul\":6490:6495   */\n      dup4\n        /* \"#utility.yul\":6486:6500   */\n      add\n        /* \"#utility.yul\":6482:6510   */\n      and\n        /* \"#utility.yul\":6472:6510   */\n      swap1\n      pop\n        /* \"#utility.yul\":6414:6516   */\n      swap2\n      swap1\n      pop\n      jump\t// out\n        /* \"#utility.yul\":6522:6644   */\n    tag_58:\n        /* \"#utility.yul\":6595:6619   */\n      tag_133\n        /* \"#utility.yul\":6613:6618   */\n      dup2\n        /* \"#utility.yul\":6595:6619   */\n      tag_87\n      jump\t// in\n    tag_133:\n        /* \"#utility.yul\":6588:6593   */\n      dup2\n        /* \"#utility.yul\":6585:6620   */\n      eq\n        /* \"#utility.yul\":6575:6638   */\n      tag_134\n      jumpi\n        /* \"#utility.yul\":6634:6635   */\n      0x00\n        /* \"#utility.yul\":6631:6632   */\n      dup1\n        /* \"#utility.yul\":6624:6636   */\n      revert\n        /* \"#utility.yul\":6575:6638   */\n    tag_134:\n        /* \"#utility.yul\":6522:6644   */\n      pop\n      jump\t// out\n\n    auxdata: 0xa2646970667358221220bd0430b3d76ffe6186beb3809a08319831b397df02a55c9f27f5759ab88424b964736f6c63430008070033\n}\n",
				"bytecode": {
					"linkReferences": {},
					"object": "608060405234801561001057600080fd5b50610577806100206000396000f3fe608060405234801561001057600080fd5b506004361061002b5760003560e01c80636297206f14610030575b600080fd5b61004a6004803603810190610045919061021c565b610060565b60405161005791906102ea565b60405180910390f35b60606000600190505b8251811015610160576000838281518110610087576100866104a7565b5b6020026020010151905060008290505b600181101580156100cd5750846001826100b19190610396565b815181106100c2576100c16104a7565b5b602002602001015182105b1561012b57846001826100e09190610396565b815181106100f1576100f06104a7565b5b602002602001015185828151811061010c5761010b6104a7565b5b6020026020010181815250508080610123906103d4565b915050610097565b8185828151811061013f5761013e6104a7565b5b602002602001018181525050505080806101589061042f565b915050610069565b50819050919050565b600061017c61017784610331565b61030c565b9050808382526020820190508285602086028201111561019f5761019e61050a565b5b60005b858110156101cf57816101b58882610207565b8452602084019350602083019250506001810190506101a2565b5050509392505050565b600082601f8301126101ee576101ed610505565b5b81356101fe848260208601610169565b91505092915050565b6000813590506102168161052a565b92915050565b60006020828403121561023257610231610514565b5b600082013567ffffffffffffffff8111156102505761024f61050f565b5b61025c848285016101d9565b91505092915050565b600061027183836102db565b60208301905092915050565b60006102888261036d565b6102928185610385565b935061029d8361035d565b8060005b838110156102ce5781516102b58882610265565b97506102c083610378565b9250506001810190506102a1565b5085935050505092915050565b6102e4816103ca565b82525050565b60006020820190508181036000830152610304818461027d565b905092915050565b6000610316610327565b905061032282826103fe565b919050565b6000604051905090565b600067ffffffffffffffff82111561034c5761034b6104d6565b5b602082029050602081019050919050565b6000819050602082019050919050565b600081519050919050565b6000602082019050919050565b600082825260208201905092915050565b60006103a1826103ca565b91506103ac836103ca565b9250828210156103bf576103be610478565b5b828203905092915050565b6000819050919050565b60006103df826103ca565b915060008214156103f3576103f2610478565b5b600182039050919050565b61040782610519565b810181811067ffffffffffffffff82111715610426576104256104d6565b5b80604052505050565b600061043a826103ca565b91507fffffffffffffffffffffffffffffffffffffffffffffffffffffffffffffffff82141561046d5761046c610478565b5b600182019050919050565b7f4e487b7100000000000000000000000000000000000000000000000000000000600052601160045260246000fd5b7f4e487b7100000000000000000000000000000000000000000000000000000000600052603260045260246000fd5b7f4e487b7100000000000000000000000000000000000000000000000000000000600052604160045260246000fd5b600080fd5b600080fd5b600080fd5b600080fd5b6000601f19601f8301169050919050565b610533816103ca565b811461053e57600080fd5b5056fea2646970667358221220bd0430b3d76ffe6186beb3809a08319831b397df02a55c9f27f5759ab88424b964736f6c63430008070033",
					"opcodes": "PUSH1 0x80 PUSH1 0x40 MSTORE CALLVALUE DUP1 ISZERO PUSH2 0x10 JUMPI PUSH1 0x0 DUP1 REVERT JUMPDEST POP PUSH2 0x577 DUP1 PUSH2 0x20 PUSH1 0x0 CODECOPY PUSH1 0x0 RETURN INVALID PUSH1 0x80 PUSH1 0x40 MSTORE CALLVALUE DUP1 ISZERO PUSH2 0x10 JUMPI PUSH1 0x0 DUP1 REVERT JUMPDEST POP PUSH1 0x4 CALLDATASIZE LT PUSH2 0x2B JUMPI PUSH1 0x0 CALLDATALOAD PUSH1 0xE0 SHR DUP1 PUSH4 0x6297206F EQ PUSH2 0x30 JUMPI JUMPDEST PUSH1 0x0 DUP1 REVERT JUMPDEST PUSH2 0x4A PUSH1 0x4 DUP1 CALLDATASIZE SUB DUP2 ADD SWAP1 PUSH2 0x45 SWAP2 SWAP1 PUSH2 0x21C JUMP JUMPDEST PUSH2 0x60 JUMP JUMPDEST PUSH1 0x40 MLOAD PUSH2 0x57 SWAP2 SWAP1 PUSH2 0x2EA JUMP JUMPDEST PUSH1 0x40 MLOAD DUP1 SWAP2 SUB SWAP1 RETURN JUMPDEST PUSH1 0x60 PUSH1 0x0 PUSH1 0x1 SWAP1 POP JUMPDEST DUP3 MLOAD DUP2 LT ISZERO PUSH2 0x160 JUMPI PUSH1 0x0 DUP4 DUP3 DUP2 MLOAD DUP2 LT PUSH2 0x87 JUMPI PUSH2 0x86 PUSH2 0x4A7 JUMP JUMPDEST JUMPDEST PUSH1 0x20 MUL PUSH1 0x20 ADD ADD MLOAD SWAP1 POP PUSH1 0x0 DUP3 SWAP1 POP JUMPDEST PUSH1 0x1 DUP2 LT ISZERO DUP1 ISZERO PUSH2 0xCD JUMPI POP DUP5 PUSH1 0x1 DUP3 PUSH2 0xB1 SWAP2 SWAP1 PUSH2 0x396 JUMP JUMPDEST DUP2 MLOAD DUP2 LT PUSH2 0xC2 JUMPI PUSH2 0xC1 PUSH2 0x4A7 JUMP JUMPDEST JUMPDEST PUSH1 0x20 MUL PUSH1 0x20 ADD ADD MLOAD DUP3 LT JUMPDEST ISZERO PUSH2 0x12B JUMPI DUP5 PUSH1 0x1 DUP3 PUSH2 0xE0 SWAP2 SWAP1 PUSH2 0x396 JUMP JUMPDEST DUP2 MLOAD DUP2 LT PUSH2 0xF1 JUMPI PUSH2 0xF0 PUSH2 0x4A7 JUMP JUMPDEST JUMPDEST PUSH1 0x20 MUL PUSH1 0x20 ADD ADD MLOAD DUP6 DUP3 DUP2 MLOAD DUP2 LT PUSH2 0x10C JUMPI PUSH2 0x10B PUSH2 0x4A7 JUMP JUMPDEST JUMPDEST PUSH1 0x20 MUL PUSH1 0x20 ADD ADD DUP2 DUP2 MSTORE POP POP DUP1 DUP1 PUSH2 0x123 SWAP1 PUSH2 0x3D4 JUMP JUMPDEST SWAP2 POP POP PUSH2 0x97 JUMP JUMPDEST DUP2 DUP6 DUP3 DUP2 MLOAD DUP2 LT PUSH2 0x13F JUMPI PUSH2 0x13E PUSH2 0x4A7 JUMP JUMPDEST JUMPDEST PUSH1 0x20 MUL PUSH1 0x20 ADD ADD DUP2 DUP2 MSTORE POP POP POP POP DUP1 DUP1 PUSH2 0x158 SWAP1 PUSH2 0x42F JUMP JUMPDEST SWAP2 POP POP PUSH2 0x69 JUMP JUMPDEST POP DUP2 SWAP1 POP SWAP2 SWAP1 POP JUMP JUMPDEST PUSH1 0x0 PUSH2 0x17C PUSH2 0x177 DUP5 PUSH2 0x331 JUMP JUMPDEST PUSH2 0x30C JUMP JUMPDEST SWAP1 POP DUP1 DUP4 DUP3 MSTORE PUSH1 0x20 DUP3 ADD SWAP1 POP DUP3 DUP6 PUSH1 0x20 DUP7 MUL DUP3 ADD GT ISZERO PUSH2 0x19F JUMPI PUSH2 0x19E PUSH2 0x50A JUMP JUMPDEST JUMPDEST PUSH1 0x0 JUMPDEST DUP6 DUP2 LT ISZERO PUSH2 0x1CF JUMPI DUP2 PUSH2 0x1B5 DUP9 DUP3 PUSH2 0x207 JUMP JUMPDEST DUP5 MSTORE PUSH1 0x20 DUP5 ADD SWAP4 POP PUSH1 0x20 DUP4 ADD SWAP3 POP POP PUSH1 0x1 DUP2 ADD SWAP1 POP PUSH2 0x1A2 JUMP JUMPDEST POP POP POP SWAP4 SWAP3 POP POP POP JUMP JUMPDEST PUSH1 0x0 DUP3 PUSH1 0x1F DUP4 ADD SLT PUSH2 0x1EE JUMPI PUSH2 0x1ED PUSH2 0x505 JUMP JUMPDEST JUMPDEST DUP2 CALLDATALOAD PUSH2 0x1FE DUP5 DUP3 PUSH1 0x20 DUP7 ADD PUSH2 0x169 JUMP JUMPDEST SWAP2 POP POP SWAP3 SWAP2 POP POP JUMP JUMPDEST PUSH1 0x0 DUP2 CALLDATALOAD SWAP1 POP PUSH2 0x216 DUP2 PUSH2 0x52A JUMP JUMPDEST SWAP3 SWAP2 POP POP JUMP JUMPDEST PUSH1 0x0 PUSH1 0x20 DUP3 DUP5 SUB SLT ISZERO PUSH2 0x232 JUMPI PUSH2 0x231 PUSH2 0x514 JUMP JUMPDEST JUMPDEST PUSH1 0x0 DUP3 ADD CALLDATALOAD PUSH8 0xFFFFFFFFFFFFFFFF DUP2 GT ISZERO PUSH2 0x250 JUMPI PUSH2 0x24F PUSH2 0x50F JUMP JUMPDEST JUMPDEST PUSH2 0x25C DUP5 DUP3 DUP6 ADD PUSH2 0x1D9 JUMP JUMPDEST SWAP2 POP POP SWAP3 SWAP2 POP POP JUMP JUMPDEST PUSH1 0x0 PUSH2 0x271 DUP4 DUP4 PUSH2 0x2DB JUMP JUMPDEST PUSH1 0x20 DUP4 ADD SWAP1 POP SWAP3 SWAP2 POP POP JUMP JUMPDEST PUSH1 0x0 PUSH2 0x288 DUP3 PUSH2 0x36D JUMP JUMPDEST PUSH2 0x292 DUP2 DUP6 PUSH2 0x385 JUMP JUMPDEST SWAP4 POP PUSH2 0x29D DUP4 PUSH2 0x35D JUMP JUMPDEST DUP1 PUSH1 0x0 JUMPDEST DUP4 DUP2 LT ISZERO PUSH2 0x2CE JUMPI DUP2 MLOAD PUSH2 0x2B5 DUP9 DUP3 PUSH2 0x265 JUMP JUMPDEST SWAP8 POP PUSH2 0x2C0 DUP4 PUSH2 0x378 JUMP JUMPDEST SWAP3 POP POP PUSH1 0x1 DUP2 ADD SWAP1 POP PUSH2 0x2A1 JUMP JUMPDEST POP DUP6 SWAP4 POP POP POP POP SWAP3 SWAP2 POP POP JUMP JUMPDEST PUSH2 0x2E4 DUP2 PUSH2 0x3CA JUMP JUMPDEST DUP3 MSTORE POP POP JUMP JUMPDEST PUSH1 0x0 PUSH1 0x20 DUP3 ADD SWAP1 POP DUP2 DUP2 SUB PUSH1 0x0 DUP4 ADD MSTORE PUSH2 0x304 DUP2 DUP5 PUSH2 0x27D JUMP JUMPDEST SWAP1 POP SWAP3 SWAP2 POP POP JUMP JUMPDEST PUSH1 0x0 PUSH2 0x316 PUSH2 0x327 JUMP JUMPDEST SWAP1 POP PUSH2 0x322 DUP3 DUP3 PUSH2 0x3FE JUMP JUMPDEST SWAP2 SWAP1 POP JUMP JUMPDEST PUSH1 0x0 PUSH1 0x40 MLOAD SWAP1 POP SWAP1 JUMP JUMPDEST PUSH1 0x0 PUSH8 0xFFFFFFFFFFFFFFFF DUP3 GT ISZERO PUSH2 0x34C JUMPI PUSH2 0x34B PUSH2 0x4D6 JUMP JUMPDEST JUMPDEST PUSH1 0x20 DUP3 MUL SWAP1 POP PUSH1 0x20 DUP2 ADD SWAP1 POP SWAP2 SWAP1 POP JUMP JUMPDEST PUSH1 0x0 DUP2 SWAP1 POP PUSH1 0x20 DUP3 ADD SWAP1 POP SWAP2 SWAP1 POP JUMP JUMPDEST PUSH1 0x0 DUP2 MLOAD SWAP1 POP SWAP2 SWAP1 POP JUMP JUMPDEST PUSH1 0x0 PUSH1 0x20 DUP3 ADD SWAP1 POP SWAP2 SWAP1 POP JUMP JUMPDEST PUSH1 0x0 DUP3 DUP3 MSTORE PUSH1 0x20 DUP3 ADD SWAP1 POP SWAP3 SWAP2 POP POP JUMP JUMPDEST PUSH1 0x0 PUSH2 0x3A1 DUP3 PUSH2 0x3CA JUMP JUMPDEST SWAP2 POP PUSH2 0x3AC DUP4 PUSH2 0x3CA JUMP JUMPDEST SWAP3 POP DUP3 DUP3 LT ISZERO PUSH2 0x3BF JUMPI PUSH2 0x3BE PUSH2 0x478 JUMP JUMPDEST JUMPDEST DUP3 DUP3 SUB SWAP1 POP SWAP3 SWAP2 POP POP JUMP JUMPDEST PUSH1 0x0 DUP2 SWAP1 POP SWAP2 SWAP1 POP JUMP JUMPDEST PUSH1 0x0 PUSH2 0x3DF DUP3 PUSH2 0x3CA JUMP JUMPDEST SWAP2 POP PUSH1 0x0 DUP3 EQ ISZERO PUSH2 0x3F3 JUMPI PUSH2 0x3F2 PUSH2 0x478 JUMP JUMPDEST JUMPDEST PUSH1 0x1 DUP3 SUB SWAP1 POP SWAP2 SWAP1 POP JUMP JUMPDEST PUSH2 0x407 DUP3 PUSH2 0x519 JUMP JUMPDEST DUP2 ADD DUP2 DUP2 LT PUSH8 0xFFFFFFFFFFFFFFFF DUP3 GT OR ISZERO PUSH2 0x426 JUMPI PUSH2 0x425 PUSH2 0x4D6 JUMP JUMPDEST JUMPDEST DUP1 PUSH1 0x40 MSTORE POP POP POP JUMP JUMPDEST PUSH1 0x0 PUSH2 0x43A DUP3 PUSH2 0x3CA JUMP JUMPDEST SWAP2 POP PUSH32 0xFFFFFFFFFFFFFFFFFFFFFFFFFFFFFFFFFFFFFFFFFFFFFFFFFFFFFFFFFFFFFFFF DUP3 EQ ISZERO PUSH2 0x46D JUMPI PUSH2 0x46C PUSH2 0x478 JUMP JUMPDEST JUMPDEST PUSH1 0x1 DUP3 ADD SWAP1 POP SWAP2 SWAP1 POP JUMP JUMPDEST PUSH32 0x4E487B7100000000000000000000000000000000000000000000000000000000 PUSH1 0x0 MSTORE PUSH1 0x11 PUSH1 0x4 MSTORE PUSH1 0x24 PUSH1 0x0 REVERT JUMPDEST PUSH32 0x4E487B7100000000000000000000000000000000000000000000000000000000 PUSH1 0x0 MSTORE PUSH1 0x32 PUSH1 0x4 MSTORE PUSH1 0x24 PUSH1 0x0 REVERT JUMPDEST PUSH32 0x4E487B7100000000000000000000000000000000000000000000000000000000 PUSH1 0x0 MSTORE PUSH1 0x41 PUSH1 0x4 MSTORE PUSH1 0x24 PUSH1 0x0 REVERT JUMPDEST PUSH1 0x0 DUP1 REVERT JUMPDEST PUSH1 0x0 DUP1 REVERT JUMPDEST PUSH1 0x0 DUP1 REVERT JUMPDEST PUSH1 0x0 DUP1 REVERT JUMPDEST PUSH1 0x0 PUSH1 0x1F NOT PUSH1 0x1F DUP4 ADD AND SWAP1 POP SWAP2 SWAP1 POP JUMP JUMPDEST PUSH2 0x533 DUP2 PUSH2 0x3CA JUMP JUMPDEST DUP2 EQ PUSH2 0x53E JUMPI PUSH1 0x0 DUP1 REVERT JUMPDEST POP JUMP INVALID LOG2 PUSH5 0x6970667358 0x22 SLT KECCAK256 0xBD DIV ADDRESS 0xB3 0xD7 PUSH16 0xFE6186BEB3809A08319831B397DF02A5 0x5C SWAP16 0x27 CREATE2 PUSH22 0x9AB88424B964736F6C63430008070033000000000000 "
				},
				"gasEstimates": {
					"creation": {
						"codeDepositCost": "279800",
						"executionCost": "318",
						"totalCost": "280118"
					},
					"external": {
						"insertionSort(uint256[])": "infinite"
					}
				},
				"methodIdentifiers": {
					"insertionSort(uint256[])": "6297206f"
				}
			},
			"storageLayout": {
				"storage": [],
				"types": null
			},
			"userdoc": {
				"kind": "user",
				"methods": {},
				"version": 1
			}
		}
	}
}