{
	"WTF/wtf_6.sol": {
		"wtf_6": {
			"abi": [
				{
					"inputs": [
						{
							"internalType": "uint256[]",
							"name": "_x",
							"type": "uint256[]"
						}
					],
					"name": "fCalldata",
					"outputs": [
						{
							"internalType": "uint256[]",
							"name": "",
							"type": "uint256[]"
						}
					],
					"stateMutability": "pure",
					"type": "function"
				}
			],
			"devdoc": {
				"kind": "dev",
				"methods": {},
				"version": 1
			},
			"evm": {
				"assembly": "    /* \"WTF/wtf_6.sol\":58:330  contract wtf_6{\r... */\n  mstore(0x40, 0x80)\n  callvalue\n  dup1\n  iszero\n  tag_1\n  jumpi\n  0x00\n  dup1\n  revert\ntag_1:\n  pop\n  dataSize(sub_0)\n  dup1\n  dataOffset(sub_0)\n  0x00\n  codecopy\n  0x00\n  return\nstop\n\nsub_0: assembly {\n        /* \"WTF/wtf_6.sol\":58:330  contract wtf_6{\r... */\n      mstore(0x40, 0x80)\n      callvalue\n      dup1\n      iszero\n      tag_1\n      jumpi\n      0x00\n      dup1\n      revert\n    tag_1:\n      pop\n      jumpi(tag_2, lt(calldatasize, 0x04))\n      shr(0xe0, calldataload(0x00))\n      dup1\n      0x9b1a379c\n      eq\n      tag_3\n      jumpi\n    tag_2:\n      0x00\n      dup1\n      revert\n        /* \"WTF/wtf_6.sol\":123:327  function fCalldata(uint[] calldata _x) public pure returns(uint[] calldata){\r... */\n    tag_3:\n      tag_4\n      tag_5\n      calldatasize\n      0x04\n      tag_6\n      jump\t// in\n    tag_5:\n        /* \"WTF/wtf_6.sol\":316:318  _x */\n      swap1\n      swap2\n        /* \"WTF/wtf_6.sol\":123:327  function fCalldata(uint[] calldata _x) public pure returns(uint[] calldata){\r... */\n      jump\n    tag_4:\n      mload(0x40)\n      tag_8\n      swap3\n      swap2\n      swap1\n      tag_9\n      jump\t// in\n    tag_8:\n      mload(0x40)\n      dup1\n      swap2\n      sub\n      swap1\n      return\n        /* \"#utility.yul\":14:629   */\n    tag_6:\n        /* \"#utility.yul\":100:106   */\n      0x00\n        /* \"#utility.yul\":108:114   */\n      dup1\n        /* \"#utility.yul\":161:163   */\n      0x20\n        /* \"#utility.yul\":149:158   */\n      dup4\n        /* \"#utility.yul\":140:147   */\n      dup6\n        /* \"#utility.yul\":136:159   */\n      sub\n        /* \"#utility.yul\":132:164   */\n      slt\n        /* \"#utility.yul\":129:181   */\n      iszero\n      tag_13\n      jumpi\n        /* \"#utility.yul\":177:178   */\n      0x00\n        /* \"#utility.yul\":174:175   */\n      dup1\n        /* \"#utility.yul\":167:179   */\n      revert\n        /* \"#utility.yul\":129:181   */\n    tag_13:\n        /* \"#utility.yul\":217:226   */\n      dup3\n        /* \"#utility.yul\":204:227   */\n      calldataload\n        /* \"#utility.yul\":246:264   */\n      0xffffffffffffffff\n        /* \"#utility.yul\":287:289   */\n      dup1\n        /* \"#utility.yul\":279:285   */\n      dup3\n        /* \"#utility.yul\":276:290   */\n      gt\n        /* \"#utility.yul\":273:307   */\n      iszero\n      tag_14\n      jumpi\n        /* \"#utility.yul\":303:304   */\n      0x00\n        /* \"#utility.yul\":300:301   */\n      dup1\n        /* \"#utility.yul\":293:305   */\n      revert\n        /* \"#utility.yul\":273:307   */\n    tag_14:\n        /* \"#utility.yul\":341:347   */\n      dup2\n        /* \"#utility.yul\":330:339   */\n      dup6\n        /* \"#utility.yul\":326:348   */\n      add\n        /* \"#utility.yul\":316:348   */\n      swap2\n      pop\n        /* \"#utility.yul\":386:393   */\n      dup6\n        /* \"#utility.yul\":379:383   */\n      0x1f\n        /* \"#utility.yul\":375:377   */\n      dup4\n        /* \"#utility.yul\":371:384   */\n      add\n        /* \"#utility.yul\":367:394   */\n      slt\n        /* \"#utility.yul\":357:412   */\n      tag_15\n      jumpi\n        /* \"#utility.yul\":408:409   */\n      0x00\n        /* \"#utility.yul\":405:406   */\n      dup1\n        /* \"#utility.yul\":398:410   */\n      revert\n        /* \"#utility.yul\":357:412   */\n    tag_15:\n        /* \"#utility.yul\":448:450   */\n      dup2\n        /* \"#utility.yul\":435:451   */\n      calldataload\n        /* \"#utility.yul\":474:476   */\n      dup2\n        /* \"#utility.yul\":466:472   */\n      dup2\n        /* \"#utility.yul\":463:477   */\n      gt\n        /* \"#utility.yul\":460:494   */\n      iszero\n      tag_16\n      jumpi\n        /* \"#utility.yul\":490:491   */\n      0x00\n        /* \"#utility.yul\":487:488   */\n      dup1\n        /* \"#utility.yul\":480:492   */\n      revert\n        /* \"#utility.yul\":460:494   */\n    tag_16:\n        /* \"#utility.yul\":543:550   */\n      dup7\n        /* \"#utility.yul\":538:540   */\n      0x20\n        /* \"#utility.yul\":528:534   */\n      dup3\n        /* \"#utility.yul\":525:526   */\n      0x05\n        /* \"#utility.yul\":521:535   */\n      shl\n        /* \"#utility.yul\":517:519   */\n      dup6\n        /* \"#utility.yul\":513:536   */\n      add\n        /* \"#utility.yul\":509:541   */\n      add\n        /* \"#utility.yul\":506:551   */\n      gt\n        /* \"#utility.yul\":503:568   */\n      iszero\n      tag_17\n      jumpi\n        /* \"#utility.yul\":564:565   */\n      0x00\n        /* \"#utility.yul\":561:562   */\n      dup1\n        /* \"#utility.yul\":554:566   */\n      revert\n        /* \"#utility.yul\":503:568   */\n    tag_17:\n        /* \"#utility.yul\":595:597   */\n      0x20\n        /* \"#utility.yul\":587:598   */\n      swap3\n      swap1\n      swap3\n      add\n      swap7\n        /* \"#utility.yul\":617:623   */\n      swap2\n      swap6\n      pop\n        /* \"#utility.yul\":14:629   */\n      swap1\n      swap4\n      pop\n      pop\n      pop\n      pop\n      jump\t// out\n        /* \"#utility.yul\":634:1120   */\n    tag_9:\n        /* \"#utility.yul\":823:825   */\n      0x20\n        /* \"#utility.yul\":805:826   */\n      dup1\n      dup3\n      mstore\n        /* \"#utility.yul\":842:860   */\n      dup2\n      add\n        /* \"#utility.yul\":835:869   */\n      dup3\n      swap1\n      mstore\n      0x00\n      sub(shl(0xfb, 0x01), 0x01)\n        /* \"#utility.yul\":881:912   */\n      dup4\n      gt\n        /* \"#utility.yul\":878:929   */\n      iszero\n      tag_19\n      jumpi\n        /* \"#utility.yul\":925:926   */\n      0x00\n        /* \"#utility.yul\":922:923   */\n      dup1\n        /* \"#utility.yul\":915:927   */\n      revert\n        /* \"#utility.yul\":878:929   */\n    tag_19:\n        /* \"#utility.yul\":959:965   */\n      dup3\n        /* \"#utility.yul\":956:957   */\n      0x05\n        /* \"#utility.yul\":952:966   */\n      shl\n        /* \"#utility.yul\":1016:1022   */\n      dup1\n        /* \"#utility.yul\":1008:1014   */\n      dup6\n        /* \"#utility.yul\":1003:1005   */\n      0x40\n        /* \"#utility.yul\":992:1001   */\n      dup6\n        /* \"#utility.yul\":988:1006   */\n      add\n        /* \"#utility.yul\":975:1023   */\n      calldatacopy\n        /* \"#utility.yul\":1093:1094   */\n      0x00\n        /* \"#utility.yul\":1046:1068   */\n      swap3\n      add\n        /* \"#utility.yul\":1070:1072   */\n      0x40\n        /* \"#utility.yul\":1042:1073   */\n      add\n        /* \"#utility.yul\":1082:1095   */\n      swap2\n      dup3\n      mstore\n      pop\n        /* \"#utility.yul\":1042:1073   */\n      swap3\n        /* \"#utility.yul\":634:1120   */\n      swap2\n      pop\n      pop\n      jump\t// out\n\n    auxdata: 0xa26469706673582212208fb4b0f34778c58ed897349382522e91d32b44e72b4ba7d6a96818da3051d21664736f6c63430008070033\n}\n",
				"bytecode": {
					"linkReferences": {},
					"object": "608060405234801561001057600080fd5b50610132806100206000396000f3fe6080604052348015600f57600080fd5b506004361060285760003560e01c80639b1a379c14602d575b600080fd5b603c60383660046051565b9091565b604051604892919060c1565b60405180910390f35b60008060208385031215606357600080fd5b823567ffffffffffffffff80821115607a57600080fd5b818501915085601f830112608d57600080fd5b813581811115609b57600080fd5b8660208260051b850101111560af57600080fd5b60209290920196919550909350505050565b6020808252810182905260006001600160fb1b0383111560e057600080fd5b8260051b8085604085013760009201604001918252509291505056fea26469706673582212208fb4b0f34778c58ed897349382522e91d32b44e72b4ba7d6a96818da3051d21664736f6c63430008070033",
					"opcodes": "PUSH1 0x80 PUSH1 0x40 MSTORE CALLVALUE DUP1 ISZERO PUSH2 0x10 JUMPI PUSH1 0x0 DUP1 REVERT JUMPDEST POP PUSH2 0x132 DUP1 PUSH2 0x20 PUSH1 0x0 CODECOPY PUSH1 0x0 RETURN INVALID PUSH1 0x80 PUSH1 0x40 MSTORE CALLVALUE DUP1 ISZERO PUSH1 0xF JUMPI PUSH1 0x0 DUP1 REVERT JUMPDEST POP PUSH1 0x4 CALLDATASIZE LT PUSH1 0x28 JUMPI PUSH1 0x0 CALLDATALOAD PUSH1 0xE0 SHR DUP1 PUSH4 0x9B1A379C EQ PUSH1 0x2D JUMPI JUMPDEST PUSH1 0x0 DUP1 REVERT JUMPDEST PUSH1 0x3C PUSH1 0x38 CALLDATASIZE PUSH1 0x4 PUSH1 0x51 JUMP JUMPDEST SWAP1 SWAP2 JUMP JUMPDEST PUSH1 0x40 MLOAD PUSH1 0x48 SWAP3 SWAP2 SWAP1 PUSH1 0xC1 JUMP JUMPDEST PUSH1 0x40 MLOAD DUP1 SWAP2 SUB SWAP1 RETURN JUMPDEST PUSH1 0x0 DUP1 PUSH1 0x20 DUP4 DUP6 SUB SLT ISZERO PUSH1 0x63 JUMPI PUSH1 0x0 DUP1 REVERT JUMPDEST DUP3 CALLDATALOAD PUSH8 0xFFFFFFFFFFFFFFFF DUP1 DUP3 GT ISZERO PUSH1 0x7A JUMPI PUSH1 0x0 DUP1 REVERT JUMPDEST DUP2 DUP6 ADD SWAP2 POP DUP6 PUSH1 0x1F DUP4 ADD SLT PUSH1 0x8D JUMPI PUSH1 0x0 DUP1 REVERT JUMPDEST DUP2 CALLDATALOAD DUP2 DUP2 GT ISZERO PUSH1 0x9B JUMPI PUSH1 0x0 DUP1 REVERT JUMPDEST DUP7 PUSH1 0x20 DUP3 PUSH1 0x5 SHL DUP6 ADD ADD GT ISZERO PUSH1 0xAF JUMPI PUSH1 0x0 DUP1 REVERT JUMPDEST PUSH1 0x20 SWAP3 SWAP1 SWAP3 ADD SWAP7 SWAP2 SWAP6 POP SWAP1 SWAP4 POP POP POP POP JUMP JUMPDEST PUSH1 0x20 DUP1 DUP3 MSTORE DUP2 ADD DUP3 SWAP1 MSTORE PUSH1 0x0 PUSH1 0x1 PUSH1 0x1 PUSH1 0xFB SHL SUB DUP4 GT ISZERO PUSH1 0xE0 JUMPI PUSH1 0x0 DUP1 REVERT JUMPDEST DUP3 PUSH1 0x5 SHL DUP1 DUP6 PUSH1 0x40 DUP6 ADD CALLDATACOPY PUSH1 0x0 SWAP3 ADD PUSH1 0x40 ADD SWAP2 DUP3 MSTORE POP SWAP3 SWAP2 POP POP JUMP INVALID LOG2 PUSH5 0x6970667358 0x22 SLT KECCAK256 DUP16 0xB4 0xB0 RETURN SELFBALANCE PUSH25 0xC58ED897349382522E91D32B44E72B4BA7D6A96818DA3051D2 AND PUSH5 0x736F6C6343 STOP ADDMOD SMOD STOP CALLER "
				},
				"gasEstimates": {
					"creation": {
						"codeDepositCost": "61200",
						"executionCost": "111",
						"totalCost": "61311"
					},
					"external": {
						"fCalldata(uint256[])": "infinite"
					}
				},
				"methodIdentifiers": {
					"fCalldata(uint256[])": "9b1a379c"
				}
			},
			"storageLayout": {
				"storage": [],
				"types": null
			},
			"userdoc": {
				"kind": "user",
				"methods": {},
				"version": 1
			}
		}
	}
}