{
	"WTF/wtf_6.sol": {
		"wtf_6": {
			"abi": [
				{
					"inputs": [
						{
							"internalType": "uint256[]",
							"name": "_x",
							"type": "uint256[]"
						}
					],
					"name": "fCalldata",
					"outputs": [
						{
							"internalType": "uint256[]",
							"name": "",
							"type": "uint256[]"
						}
					],
					"stateMutability": "pure",
					"type": "function"
				},
				{
					"inputs": [],
					"name": "fMemory",
					"outputs": [],
					"stateMutability": "view",
					"type": "function"
				},
				{
					"inputs": [],
					"name": "fStorage",
					"outputs": [],
					"stateMutability": "nonpayable",
					"type": "function"
				},
				{
					"inputs": [
						{
							"internalType": "uint256",
							"name": "",
							"type": "uint256"
						}
					],
					"name": "x",
					"outputs": [
						{
							"internalType": "uint256",
							"name": "",
							"type": "uint256"
						}
					],
					"stateMutability": "view",
					"type": "function"
				}
			],
			"devdoc": {
				"kind": "dev",
				"methods": {},
				"version": 1
			},
			"evm": {
				"assembly": "    /* \"WTF/wtf_6.sol\":58:972  contract wtf_6{\r... */\n  mstore(0x40, 0x80)\n    /* \"WTF/wtf_6.sol\":427:452  uint[] public x = [1,2,3] */\n  mload(0x40)\n  dup1\n  0x60\n  add\n  0x40\n  mstore\n  dup1\n    /* \"WTF/wtf_6.sol\":446:447  1 */\n  0x01\n    /* \"WTF/wtf_6.sol\":427:452  uint[] public x = [1,2,3] */\n  0xff\n  and\n  dup2\n  mstore\n  0x20\n  add\n    /* \"WTF/wtf_6.sol\":448:449  2 */\n  0x02\n    /* \"WTF/wtf_6.sol\":427:452  uint[] public x = [1,2,3] */\n  0xff\n  and\n  dup2\n  mstore\n  0x20\n  add\n    /* \"WTF/wtf_6.sol\":450:451  3 */\n  0x03\n    /* \"WTF/wtf_6.sol\":427:452  uint[] public x = [1,2,3] */\n  0xff\n  and\n  dup2\n  mstore\n  pop\n  0x00\n  swap1\n  0x03\n  tag_1\n  swap3\n  swap2\n  swap1\n  tag_2\n  jump\t// in\ntag_1:\n  pop\n    /* \"WTF/wtf_6.sol\":58:972  contract wtf_6{\r... */\n  callvalue\n  dup1\n  iszero\n  tag_3\n  jumpi\n  0x00\n  dup1\n  revert\ntag_3:\n  pop\n  jump(tag_4)\ntag_2:\n  dup3\n  dup1\n  sload\n  dup3\n  dup3\n  sstore\n  swap1\n  0x00\n  mstore\n  keccak256(0x00, 0x20)\n  swap1\n  dup2\n  add\n  swap3\n  dup3\n  iszero\n  tag_5\n  jumpi\n  swap2\n  0x20\n  mul\n  dup3\n  add\ntag_6:\n  dup3\n  dup2\n  gt\n  iszero\n  tag_7\n  jumpi\n  dup3\n  mload\n  dup3\n  swap1\n  0xff\n  and\n  swap1\n  sstore\n  swap2\n  0x20\n  add\n  swap2\n  swap1\n  0x01\n  add\n  swap1\n  jump(tag_6)\ntag_7:\ntag_5:\n  pop\n  swap1\n  pop\n  tag_8\n  swap2\n  swap1\n  tag_9\n  jump\t// in\ntag_8:\n  pop\n  swap1\n  jump\t// out\ntag_9:\ntag_10:\n  dup1\n  dup3\n  gt\n  iszero\n  tag_11\n  jumpi\n  0x00\n  dup2\n  0x00\n  swap1\n  sstore\n  pop\n  0x01\n  add\n  jump(tag_10)\ntag_11:\n  pop\n  swap1\n  jump\t// out\ntag_4:\n  dataSize(sub_0)\n  dup1\n  dataOffset(sub_0)\n  0x00\n  codecopy\n  0x00\n  return\nstop\n\nsub_0: assembly {\n        /* \"WTF/wtf_6.sol\":58:972  contract wtf_6{\r... */\n      mstore(0x40, 0x80)\n      callvalue\n      dup1\n      iszero\n      tag_1\n      jumpi\n      0x00\n      dup1\n      revert\n    tag_1:\n      pop\n      jumpi(tag_2, lt(calldatasize, 0x04))\n      shr(0xe0, calldataload(0x00))\n      dup1\n      0x20028990\n      eq\n      tag_3\n      jumpi\n      dup1\n      0x3f4263ef\n      eq\n      tag_4\n      jumpi\n      dup1\n      0x6a8d1e08\n      eq\n      tag_5\n      jumpi\n      dup1\n      0x9b1a379c\n      eq\n      tag_6\n      jumpi\n    tag_2:\n      0x00\n      dup1\n      revert\n        /* \"WTF/wtf_6.sol\":691:969  function fMemory() public view{\r... */\n    tag_3:\n      tag_7\n      tag_8\n      jump\t// in\n    tag_7:\n      stop\n        /* \"WTF/wtf_6.sol\":427:452  uint[] public x = [1,2,3] */\n    tag_4:\n      tag_9\n      0x04\n      dup1\n      calldatasize\n      sub\n      dup2\n      add\n      swap1\n      tag_10\n      swap2\n      swap1\n      tag_11\n      jump\t// in\n    tag_10:\n      tag_12\n      jump\t// in\n    tag_9:\n      mload(0x40)\n      tag_13\n      swap2\n      swap1\n      tag_14\n      jump\t// in\n    tag_13:\n      mload(0x40)\n      dup1\n      swap2\n      sub\n      swap1\n      return\n        /* \"WTF/wtf_6.sol\":488:677  function fStorage() public{\r... */\n    tag_5:\n      tag_15\n      tag_16\n      jump\t// in\n    tag_15:\n      stop\n        /* \"WTF/wtf_6.sol\":217:419  function fCalldata(uint[] calldata _x) public pure returns(uint[] memory){\r... */\n    tag_6:\n      tag_17\n      0x04\n      dup1\n      calldatasize\n      sub\n      dup2\n      add\n      swap1\n      tag_18\n      swap2\n      swap1\n      tag_19\n      jump\t// in\n    tag_18:\n      tag_20\n      jump\t// in\n    tag_17:\n      mload(0x40)\n      tag_21\n      swap2\n      swap1\n      tag_22\n      jump\t// in\n    tag_21:\n      mload(0x40)\n      dup1\n      swap2\n      sub\n      swap1\n      return\n        /* \"WTF/wtf_6.sol\":691:969  function fMemory() public view{\r... */\n    tag_8:\n        /* \"WTF/wtf_6.sol\":817:838  uint[] memory xMemory */\n      0x00\n        /* \"WTF/wtf_6.sol\":841:842  x */\n      dup1\n        /* \"WTF/wtf_6.sol\":817:842  uint[] memory xMemory = x */\n      dup1\n      sload\n      dup1\n      0x20\n      mul\n      0x20\n      add\n      mload(0x40)\n      swap1\n      dup2\n      add\n      0x40\n      mstore\n      dup1\n      swap3\n      swap2\n      swap1\n      dup2\n      dup2\n      mstore\n      0x20\n      add\n      dup3\n      dup1\n      sload\n      dup1\n      iszero\n      tag_24\n      jumpi\n      0x20\n      mul\n      dup3\n      add\n      swap2\n      swap1\n      0x00\n      mstore\n      keccak256(0x00, 0x20)\n      swap1\n    tag_25:\n      dup2\n      sload\n      dup2\n      mstore\n      0x20\n      add\n      swap1\n      0x01\n      add\n      swap1\n      dup1\n      dup4\n      gt\n      tag_25\n      jumpi\n    tag_24:\n      pop\n      pop\n      pop\n      pop\n      pop\n      swap1\n      pop\n        /* \"WTF/wtf_6.sol\":866:869  100 */\n      0x64\n        /* \"WTF/wtf_6.sol\":853:860  xMemory */\n      dup2\n        /* \"WTF/wtf_6.sol\":861:862  0 */\n      0x00\n        /* \"WTF/wtf_6.sol\":853:863  xMemory[0] */\n      dup2\n      mload\n      dup2\n      lt\n      tag_26\n      jumpi\n      tag_27\n      tag_28\n      jump\t// in\n    tag_27:\n    tag_26:\n      0x20\n      mul\n      0x20\n      add\n      add\n        /* \"WTF/wtf_6.sol\":853:869  xMemory[0] = 100 */\n      dup2\n      dup2\n      mstore\n      pop\n      pop\n        /* \"WTF/wtf_6.sol\":893:896  200 */\n      0xc8\n        /* \"WTF/wtf_6.sol\":880:887  xMemory */\n      dup2\n        /* \"WTF/wtf_6.sol\":888:889  1 */\n      0x01\n        /* \"WTF/wtf_6.sol\":880:890  xMemory[1] */\n      dup2\n      mload\n      dup2\n      lt\n      tag_29\n      jumpi\n      tag_30\n      tag_28\n      jump\t// in\n    tag_30:\n    tag_29:\n      0x20\n      mul\n      0x20\n      add\n      add\n        /* \"WTF/wtf_6.sol\":880:896  xMemory[1] = 200 */\n      dup2\n      dup2\n      mstore\n      pop\n      pop\n        /* \"WTF/wtf_6.sol\":907:929  uint[] memory xMemory2 */\n      0x00\n        /* \"WTF/wtf_6.sol\":932:933  x */\n      dup1\n        /* \"WTF/wtf_6.sol\":907:933  uint[] memory xMemory2 = x */\n      dup1\n      sload\n      dup1\n      0x20\n      mul\n      0x20\n      add\n      mload(0x40)\n      swap1\n      dup2\n      add\n      0x40\n      mstore\n      dup1\n      swap3\n      swap2\n      swap1\n      dup2\n      dup2\n      mstore\n      0x20\n      add\n      dup3\n      dup1\n      sload\n      dup1\n      iszero\n      tag_31\n      jumpi\n      0x20\n      mul\n      dup3\n      add\n      swap2\n      swap1\n      0x00\n      mstore\n      keccak256(0x00, 0x20)\n      swap1\n    tag_32:\n      dup2\n      sload\n      dup2\n      mstore\n      0x20\n      add\n      swap1\n      0x01\n      add\n      swap1\n      dup1\n      dup4\n      gt\n      tag_32\n      jumpi\n    tag_31:\n      pop\n      pop\n      pop\n      pop\n      pop\n      swap1\n      pop\n        /* \"WTF/wtf_6.sol\":958:961  300 */\n      0x012c\n        /* \"WTF/wtf_6.sol\":944:952  xMemory2 */\n      dup2\n        /* \"WTF/wtf_6.sol\":953:954  0 */\n      0x00\n        /* \"WTF/wtf_6.sol\":944:955  xMemory2[0] */\n      dup2\n      mload\n      dup2\n      lt\n      tag_33\n      jumpi\n      tag_34\n      tag_28\n      jump\t// in\n    tag_34:\n    tag_33:\n      0x20\n      mul\n      0x20\n      add\n      add\n        /* \"WTF/wtf_6.sol\":944:961  xMemory2[0] = 300 */\n      dup2\n      dup2\n      mstore\n      pop\n      pop\n        /* \"WTF/wtf_6.sol\":721:969  {\r... */\n      pop\n      pop\n        /* \"WTF/wtf_6.sol\":691:969  function fMemory() public view{\r... */\n      jump\t// out\n        /* \"WTF/wtf_6.sol\":427:452  uint[] public x = [1,2,3] */\n    tag_12:\n      0x00\n      dup2\n      dup2\n      sload\n      dup2\n      lt\n      tag_35\n      jumpi\n      0x00\n      dup1\n      revert\n    tag_35:\n      swap1\n      0x00\n      mstore\n      keccak256(0x00, 0x20)\n      add\n      0x00\n      swap2\n      pop\n      swap1\n      pop\n      sload\n      dup2\n      jump\t// out\n        /* \"WTF/wtf_6.sol\":488:677  function fStorage() public{\r... */\n    tag_16:\n        /* \"WTF/wtf_6.sol\":614:637  uint[] storage xStorage */\n      0x00\n        /* \"WTF/wtf_6.sol\":666:669  100 */\n      0x64\n        /* \"WTF/wtf_6.sol\":652:660  xStorage */\n      dup2\n        /* \"WTF/wtf_6.sol\":661:662  0 */\n      0x00\n        /* \"WTF/wtf_6.sol\":652:663  xStorage[0] */\n      dup2\n      sload\n      dup2\n      lt\n      tag_38\n      jumpi\n      tag_39\n      tag_28\n      jump\t// in\n    tag_39:\n    tag_38:\n      swap1\n      0x00\n      mstore\n      keccak256(0x00, 0x20)\n      add\n        /* \"WTF/wtf_6.sol\":652:669  xStorage[0] = 100 */\n      dup2\n      swap1\n      sstore\n      pop\n        /* \"WTF/wtf_6.sol\":514:677  {\r... */\n      pop\n        /* \"WTF/wtf_6.sol\":488:677  function fStorage() public{\r... */\n      jump\t// out\n        /* \"WTF/wtf_6.sol\":217:419  function fCalldata(uint[] calldata _x) public pure returns(uint[] memory){\r... */\n    tag_20:\n        /* \"WTF/wtf_6.sol\":276:289  uint[] memory */\n      0x60\n        /* \"WTF/wtf_6.sol\":408:410  _x */\n      dup3\n      dup3\n        /* \"WTF/wtf_6.sol\":401:411  return(_x) */\n      dup1\n      dup1\n      0x20\n      mul\n      0x20\n      add\n      mload(0x40)\n      swap1\n      dup2\n      add\n      0x40\n      mstore\n      dup1\n      swap4\n      swap3\n      swap2\n      swap1\n      dup2\n      dup2\n      mstore\n      0x20\n      add\n      dup4\n      dup4\n      0x20\n      mul\n      dup1\n      dup3\n      dup5\n      calldatacopy\n      0x00\n      dup2\n      dup5\n      add\n      mstore\n      not(0x1f)\n      0x1f\n      dup3\n      add\n      and\n      swap1\n      pop\n      dup1\n      dup4\n      add\n      swap3\n      pop\n      pop\n      pop\n      pop\n      pop\n      pop\n      pop\n      swap1\n      pop\n        /* \"WTF/wtf_6.sol\":217:419  function fCalldata(uint[] calldata _x) public pure returns(uint[] memory){\r... */\n      swap3\n      swap2\n      pop\n      pop\n      jump\t// out\n        /* \"#utility.yul\":24:592   */\n    tag_43:\n        /* \"#utility.yul\":97:105   */\n      0x00\n        /* \"#utility.yul\":107:113   */\n      dup1\n        /* \"#utility.yul\":157:160   */\n      dup4\n        /* \"#utility.yul\":150:154   */\n      0x1f\n        /* \"#utility.yul\":142:148   */\n      dup5\n        /* \"#utility.yul\":138:155   */\n      add\n        /* \"#utility.yul\":134:161   */\n      slt\n        /* \"#utility.yul\":124:246   */\n      tag_45\n      jumpi\n        /* \"#utility.yul\":165:244   */\n      tag_46\n      tag_47\n      jump\t// in\n    tag_46:\n        /* \"#utility.yul\":124:246   */\n    tag_45:\n        /* \"#utility.yul\":278:284   */\n      dup3\n        /* \"#utility.yul\":265:285   */\n      calldataload\n        /* \"#utility.yul\":255:285   */\n      swap1\n      pop\n        /* \"#utility.yul\":308:326   */\n      0xffffffffffffffff\n        /* \"#utility.yul\":300:306   */\n      dup2\n        /* \"#utility.yul\":297:327   */\n      gt\n        /* \"#utility.yul\":294:411   */\n      iszero\n      tag_48\n      jumpi\n        /* \"#utility.yul\":330:409   */\n      tag_49\n      tag_50\n      jump\t// in\n    tag_49:\n        /* \"#utility.yul\":294:411   */\n    tag_48:\n        /* \"#utility.yul\":444:448   */\n      0x20\n        /* \"#utility.yul\":436:442   */\n      dup4\n        /* \"#utility.yul\":432:449   */\n      add\n        /* \"#utility.yul\":420:449   */\n      swap2\n      pop\n        /* \"#utility.yul\":498:501   */\n      dup4\n        /* \"#utility.yul\":490:494   */\n      0x20\n        /* \"#utility.yul\":482:488   */\n      dup3\n        /* \"#utility.yul\":478:495   */\n      mul\n        /* \"#utility.yul\":468:476   */\n      dup4\n        /* \"#utility.yul\":464:496   */\n      add\n        /* \"#utility.yul\":461:502   */\n      gt\n        /* \"#utility.yul\":458:586   */\n      iszero\n      tag_51\n      jumpi\n        /* \"#utility.yul\":505:584   */\n      tag_52\n      tag_53\n      jump\t// in\n    tag_52:\n        /* \"#utility.yul\":458:586   */\n    tag_51:\n        /* \"#utility.yul\":24:592   */\n      swap3\n      pop\n      swap3\n      swap1\n      pop\n      jump\t// out\n        /* \"#utility.yul\":598:737   */\n    tag_54:\n        /* \"#utility.yul\":644:649   */\n      0x00\n        /* \"#utility.yul\":682:688   */\n      dup2\n        /* \"#utility.yul\":669:689   */\n      calldataload\n        /* \"#utility.yul\":660:689   */\n      swap1\n      pop\n        /* \"#utility.yul\":698:731   */\n      tag_56\n        /* \"#utility.yul\":725:730   */\n      dup2\n        /* \"#utility.yul\":698:731   */\n      tag_57\n      jump\t// in\n    tag_56:\n        /* \"#utility.yul\":598:737   */\n      swap3\n      swap2\n      pop\n      pop\n      jump\t// out\n        /* \"#utility.yul\":743:1302   */\n    tag_19:\n        /* \"#utility.yul\":829:835   */\n      0x00\n        /* \"#utility.yul\":837:843   */\n      dup1\n        /* \"#utility.yul\":886:888   */\n      0x20\n        /* \"#utility.yul\":874:883   */\n      dup4\n        /* \"#utility.yul\":865:872   */\n      dup6\n        /* \"#utility.yul\":861:884   */\n      sub\n        /* \"#utility.yul\":857:889   */\n      slt\n        /* \"#utility.yul\":854:973   */\n      iszero\n      tag_59\n      jumpi\n        /* \"#utility.yul\":892:971   */\n      tag_60\n      tag_61\n      jump\t// in\n    tag_60:\n        /* \"#utility.yul\":854:973   */\n    tag_59:\n        /* \"#utility.yul\":1040:1041   */\n      0x00\n        /* \"#utility.yul\":1029:1038   */\n      dup4\n        /* \"#utility.yul\":1025:1042   */\n      add\n        /* \"#utility.yul\":1012:1043   */\n      calldataload\n        /* \"#utility.yul\":1070:1088   */\n      0xffffffffffffffff\n        /* \"#utility.yul\":1062:1068   */\n      dup2\n        /* \"#utility.yul\":1059:1089   */\n      gt\n        /* \"#utility.yul\":1056:1173   */\n      iszero\n      tag_62\n      jumpi\n        /* \"#utility.yul\":1092:1171   */\n      tag_63\n      tag_64\n      jump\t// in\n    tag_63:\n        /* \"#utility.yul\":1056:1173   */\n    tag_62:\n        /* \"#utility.yul\":1205:1285   */\n      tag_65\n        /* \"#utility.yul\":1277:1284   */\n      dup6\n        /* \"#utility.yul\":1268:1274   */\n      dup3\n        /* \"#utility.yul\":1257:1266   */\n      dup7\n        /* \"#utility.yul\":1253:1275   */\n      add\n        /* \"#utility.yul\":1205:1285   */\n      tag_43\n      jump\t// in\n    tag_65:\n        /* \"#utility.yul\":1187:1285   */\n      swap3\n      pop\n      swap3\n      pop\n        /* \"#utility.yul\":983:1295   */\n      pop\n        /* \"#utility.yul\":743:1302   */\n      swap3\n      pop\n      swap3\n      swap1\n      pop\n      jump\t// out\n        /* \"#utility.yul\":1308:1637   */\n    tag_11:\n        /* \"#utility.yul\":1367:1373   */\n      0x00\n        /* \"#utility.yul\":1416:1418   */\n      0x20\n        /* \"#utility.yul\":1404:1413   */\n      dup3\n        /* \"#utility.yul\":1395:1402   */\n      dup5\n        /* \"#utility.yul\":1391:1414   */\n      sub\n        /* \"#utility.yul\":1387:1419   */\n      slt\n        /* \"#utility.yul\":1384:1503   */\n      iszero\n      tag_67\n      jumpi\n        /* \"#utility.yul\":1422:1501   */\n      tag_68\n      tag_61\n      jump\t// in\n    tag_68:\n        /* \"#utility.yul\":1384:1503   */\n    tag_67:\n        /* \"#utility.yul\":1542:1543   */\n      0x00\n        /* \"#utility.yul\":1567:1620   */\n      tag_69\n        /* \"#utility.yul\":1612:1619   */\n      dup5\n        /* \"#utility.yul\":1603:1609   */\n      dup3\n        /* \"#utility.yul\":1592:1601   */\n      dup6\n        /* \"#utility.yul\":1588:1610   */\n      add\n        /* \"#utility.yul\":1567:1620   */\n      tag_54\n      jump\t// in\n    tag_69:\n        /* \"#utility.yul\":1557:1620   */\n      swap2\n      pop\n        /* \"#utility.yul\":1513:1630   */\n      pop\n        /* \"#utility.yul\":1308:1637   */\n      swap3\n      swap2\n      pop\n      pop\n      jump\t// out\n        /* \"#utility.yul\":1643:1822   */\n    tag_70:\n        /* \"#utility.yul\":1712:1722   */\n      0x00\n        /* \"#utility.yul\":1733:1779   */\n      tag_72\n        /* \"#utility.yul\":1775:1778   */\n      dup4\n        /* \"#utility.yul\":1767:1773   */\n      dup4\n        /* \"#utility.yul\":1733:1779   */\n      tag_73\n      jump\t// in\n    tag_72:\n        /* \"#utility.yul\":1811:1815   */\n      0x20\n        /* \"#utility.yul\":1806:1809   */\n      dup4\n        /* \"#utility.yul\":1802:1816   */\n      add\n        /* \"#utility.yul\":1788:1816   */\n      swap1\n      pop\n        /* \"#utility.yul\":1643:1822   */\n      swap3\n      swap2\n      pop\n      pop\n      jump\t// out\n        /* \"#utility.yul\":1858:2590   */\n    tag_74:\n        /* \"#utility.yul\":1977:1980   */\n      0x00\n        /* \"#utility.yul\":2006:2060   */\n      tag_76\n        /* \"#utility.yul\":2054:2059   */\n      dup3\n        /* \"#utility.yul\":2006:2060   */\n      tag_77\n      jump\t// in\n    tag_76:\n        /* \"#utility.yul\":2076:2162   */\n      tag_78\n        /* \"#utility.yul\":2155:2161   */\n      dup2\n        /* \"#utility.yul\":2150:2153   */\n      dup6\n        /* \"#utility.yul\":2076:2162   */\n      tag_79\n      jump\t// in\n    tag_78:\n        /* \"#utility.yul\":2069:2162   */\n      swap4\n      pop\n        /* \"#utility.yul\":2186:2242   */\n      tag_80\n        /* \"#utility.yul\":2236:2241   */\n      dup4\n        /* \"#utility.yul\":2186:2242   */\n      tag_81\n      jump\t// in\n    tag_80:\n        /* \"#utility.yul\":2265:2272   */\n      dup1\n        /* \"#utility.yul\":2296:2297   */\n      0x00\n        /* \"#utility.yul\":2281:2565   */\n    tag_82:\n        /* \"#utility.yul\":2306:2312   */\n      dup4\n        /* \"#utility.yul\":2303:2304   */\n      dup2\n        /* \"#utility.yul\":2300:2313   */\n      lt\n        /* \"#utility.yul\":2281:2565   */\n      iszero\n      tag_84\n      jumpi\n        /* \"#utility.yul\":2382:2388   */\n      dup2\n        /* \"#utility.yul\":2376:2389   */\n      mload\n        /* \"#utility.yul\":2409:2472   */\n      tag_85\n        /* \"#utility.yul\":2468:2471   */\n      dup9\n        /* \"#utility.yul\":2453:2466   */\n      dup3\n        /* \"#utility.yul\":2409:2472   */\n      tag_70\n      jump\t// in\n    tag_85:\n        /* \"#utility.yul\":2402:2472   */\n      swap8\n      pop\n        /* \"#utility.yul\":2495:2555   */\n      tag_86\n        /* \"#utility.yul\":2548:2554   */\n      dup4\n        /* \"#utility.yul\":2495:2555   */\n      tag_87\n      jump\t// in\n    tag_86:\n        /* \"#utility.yul\":2485:2555   */\n      swap3\n      pop\n        /* \"#utility.yul\":2341:2565   */\n      pop\n        /* \"#utility.yul\":2328:2329   */\n      0x01\n        /* \"#utility.yul\":2325:2326   */\n      dup2\n        /* \"#utility.yul\":2321:2330   */\n      add\n        /* \"#utility.yul\":2316:2330   */\n      swap1\n      pop\n        /* \"#utility.yul\":2281:2565   */\n      jump(tag_82)\n    tag_84:\n        /* \"#utility.yul\":2285:2299   */\n      pop\n        /* \"#utility.yul\":2581:2584   */\n      dup6\n        /* \"#utility.yul\":2574:2584   */\n      swap4\n      pop\n        /* \"#utility.yul\":1982:2590   */\n      pop\n      pop\n      pop\n        /* \"#utility.yul\":1858:2590   */\n      swap3\n      swap2\n      pop\n      pop\n      jump\t// out\n        /* \"#utility.yul\":2596:2704   */\n    tag_73:\n        /* \"#utility.yul\":2673:2697   */\n      tag_89\n        /* \"#utility.yul\":2691:2696   */\n      dup2\n        /* \"#utility.yul\":2673:2697   */\n      tag_90\n      jump\t// in\n    tag_89:\n        /* \"#utility.yul\":2668:2671   */\n      dup3\n        /* \"#utility.yul\":2661:2698   */\n      mstore\n        /* \"#utility.yul\":2596:2704   */\n      pop\n      pop\n      jump\t// out\n        /* \"#utility.yul\":2710:2828   */\n    tag_91:\n        /* \"#utility.yul\":2797:2821   */\n      tag_93\n        /* \"#utility.yul\":2815:2820   */\n      dup2\n        /* \"#utility.yul\":2797:2821   */\n      tag_90\n      jump\t// in\n    tag_93:\n        /* \"#utility.yul\":2792:2795   */\n      dup3\n        /* \"#utility.yul\":2785:2822   */\n      mstore\n        /* \"#utility.yul\":2710:2828   */\n      pop\n      pop\n      jump\t// out\n        /* \"#utility.yul\":2834:3207   */\n    tag_22:\n        /* \"#utility.yul\":2977:2981   */\n      0x00\n        /* \"#utility.yul\":3015:3017   */\n      0x20\n        /* \"#utility.yul\":3004:3013   */\n      dup3\n        /* \"#utility.yul\":3000:3018   */\n      add\n        /* \"#utility.yul\":2992:3018   */\n      swap1\n      pop\n        /* \"#utility.yul\":3064:3073   */\n      dup2\n        /* \"#utility.yul\":3058:3062   */\n      dup2\n        /* \"#utility.yul\":3054:3074   */\n      sub\n        /* \"#utility.yul\":3050:3051   */\n      0x00\n        /* \"#utility.yul\":3039:3048   */\n      dup4\n        /* \"#utility.yul\":3035:3052   */\n      add\n        /* \"#utility.yul\":3028:3075   */\n      mstore\n        /* \"#utility.yul\":3092:3200   */\n      tag_95\n        /* \"#utility.yul\":3195:3199   */\n      dup2\n        /* \"#utility.yul\":3186:3192   */\n      dup5\n        /* \"#utility.yul\":3092:3200   */\n      tag_74\n      jump\t// in\n    tag_95:\n        /* \"#utility.yul\":3084:3200   */\n      swap1\n      pop\n        /* \"#utility.yul\":2834:3207   */\n      swap3\n      swap2\n      pop\n      pop\n      jump\t// out\n        /* \"#utility.yul\":3213:3435   */\n    tag_14:\n        /* \"#utility.yul\":3306:3310   */\n      0x00\n        /* \"#utility.yul\":3344:3346   */\n      0x20\n        /* \"#utility.yul\":3333:3342   */\n      dup3\n        /* \"#utility.yul\":3329:3347   */\n      add\n        /* \"#utility.yul\":3321:3347   */\n      swap1\n      pop\n        /* \"#utility.yul\":3357:3428   */\n      tag_97\n        /* \"#utility.yul\":3425:3426   */\n      0x00\n        /* \"#utility.yul\":3414:3423   */\n      dup4\n        /* \"#utility.yul\":3410:3427   */\n      add\n        /* \"#utility.yul\":3401:3407   */\n      dup5\n        /* \"#utility.yul\":3357:3428   */\n      tag_91\n      jump\t// in\n    tag_97:\n        /* \"#utility.yul\":3213:3435   */\n      swap3\n      swap2\n      pop\n      pop\n      jump\t// out\n        /* \"#utility.yul\":3522:3654   */\n    tag_81:\n        /* \"#utility.yul\":3589:3593   */\n      0x00\n        /* \"#utility.yul\":3612:3615   */\n      dup2\n        /* \"#utility.yul\":3604:3615   */\n      swap1\n      pop\n        /* \"#utility.yul\":3642:3646   */\n      0x20\n        /* \"#utility.yul\":3637:3640   */\n      dup3\n        /* \"#utility.yul\":3633:3647   */\n      add\n        /* \"#utility.yul\":3625:3647   */\n      swap1\n      pop\n        /* \"#utility.yul\":3522:3654   */\n      swap2\n      swap1\n      pop\n      jump\t// out\n        /* \"#utility.yul\":3660:3774   */\n    tag_77:\n        /* \"#utility.yul\":3727:3733   */\n      0x00\n        /* \"#utility.yul\":3761:3766   */\n      dup2\n        /* \"#utility.yul\":3755:3767   */\n      mload\n        /* \"#utility.yul\":3745:3767   */\n      swap1\n      pop\n        /* \"#utility.yul\":3660:3774   */\n      swap2\n      swap1\n      pop\n      jump\t// out\n        /* \"#utility.yul\":3780:3893   */\n    tag_87:\n        /* \"#utility.yul\":3850:3854   */\n      0x00\n        /* \"#utility.yul\":3882:3886   */\n      0x20\n        /* \"#utility.yul\":3877:3880   */\n      dup3\n        /* \"#utility.yul\":3873:3887   */\n      add\n        /* \"#utility.yul\":3865:3887   */\n      swap1\n      pop\n        /* \"#utility.yul\":3780:3893   */\n      swap2\n      swap1\n      pop\n      jump\t// out\n        /* \"#utility.yul\":3899:4083   */\n    tag_79:\n        /* \"#utility.yul\":3998:4009   */\n      0x00\n        /* \"#utility.yul\":4032:4038   */\n      dup3\n        /* \"#utility.yul\":4027:4030   */\n      dup3\n        /* \"#utility.yul\":4020:4039   */\n      mstore\n        /* \"#utility.yul\":4072:4076   */\n      0x20\n        /* \"#utility.yul\":4067:4070   */\n      dup3\n        /* \"#utility.yul\":4063:4077   */\n      add\n        /* \"#utility.yul\":4048:4077   */\n      swap1\n      pop\n        /* \"#utility.yul\":3899:4083   */\n      swap3\n      swap2\n      pop\n      pop\n      jump\t// out\n        /* \"#utility.yul\":4089:4166   */\n    tag_90:\n        /* \"#utility.yul\":4126:4133   */\n      0x00\n        /* \"#utility.yul\":4155:4160   */\n      dup2\n        /* \"#utility.yul\":4144:4160   */\n      swap1\n      pop\n        /* \"#utility.yul\":4089:4166   */\n      swap2\n      swap1\n      pop\n      jump\t// out\n        /* \"#utility.yul\":4172:4352   */\n    tag_28:\n        /* \"#utility.yul\":4220:4297   */\n      0x4e487b7100000000000000000000000000000000000000000000000000000000\n        /* \"#utility.yul\":4217:4218   */\n      0x00\n        /* \"#utility.yul\":4210:4298   */\n      mstore\n        /* \"#utility.yul\":4317:4321   */\n      0x32\n        /* \"#utility.yul\":4314:4315   */\n      0x04\n        /* \"#utility.yul\":4307:4322   */\n      mstore\n        /* \"#utility.yul\":4341:4345   */\n      0x24\n        /* \"#utility.yul\":4338:4339   */\n      0x00\n        /* \"#utility.yul\":4331:4346   */\n      revert\n        /* \"#utility.yul\":4358:4475   */\n    tag_50:\n        /* \"#utility.yul\":4467:4468   */\n      0x00\n        /* \"#utility.yul\":4464:4465   */\n      dup1\n        /* \"#utility.yul\":4457:4469   */\n      revert\n        /* \"#utility.yul\":4481:4598   */\n    tag_47:\n        /* \"#utility.yul\":4590:4591   */\n      0x00\n        /* \"#utility.yul\":4587:4588   */\n      dup1\n        /* \"#utility.yul\":4580:4592   */\n      revert\n        /* \"#utility.yul\":4604:4721   */\n    tag_53:\n        /* \"#utility.yul\":4713:4714   */\n      0x00\n        /* \"#utility.yul\":4710:4711   */\n      dup1\n        /* \"#utility.yul\":4703:4715   */\n      revert\n        /* \"#utility.yul\":4727:4844   */\n    tag_64:\n        /* \"#utility.yul\":4836:4837   */\n      0x00\n        /* \"#utility.yul\":4833:4834   */\n      dup1\n        /* \"#utility.yul\":4826:4838   */\n      revert\n        /* \"#utility.yul\":4850:4967   */\n    tag_61:\n        /* \"#utility.yul\":4959:4960   */\n      0x00\n        /* \"#utility.yul\":4956:4957   */\n      dup1\n        /* \"#utility.yul\":4949:4961   */\n      revert\n        /* \"#utility.yul\":4973:5095   */\n    tag_57:\n        /* \"#utility.yul\":5046:5070   */\n      tag_112\n        /* \"#utility.yul\":5064:5069   */\n      dup2\n        /* \"#utility.yul\":5046:5070   */\n      tag_90\n      jump\t// in\n    tag_112:\n        /* \"#utility.yul\":5039:5044   */\n      dup2\n        /* \"#utility.yul\":5036:5071   */\n      eq\n        /* \"#utility.yul\":5026:5089   */\n      tag_113\n      jumpi\n        /* \"#utility.yul\":5085:5086   */\n      0x00\n        /* \"#utility.yul\":5082:5083   */\n      dup1\n        /* \"#utility.yul\":5075:5087   */\n      revert\n        /* \"#utility.yul\":5026:5089   */\n    tag_113:\n        /* \"#utility.yul\":4973:5095   */\n      pop\n      jump\t// out\n\n    auxdata: 0xa26469706673582212209e14fe732e221764bdc0d63f7549f87bb24288a8e3a57df08ee9b87a403b08fa64736f6c63430008070033\n}\n",
				"bytecode": {
					"linkReferences": {},
					"object": "60806040526040518060600160405280600160ff168152602001600260ff168152602001600360ff16815250600090600361003b92919061004e565b5034801561004857600080fd5b506100bd565b82805482825590600052602060002090810192821561008f579160200282015b8281111561008e578251829060ff1690559160200191906001019061006e565b5b50905061009c91906100a0565b5090565b5b808211156100b95760008160009055506001016100a1565b5090565b6104ff806100cc6000396000f3fe608060405234801561001057600080fd5b506004361061004c5760003560e01c806320028990146100515780633f4263ef1461005b5780636a8d1e081461008b5780639b1a379c14610095575b600080fd5b6100596100c5565b005b61007560048036038101906100709190610329565b6101d8565b604051610082919061040c565b60405180910390f35b6100936101fc565b005b6100af60048036038101906100aa91906102dc565b610225565b6040516100bc91906103ea565b60405180910390f35b60008080548060200260200160405190810160405280929190818152602001828054801561011257602002820191906000526020600020905b8154815260200190600101908083116100fe575b5050505050905060648160008151811061012f5761012e61046a565b5b60200260200101818152505060c8816001815181106101515761015061046a565b5b6020026020010181815250506000808054806020026020016040519081016040528092919081815260200182805480156101aa57602002820191906000526020600020905b815481526020019060010190808311610196575b5050505050905061012c816000815181106101c8576101c761046a565b5b6020026020010181815250505050565b600081815481106101e857600080fd5b906000526020600020016000915090505481565b60006064816000815481106102145761021361046a565b5b906000526020600020018190555050565b6060828280806020026020016040519081016040528093929190818152602001838360200280828437600081840152601f19601f82011690508083019250505050505050905092915050565b60008083601f8401126102875761028661049e565b5b8235905067ffffffffffffffff8111156102a4576102a3610499565b5b6020830191508360208202830111156102c0576102bf6104a3565b5b9250929050565b6000813590506102d6816104b2565b92915050565b600080602083850312156102f3576102f26104ad565b5b600083013567ffffffffffffffff811115610311576103106104a8565b5b61031d85828601610271565b92509250509250929050565b60006020828403121561033f5761033e6104ad565b5b600061034d848285016102c7565b91505092915050565b600061036283836103cc565b60208301905092915050565b600061037982610437565b610383818561044f565b935061038e83610427565b8060005b838110156103bf5781516103a68882610356565b97506103b183610442565b925050600181019050610392565b5085935050505092915050565b6103d581610460565b82525050565b6103e481610460565b82525050565b60006020820190508181036000830152610404818461036e565b905092915050565b600060208201905061042160008301846103db565b92915050565b6000819050602082019050919050565b600081519050919050565b6000602082019050919050565b600082825260208201905092915050565b6000819050919050565b7f4e487b7100000000000000000000000000000000000000000000000000000000600052603260045260246000fd5b600080fd5b600080fd5b600080fd5b600080fd5b600080fd5b6104bb81610460565b81146104c657600080fd5b5056fea26469706673582212209e14fe732e221764bdc0d63f7549f87bb24288a8e3a57df08ee9b87a403b08fa64736f6c63430008070033",
					"opcodes": "PUSH1 0x80 PUSH1 0x40 MSTORE PUSH1 0x40 MLOAD DUP1 PUSH1 0x60 ADD PUSH1 0x40 MSTORE DUP1 PUSH1 0x1 PUSH1 0xFF AND DUP2 MSTORE PUSH1 0x20 ADD PUSH1 0x2 PUSH1 0xFF AND DUP2 MSTORE PUSH1 0x20 ADD PUSH1 0x3 PUSH1 0xFF AND DUP2 MSTORE POP PUSH1 0x0 SWAP1 PUSH1 0x3 PUSH2 0x3B SWAP3 SWAP2 SWAP1 PUSH2 0x4E JUMP JUMPDEST POP CALLVALUE DUP1 ISZERO PUSH2 0x48 JUMPI PUSH1 0x0 DUP1 REVERT JUMPDEST POP PUSH2 0xBD JUMP JUMPDEST DUP3 DUP1 SLOAD DUP3 DUP3 SSTORE SWAP1 PUSH1 0x0 MSTORE PUSH1 0x20 PUSH1 0x0 KECCAK256 SWAP1 DUP2 ADD SWAP3 DUP3 ISZERO PUSH2 0x8F JUMPI SWAP2 PUSH1 0x20 MUL DUP3 ADD JUMPDEST DUP3 DUP2 GT ISZERO PUSH2 0x8E JUMPI DUP3 MLOAD DUP3 SWAP1 PUSH1 0xFF AND SWAP1 SSTORE SWAP2 PUSH1 0x20 ADD SWAP2 SWAP1 PUSH1 0x1 ADD SWAP1 PUSH2 0x6E JUMP JUMPDEST JUMPDEST POP SWAP1 POP PUSH2 0x9C SWAP2 SWAP1 PUSH2 0xA0 JUMP JUMPDEST POP SWAP1 JUMP JUMPDEST JUMPDEST DUP1 DUP3 GT ISZERO PUSH2 0xB9 JUMPI PUSH1 0x0 DUP2 PUSH1 0x0 SWAP1 SSTORE POP PUSH1 0x1 ADD PUSH2 0xA1 JUMP JUMPDEST POP SWAP1 JUMP JUMPDEST PUSH2 0x4FF DUP1 PUSH2 0xCC PUSH1 0x0 CODECOPY PUSH1 0x0 RETURN INVALID PUSH1 0x80 PUSH1 0x40 MSTORE CALLVALUE DUP1 ISZERO PUSH2 0x10 JUMPI PUSH1 0x0 DUP1 REVERT JUMPDEST POP PUSH1 0x4 CALLDATASIZE LT PUSH2 0x4C JUMPI PUSH1 0x0 CALLDATALOAD PUSH1 0xE0 SHR DUP1 PUSH4 0x20028990 EQ PUSH2 0x51 JUMPI DUP1 PUSH4 0x3F4263EF EQ PUSH2 0x5B JUMPI DUP1 PUSH4 0x6A8D1E08 EQ PUSH2 0x8B JUMPI DUP1 PUSH4 0x9B1A379C EQ PUSH2 0x95 JUMPI JUMPDEST PUSH1 0x0 DUP1 REVERT JUMPDEST PUSH2 0x59 PUSH2 0xC5 JUMP JUMPDEST STOP JUMPDEST PUSH2 0x75 PUSH1 0x4 DUP1 CALLDATASIZE SUB DUP2 ADD SWAP1 PUSH2 0x70 SWAP2 SWAP1 PUSH2 0x329 JUMP JUMPDEST PUSH2 0x1D8 JUMP JUMPDEST PUSH1 0x40 MLOAD PUSH2 0x82 SWAP2 SWAP1 PUSH2 0x40C JUMP JUMPDEST PUSH1 0x40 MLOAD DUP1 SWAP2 SUB SWAP1 RETURN JUMPDEST PUSH2 0x93 PUSH2 0x1FC JUMP JUMPDEST STOP JUMPDEST PUSH2 0xAF PUSH1 0x4 DUP1 CALLDATASIZE SUB DUP2 ADD SWAP1 PUSH2 0xAA SWAP2 SWAP1 PUSH2 0x2DC JUMP JUMPDEST PUSH2 0x225 JUMP JUMPDEST PUSH1 0x40 MLOAD PUSH2 0xBC SWAP2 SWAP1 PUSH2 0x3EA JUMP JUMPDEST PUSH1 0x40 MLOAD DUP1 SWAP2 SUB SWAP1 RETURN JUMPDEST PUSH1 0x0 DUP1 DUP1 SLOAD DUP1 PUSH1 0x20 MUL PUSH1 0x20 ADD PUSH1 0x40 MLOAD SWAP1 DUP2 ADD PUSH1 0x40 MSTORE DUP1 SWAP3 SWAP2 SWAP1 DUP2 DUP2 MSTORE PUSH1 0x20 ADD DUP3 DUP1 SLOAD DUP1 ISZERO PUSH2 0x112 JUMPI PUSH1 0x20 MUL DUP3 ADD SWAP2 SWAP1 PUSH1 0x0 MSTORE PUSH1 0x20 PUSH1 0x0 KECCAK256 SWAP1 JUMPDEST DUP2 SLOAD DUP2 MSTORE PUSH1 0x20 ADD SWAP1 PUSH1 0x1 ADD SWAP1 DUP1 DUP4 GT PUSH2 0xFE JUMPI JUMPDEST POP POP POP POP POP SWAP1 POP PUSH1 0x64 DUP2 PUSH1 0x0 DUP2 MLOAD DUP2 LT PUSH2 0x12F JUMPI PUSH2 0x12E PUSH2 0x46A JUMP JUMPDEST JUMPDEST PUSH1 0x20 MUL PUSH1 0x20 ADD ADD DUP2 DUP2 MSTORE POP POP PUSH1 0xC8 DUP2 PUSH1 0x1 DUP2 MLOAD DUP2 LT PUSH2 0x151 JUMPI PUSH2 0x150 PUSH2 0x46A JUMP JUMPDEST JUMPDEST PUSH1 0x20 MUL PUSH1 0x20 ADD ADD DUP2 DUP2 MSTORE POP POP PUSH1 0x0 DUP1 DUP1 SLOAD DUP1 PUSH1 0x20 MUL PUSH1 0x20 ADD PUSH1 0x40 MLOAD SWAP1 DUP2 ADD PUSH1 0x40 MSTORE DUP1 SWAP3 SWAP2 SWAP1 DUP2 DUP2 MSTORE PUSH1 0x20 ADD DUP3 DUP1 SLOAD DUP1 ISZERO PUSH2 0x1AA JUMPI PUSH1 0x20 MUL DUP3 ADD SWAP2 SWAP1 PUSH1 0x0 MSTORE PUSH1 0x20 PUSH1 0x0 KECCAK256 SWAP1 JUMPDEST DUP2 SLOAD DUP2 MSTORE PUSH1 0x20 ADD SWAP1 PUSH1 0x1 ADD SWAP1 DUP1 DUP4 GT PUSH2 0x196 JUMPI JUMPDEST POP POP POP POP POP SWAP1 POP PUSH2 0x12C DUP2 PUSH1 0x0 DUP2 MLOAD DUP2 LT PUSH2 0x1C8 JUMPI PUSH2 0x1C7 PUSH2 0x46A JUMP JUMPDEST JUMPDEST PUSH1 0x20 MUL PUSH1 0x20 ADD ADD DUP2 DUP2 MSTORE POP POP POP POP JUMP JUMPDEST PUSH1 0x0 DUP2 DUP2 SLOAD DUP2 LT PUSH2 0x1E8 JUMPI PUSH1 0x0 DUP1 REVERT JUMPDEST SWAP1 PUSH1 0x0 MSTORE PUSH1 0x20 PUSH1 0x0 KECCAK256 ADD PUSH1 0x0 SWAP2 POP SWAP1 POP SLOAD DUP2 JUMP JUMPDEST PUSH1 0x0 PUSH1 0x64 DUP2 PUSH1 0x0 DUP2 SLOAD DUP2 LT PUSH2 0x214 JUMPI PUSH2 0x213 PUSH2 0x46A JUMP JUMPDEST JUMPDEST SWAP1 PUSH1 0x0 MSTORE PUSH1 0x20 PUSH1 0x0 KECCAK256 ADD DUP2 SWAP1 SSTORE POP POP JUMP JUMPDEST PUSH1 0x60 DUP3 DUP3 DUP1 DUP1 PUSH1 0x20 MUL PUSH1 0x20 ADD PUSH1 0x40 MLOAD SWAP1 DUP2 ADD PUSH1 0x40 MSTORE DUP1 SWAP4 SWAP3 SWAP2 SWAP1 DUP2 DUP2 MSTORE PUSH1 0x20 ADD DUP4 DUP4 PUSH1 0x20 MUL DUP1 DUP3 DUP5 CALLDATACOPY PUSH1 0x0 DUP2 DUP5 ADD MSTORE PUSH1 0x1F NOT PUSH1 0x1F DUP3 ADD AND SWAP1 POP DUP1 DUP4 ADD SWAP3 POP POP POP POP POP POP POP SWAP1 POP SWAP3 SWAP2 POP POP JUMP JUMPDEST PUSH1 0x0 DUP1 DUP4 PUSH1 0x1F DUP5 ADD SLT PUSH2 0x287 JUMPI PUSH2 0x286 PUSH2 0x49E JUMP JUMPDEST JUMPDEST DUP3 CALLDATALOAD SWAP1 POP PUSH8 0xFFFFFFFFFFFFFFFF DUP2 GT ISZERO PUSH2 0x2A4 JUMPI PUSH2 0x2A3 PUSH2 0x499 JUMP JUMPDEST JUMPDEST PUSH1 0x20 DUP4 ADD SWAP2 POP DUP4 PUSH1 0x20 DUP3 MUL DUP4 ADD GT ISZERO PUSH2 0x2C0 JUMPI PUSH2 0x2BF PUSH2 0x4A3 JUMP JUMPDEST JUMPDEST SWAP3 POP SWAP3 SWAP1 POP JUMP JUMPDEST PUSH1 0x0 DUP2 CALLDATALOAD SWAP1 POP PUSH2 0x2D6 DUP2 PUSH2 0x4B2 JUMP JUMPDEST SWAP3 SWAP2 POP POP JUMP JUMPDEST PUSH1 0x0 DUP1 PUSH1 0x20 DUP4 DUP6 SUB SLT ISZERO PUSH2 0x2F3 JUMPI PUSH2 0x2F2 PUSH2 0x4AD JUMP JUMPDEST JUMPDEST PUSH1 0x0 DUP4 ADD CALLDATALOAD PUSH8 0xFFFFFFFFFFFFFFFF DUP2 GT ISZERO PUSH2 0x311 JUMPI PUSH2 0x310 PUSH2 0x4A8 JUMP JUMPDEST JUMPDEST PUSH2 0x31D DUP6 DUP3 DUP7 ADD PUSH2 0x271 JUMP JUMPDEST SWAP3 POP SWAP3 POP POP SWAP3 POP SWAP3 SWAP1 POP JUMP JUMPDEST PUSH1 0x0 PUSH1 0x20 DUP3 DUP5 SUB SLT ISZERO PUSH2 0x33F JUMPI PUSH2 0x33E PUSH2 0x4AD JUMP JUMPDEST JUMPDEST PUSH1 0x0 PUSH2 0x34D DUP5 DUP3 DUP6 ADD PUSH2 0x2C7 JUMP JUMPDEST SWAP2 POP POP SWAP3 SWAP2 POP POP JUMP JUMPDEST PUSH1 0x0 PUSH2 0x362 DUP4 DUP4 PUSH2 0x3CC JUMP JUMPDEST PUSH1 0x20 DUP4 ADD SWAP1 POP SWAP3 SWAP2 POP POP JUMP JUMPDEST PUSH1 0x0 PUSH2 0x379 DUP3 PUSH2 0x437 JUMP JUMPDEST PUSH2 0x383 DUP2 DUP6 PUSH2 0x44F JUMP JUMPDEST SWAP4 POP PUSH2 0x38E DUP4 PUSH2 0x427 JUMP JUMPDEST DUP1 PUSH1 0x0 JUMPDEST DUP4 DUP2 LT ISZERO PUSH2 0x3BF JUMPI DUP2 MLOAD PUSH2 0x3A6 DUP9 DUP3 PUSH2 0x356 JUMP JUMPDEST SWAP8 POP PUSH2 0x3B1 DUP4 PUSH2 0x442 JUMP JUMPDEST SWAP3 POP POP PUSH1 0x1 DUP2 ADD SWAP1 POP PUSH2 0x392 JUMP JUMPDEST POP DUP6 SWAP4 POP POP POP POP SWAP3 SWAP2 POP POP JUMP JUMPDEST PUSH2 0x3D5 DUP2 PUSH2 0x460 JUMP JUMPDEST DUP3 MSTORE POP POP JUMP JUMPDEST PUSH2 0x3E4 DUP2 PUSH2 0x460 JUMP JUMPDEST DUP3 MSTORE POP POP JUMP JUMPDEST PUSH1 0x0 PUSH1 0x20 DUP3 ADD SWAP1 POP DUP2 DUP2 SUB PUSH1 0x0 DUP4 ADD MSTORE PUSH2 0x404 DUP2 DUP5 PUSH2 0x36E JUMP JUMPDEST SWAP1 POP SWAP3 SWAP2 POP POP JUMP JUMPDEST PUSH1 0x0 PUSH1 0x20 DUP3 ADD SWAP1 POP PUSH2 0x421 PUSH1 0x0 DUP4 ADD DUP5 PUSH2 0x3DB JUMP JUMPDEST SWAP3 SWAP2 POP POP JUMP JUMPDEST PUSH1 0x0 DUP2 SWAP1 POP PUSH1 0x20 DUP3 ADD SWAP1 POP SWAP2 SWAP1 POP JUMP JUMPDEST PUSH1 0x0 DUP2 MLOAD SWAP1 POP SWAP2 SWAP1 POP JUMP JUMPDEST PUSH1 0x0 PUSH1 0x20 DUP3 ADD SWAP1 POP SWAP2 SWAP1 POP JUMP JUMPDEST PUSH1 0x0 DUP3 DUP3 MSTORE PUSH1 0x20 DUP3 ADD SWAP1 POP SWAP3 SWAP2 POP POP JUMP JUMPDEST PUSH1 0x0 DUP2 SWAP1 POP SWAP2 SWAP1 POP JUMP JUMPDEST PUSH32 0x4E487B7100000000000000000000000000000000000000000000000000000000 PUSH1 0x0 MSTORE PUSH1 0x32 PUSH1 0x4 MSTORE PUSH1 0x24 PUSH1 0x0 REVERT JUMPDEST PUSH1 0x0 DUP1 REVERT JUMPDEST PUSH1 0x0 DUP1 REVERT JUMPDEST PUSH1 0x0 DUP1 REVERT JUMPDEST PUSH1 0x0 DUP1 REVERT JUMPDEST PUSH1 0x0 DUP1 REVERT JUMPDEST PUSH2 0x4BB DUP2 PUSH2 0x460 JUMP JUMPDEST DUP2 EQ PUSH2 0x4C6 JUMPI PUSH1 0x0 DUP1 REVERT JUMPDEST POP JUMP INVALID LOG2 PUSH5 0x6970667358 0x22 SLT KECCAK256 SWAP15 EQ INVALID PUSH20 0x2E221764BDC0D63F7549F87BB24288A8E3A57DF0 DUP15 0xE9 0xB8 PUSH27 0x403B08FA64736F6C63430008070033000000000000000000000000 "
				},
				"gasEstimates": {
					"creation": {
						"codeDepositCost": "255800",
						"executionCost": "infinite",
						"totalCost": "infinite"
					},
					"external": {
						"fCalldata(uint256[])": "infinite",
						"fMemory()": "infinite",
						"fStorage()": "24465",
						"x(uint256)": "infinite"
					}
				},
				"methodIdentifiers": {
					"fCalldata(uint256[])": "9b1a379c",
					"fMemory()": "20028990",
					"fStorage()": "6a8d1e08",
					"x(uint256)": "3f4263ef"
				}
			},
			"storageLayout": {
				"storage": [
					{
						"astId": 21,
						"contract": "WTF/wtf_6.sol:wtf_6",
						"label": "x",
						"offset": 0,
						"slot": "0",
						"type": "t_array(t_uint256)dyn_storage"
					}
				],
				"types": {
					"t_array(t_uint256)dyn_storage": {
						"base": "t_uint256",
						"encoding": "dynamic_array",
						"label": "uint256[]",
						"numberOfBytes": "32"
					},
					"t_uint256": {
						"encoding": "inplace",
						"label": "uint256",
						"numberOfBytes": "32"
					}
				}
			},
			"userdoc": {
				"kind": "user",
				"methods": {},
				"version": 1
			}
		}
	}
}