{
	"WTF/wtf_4.sol": {
		"wtf_4": {
			"abi": [
				{
					"inputs": [],
					"name": "add",
					"outputs": [],
					"stateMutability": "nonpayable",
					"type": "function"
				},
				{
					"inputs": [],
					"name": "add_view",
					"outputs": [
						{
							"internalType": "uint256",
							"name": "res",
							"type": "uint256"
						}
					],
					"stateMutability": "view",
					"type": "function"
				},
				{
					"inputs": [],
					"name": "n",
					"outputs": [
						{
							"internalType": "uint256",
							"name": "",
							"type": "uint256"
						}
					],
					"stateMutability": "view",
					"type": "function"
				},
				{
					"inputs": [],
					"name": "res0",
					"outputs": [
						{
							"internalType": "uint256",
							"name": "",
							"type": "uint256"
						}
					],
					"stateMutability": "view",
					"type": "function"
				}
			],
			"devdoc": {
				"kind": "dev",
				"methods": {},
				"version": 1
			},
			"evm": {
				"assembly": "    /* \"WTF/wtf_4.sol\":58:492  contract wtf_4{\r... */\n  mstore(0x40, 0x80)\n    /* \"WTF/wtf_4.sol\":95:96  5 */\n  0x05\n    /* \"WTF/wtf_4.sol\":79:96  uint public n = 5 */\n  0x00\n  dup2\n  swap1\n  sstore\n    /* \"WTF/wtf_4.sol\":276:287  add_pure(n) */\n  tag_1\n  swap1\n    /* \"WTF/wtf_4.sol\":276:284  add_pure */\n  tag_2\n    /* \"WTF/wtf_4.sol\":276:287  add_pure(n) */\n  jump\t// in\ntag_1:\n    /* \"WTF/wtf_4.sol\":257:287  uint public res0 = add_pure(n) */\n  0x01\n  sstore\n    /* \"WTF/wtf_4.sol\":58:492  contract wtf_4{\r... */\n  callvalue\n  dup1\n  iszero\n  tag_3\n  jumpi\n  0x00\n  dup1\n  revert\ntag_3:\n  pop\n  jump(tag_8)\n    /* \"WTF/wtf_4.sol\":164:251  function add_pure(uint x) internal pure returns(uint res){\r... */\ntag_2:\n    /* \"WTF/wtf_4.sol\":212:220  uint res */\n  0x00\n    /* \"WTF/wtf_4.sol\":238:243  x + 1 */\n  tag_6\n    /* \"WTF/wtf_4.sol\":238:239  x */\n  dup3\n    /* \"WTF/wtf_4.sol\":242:243  1 */\n  0x01\n    /* \"WTF/wtf_4.sol\":238:243  x + 1 */\n  tag_7\n  jump\t// in\ntag_6:\n    /* \"WTF/wtf_4.sol\":232:243  res = x + 1 */\n  swap3\n    /* \"WTF/wtf_4.sol\":164:251  function add_pure(uint x) internal pure returns(uint res){\r... */\n  swap2\n  pop\n  pop\n  jump\t// out\n    /* \"#utility.yul\":14:239   */\ntag_7:\n    /* \"#utility.yul\":54:57   */\n  0x00\n    /* \"#utility.yul\":85:86   */\n  dup3\n    /* \"#utility.yul\":81:87   */\n  not\n    /* \"#utility.yul\":78:79   */\n  dup3\n    /* \"#utility.yul\":75:88   */\n  gt\n    /* \"#utility.yul\":72:208   */\n  iszero\n  tag_10\n  jumpi\n    /* \"#utility.yul\":130:140   */\n  0x4e487b71\n    /* \"#utility.yul\":125:128   */\n  0xe0\n    /* \"#utility.yul\":121:141   */\n  shl\n    /* \"#utility.yul\":118:119   */\n  0x00\n    /* \"#utility.yul\":111:142   */\n  mstore\n    /* \"#utility.yul\":165:169   */\n  0x11\n    /* \"#utility.yul\":162:163   */\n  0x04\n    /* \"#utility.yul\":155:170   */\n  mstore\n    /* \"#utility.yul\":193:197   */\n  0x24\n    /* \"#utility.yul\":190:191   */\n  0x00\n    /* \"#utility.yul\":183:198   */\n  revert\n    /* \"#utility.yul\":72:208   */\ntag_10:\n  pop\n    /* \"#utility.yul\":224:233   */\n  add\n  swap1\n    /* \"#utility.yul\":14:239   */\n  jump\t// out\ntag_8:\n    /* \"WTF/wtf_4.sol\":58:492  contract wtf_4{\r... */\n  dataSize(sub_0)\n  dup1\n  dataOffset(sub_0)\n  0x00\n  codecopy\n  0x00\n  return\nstop\n\nsub_0: assembly {\n        /* \"WTF/wtf_4.sol\":58:492  contract wtf_4{\r... */\n      mstore(0x40, 0x80)\n      callvalue\n      dup1\n      iszero\n      tag_1\n      jumpi\n      0x00\n      dup1\n      revert\n    tag_1:\n      pop\n      jumpi(tag_2, lt(calldatasize, 0x04))\n      shr(0xe0, calldataload(0x00))\n      dup1\n      0x0dac913b\n      eq\n      tag_3\n      jumpi\n      dup1\n      0x2e52d606\n      eq\n      tag_4\n      jumpi\n      dup1\n      0x4f2be91f\n      eq\n      tag_5\n      jumpi\n      dup1\n      0x98579185\n      eq\n      tag_6\n      jumpi\n    tag_2:\n      0x00\n      dup1\n      revert\n        /* \"WTF/wtf_4.sol\":257:287  uint public res0 = add_pure(n) */\n    tag_3:\n      tag_7\n      sload(0x01)\n      dup2\n      jump\n    tag_7:\n      mload(0x40)\n        /* \"#utility.yul\":160:185   */\n      swap1\n      dup2\n      mstore\n        /* \"#utility.yul\":148:150   */\n      0x20\n        /* \"#utility.yul\":133:151   */\n      add\n        /* \"WTF/wtf_4.sol\":257:287  uint public res0 = add_pure(n) */\n      mload(0x40)\n      dup1\n      swap2\n      sub\n      swap1\n      return\n        /* \"WTF/wtf_4.sol\":79:96  uint public n = 5 */\n    tag_4:\n      tag_7\n      sload(0x00)\n      dup2\n      jump\n        /* \"WTF/wtf_4.sol\":303:354  function add() external{\r... */\n    tag_5:\n      tag_14\n      tag_15\n      jump\t// in\n    tag_14:\n      stop\n        /* \"WTF/wtf_4.sol\":408:489  function add_view() external view returns(uint res){\r... */\n    tag_6:\n      tag_7\n      tag_17\n      jump\t// in\n        /* \"WTF/wtf_4.sol\":303:354  function add() external{\r... */\n    tag_15:\n        /* \"WTF/wtf_4.sol\":341:342  n */\n      sload(0x00)\n        /* \"WTF/wtf_4.sol\":341:346  n + 1 */\n      tag_20\n      swap1\n        /* \"WTF/wtf_4.sol\":345:346  1 */\n      0x01\n        /* \"WTF/wtf_4.sol\":341:346  n + 1 */\n      tag_21\n      jump\t// in\n    tag_20:\n        /* \"WTF/wtf_4.sol\":337:338  n */\n      0x00\n        /* \"WTF/wtf_4.sol\":337:346  n = n + 1 */\n      sstore\n        /* \"WTF/wtf_4.sol\":303:354  function add() external{\r... */\n      jump\t// out\n        /* \"WTF/wtf_4.sol\":408:489  function add_view() external view returns(uint res){\r... */\n    tag_17:\n        /* \"WTF/wtf_4.sol\":450:458  uint res */\n      0x00\n        /* \"WTF/wtf_4.sol\":476:477  n */\n      dup1\n      sload\n        /* \"WTF/wtf_4.sol\":476:481  n + 1 */\n      tag_23\n      swap1\n        /* \"WTF/wtf_4.sol\":480:481  1 */\n      0x01\n        /* \"WTF/wtf_4.sol\":476:481  n + 1 */\n      tag_21\n      jump\t// in\n    tag_23:\n        /* \"WTF/wtf_4.sol\":470:481  res = n + 1 */\n      swap1\n      pop\n        /* \"WTF/wtf_4.sol\":408:489  function add_view() external view returns(uint res){\r... */\n      swap1\n      jump\t// out\n        /* \"#utility.yul\":196:421   */\n    tag_21:\n        /* \"#utility.yul\":236:239   */\n      0x00\n        /* \"#utility.yul\":267:268   */\n      dup3\n        /* \"#utility.yul\":263:269   */\n      not\n        /* \"#utility.yul\":260:261   */\n      dup3\n        /* \"#utility.yul\":257:270   */\n      gt\n        /* \"#utility.yul\":254:390   */\n      iszero\n      tag_27\n      jumpi\n        /* \"#utility.yul\":312:322   */\n      0x4e487b71\n        /* \"#utility.yul\":307:310   */\n      0xe0\n        /* \"#utility.yul\":303:323   */\n      shl\n        /* \"#utility.yul\":300:301   */\n      0x00\n        /* \"#utility.yul\":293:324   */\n      mstore\n        /* \"#utility.yul\":347:351   */\n      0x11\n        /* \"#utility.yul\":344:345   */\n      0x04\n        /* \"#utility.yul\":337:352   */\n      mstore\n        /* \"#utility.yul\":375:379   */\n      0x24\n        /* \"#utility.yul\":372:373   */\n      0x00\n        /* \"#utility.yul\":365:380   */\n      revert\n        /* \"#utility.yul\":254:390   */\n    tag_27:\n      pop\n        /* \"#utility.yul\":406:415   */\n      add\n      swap1\n        /* \"#utility.yul\":196:421   */\n      jump\t// out\n\n    auxdata: 0xa2646970667358221220ec2e6fb3fc2930bb569cd00f7b5a9c68b31a7bb14660f891dc739097024cbfc864736f6c63430008070033\n}\n",
				"bytecode": {
					"linkReferences": {},
					"object": "60806040526005600081905561001490610029565b60015534801561002357600080fd5b50610062565b600061003682600161003c565b92915050565b6000821982111561005d57634e487b7160e01b600052601160045260246000fd5b500190565b60f9806100706000396000f3fe6080604052348015600f57600080fd5b506004361060465760003560e01c80630dac913b14604b5780632e52d6061460655780634f2be91f14606d57806398579185146075575b600080fd5b605360015481565b60405190815260200160405180910390f35b605360005481565b6073607b565b005b6053608c565b6000546087906001609e565b600055565b600080546099906001609e565b905090565b6000821982111560be57634e487b7160e01b600052601160045260246000fd5b50019056fea2646970667358221220ec2e6fb3fc2930bb569cd00f7b5a9c68b31a7bb14660f891dc739097024cbfc864736f6c63430008070033",
					"opcodes": "PUSH1 0x80 PUSH1 0x40 MSTORE PUSH1 0x5 PUSH1 0x0 DUP2 SWAP1 SSTORE PUSH2 0x14 SWAP1 PUSH2 0x29 JUMP JUMPDEST PUSH1 0x1 SSTORE CALLVALUE DUP1 ISZERO PUSH2 0x23 JUMPI PUSH1 0x0 DUP1 REVERT JUMPDEST POP PUSH2 0x62 JUMP JUMPDEST PUSH1 0x0 PUSH2 0x36 DUP3 PUSH1 0x1 PUSH2 0x3C JUMP JUMPDEST SWAP3 SWAP2 POP POP JUMP JUMPDEST PUSH1 0x0 DUP3 NOT DUP3 GT ISZERO PUSH2 0x5D JUMPI PUSH4 0x4E487B71 PUSH1 0xE0 SHL PUSH1 0x0 MSTORE PUSH1 0x11 PUSH1 0x4 MSTORE PUSH1 0x24 PUSH1 0x0 REVERT JUMPDEST POP ADD SWAP1 JUMP JUMPDEST PUSH1 0xF9 DUP1 PUSH2 0x70 PUSH1 0x0 CODECOPY PUSH1 0x0 RETURN INVALID PUSH1 0x80 PUSH1 0x40 MSTORE CALLVALUE DUP1 ISZERO PUSH1 0xF JUMPI PUSH1 0x0 DUP1 REVERT JUMPDEST POP PUSH1 0x4 CALLDATASIZE LT PUSH1 0x46 JUMPI PUSH1 0x0 CALLDATALOAD PUSH1 0xE0 SHR DUP1 PUSH4 0xDAC913B EQ PUSH1 0x4B JUMPI DUP1 PUSH4 0x2E52D606 EQ PUSH1 0x65 JUMPI DUP1 PUSH4 0x4F2BE91F EQ PUSH1 0x6D JUMPI DUP1 PUSH4 0x98579185 EQ PUSH1 0x75 JUMPI JUMPDEST PUSH1 0x0 DUP1 REVERT JUMPDEST PUSH1 0x53 PUSH1 0x1 SLOAD DUP2 JUMP JUMPDEST PUSH1 0x40 MLOAD SWAP1 DUP2 MSTORE PUSH1 0x20 ADD PUSH1 0x40 MLOAD DUP1 SWAP2 SUB SWAP1 RETURN JUMPDEST PUSH1 0x53 PUSH1 0x0 SLOAD DUP2 JUMP JUMPDEST PUSH1 0x73 PUSH1 0x7B JUMP JUMPDEST STOP JUMPDEST PUSH1 0x53 PUSH1 0x8C JUMP JUMPDEST PUSH1 0x0 SLOAD PUSH1 0x87 SWAP1 PUSH1 0x1 PUSH1 0x9E JUMP JUMPDEST PUSH1 0x0 SSTORE JUMP JUMPDEST PUSH1 0x0 DUP1 SLOAD PUSH1 0x99 SWAP1 PUSH1 0x1 PUSH1 0x9E JUMP JUMPDEST SWAP1 POP SWAP1 JUMP JUMPDEST PUSH1 0x0 DUP3 NOT DUP3 GT ISZERO PUSH1 0xBE JUMPI PUSH4 0x4E487B71 PUSH1 0xE0 SHL PUSH1 0x0 MSTORE PUSH1 0x11 PUSH1 0x4 MSTORE PUSH1 0x24 PUSH1 0x0 REVERT JUMPDEST POP ADD SWAP1 JUMP INVALID LOG2 PUSH5 0x6970667358 0x22 SLT KECCAK256 0xEC 0x2E PUSH16 0xB3FC2930BB569CD00F7B5A9C68B31A7B 0xB1 CHAINID PUSH1 0xF8 SWAP2 0xDC PUSH20 0x9097024CBFC864736F6C63430008070033000000 "
				},
				"gasEstimates": {
					"creation": {
						"codeDepositCost": "49800",
						"executionCost": "44436",
						"totalCost": "94236"
					},
					"external": {
						"add()": "24442",
						"add_view()": "2417",
						"n()": "2283",
						"res0()": "2261"
					},
					"internal": {
						"add_pure(uint256)": "infinite"
					}
				},
				"methodIdentifiers": {
					"add()": "4f2be91f",
					"add_view()": "98579185",
					"n()": "2e52d606",
					"res0()": "0dac913b"
				}
			},
			"storageLayout": {
				"storage": [
					{
						"astId": 4,
						"contract": "WTF/wtf_4.sol:wtf_4",
						"label": "n",
						"offset": 0,
						"slot": "0",
						"type": "t_uint256"
					},
					{
						"astId": 23,
						"contract": "WTF/wtf_4.sol:wtf_4",
						"label": "res0",
						"offset": 0,
						"slot": "1",
						"type": "t_uint256"
					}
				],
				"types": {
					"t_uint256": {
						"encoding": "inplace",
						"label": "uint256",
						"numberOfBytes": "32"
					}
				}
			},
			"userdoc": {
				"kind": "user",
				"methods": {},
				"version": 1
			}
		}
	}
}