{
    "contractName": "HelloWeb3",
    "abi": [
        {
            "inputs": [],
            "name": "_int",
            "outputs": [
                {
                    "internalType": "int256",
                    "name": "",
                    "type": "int256"
                }
            ],
            "stateMutability": "view",
            "type": "function"
        },
        {
            "inputs": [],
            "name": "_number",
            "outputs": [
                {
                    "internalType": "uint256",
                    "name": "",
                    "type": "uint256"
                }
            ],
            "stateMutability": "view",
            "type": "function"
        },
        {
            "inputs": [],
            "name": "_number1",
            "outputs": [
                {
                    "internalType": "uint256",
                    "name": "",
                    "type": "uint256"
                }
            ],
            "stateMutability": "view",
            "type": "function"
        },
        {
            "inputs": [],
            "name": "_number2",
            "outputs": [
                {
                    "internalType": "uint256",
                    "name": "",
                    "type": "uint256"
                }
            ],
            "stateMutability": "view",
            "type": "function"
        },
        {
            "inputs": [],
            "name": "_number3",
            "outputs": [
                {
                    "internalType": "uint256",
                    "name": "",
                    "type": "uint256"
                }
            ],
            "stateMutability": "view",
            "type": "function"
        },
        {
            "inputs": [],
            "name": "_numberbool",
            "outputs": [
                {
                    "internalType": "bool",
                    "name": "",
                    "type": "bool"
                }
            ],
            "stateMutability": "view",
            "type": "function"
        },
        {
            "inputs": [],
            "name": "_uint",
            "outputs": [
                {
                    "internalType": "uint256",
                    "name": "",
                    "type": "uint256"
                }
            ],
            "stateMutability": "view",
            "type": "function"
        }
    ],
    "bytecode": "6080604052600019600055600180805563013489aa60028190556100229161004f565b60035560048055600160058190556006805460ff1916909117905534801561004957600080fd5b50610076565b8082018082111561007057634e487b7160e01b600052601160045260246000fd5b92915050565b61010c806100856000396000f3fe6080604052348015600f57600080fd5b506004361060735760003560e01c80636e8d0c9e1160545780636e8d0c9e1460a3578063af45869e1460ab578063e37c6c821460b3578063f9bd55cc1460ce57600080fd5b806319bff7df1460785780632543135b1460935780636b1d2c4e14609b575b600080fd5b608060055481565b6040519081526020015b60405180910390f35b608060015481565b608060045481565b608060035481565b608060005481565b60065460bf9060ff1681565b6040519015158152602001608a565b60806002548156fea2646970667358221220dce9a1d12164d475577e3dcfe3ea5772ad3f12e45279e1ef92e0de82a43c7b7b64736f6c63430008110033",
    "sourcePath": "d:/Environments/web3/WTF/wtf_2.sol",
    "compiler": {
        "name": "solc",
        "version": "0.8.17+commit.8df45f5f"
    },
    "functionHashes": {
        "_int()": "af45869e",
        "_number()": "f9bd55cc",
        "_number1()": "6e8d0c9e",
        "_number2()": "6b1d2c4e",
        "_number3()": "19bff7df",
        "_numberbool()": "e37c6c82",
        "_uint()": "2543135b"
    },
    "gasEstimates": {
        "creation": {
            "codeDepositCost": "53600",
            "executionCost": "157067",
            "totalCost": "210667"
        },
        "external": {
            "_int()": "2306",
            "_number()": "2350",
            "_number1()": "2284",
            "_number2()": "2329",
            "_number3()": "2285",
            "_numberbool()": "2354",
            "_uint()": "2307"
        }
    }
}