{
    "contractName": "wtf_3",
    "abi": [
        {
            "inputs": [],
            "name": "_number",
            "outputs": [
                {
                    "internalType": "int256",
                    "name": "",
                    "type": "int256"
                }
            ],
            "stateMutability": "view",
            "type": "function"
        },
        {
            "inputs": [],
            "name": "_number1",
            "outputs": [
                {
                    "internalType": "uint256",
                    "name": "",
                    "type": "uint256"
                }
            ],
            "stateMutability": "view",
            "type": "function"
        },
        {
            "inputs": [],
            "name": "_number2",
            "outputs": [
                {
                    "internalType": "uint256",
                    "name": "",
                    "type": "uint256"
                }
            ],
            "stateMutability": "view",
            "type": "function"
        },
        {
            "inputs": [
                {
                    "internalType": "uint256",
                    "name": "x",
                    "type": "uint256"
                }
            ],
            "name": "square",
            "outputs": [
                {
                    "internalType": "uint256",
                    "name": "",
                    "type": "uint256"
                }
            ],
            "stateMutability": "view",
            "type": "function"
        }
    ],
    "bytecode": "60806040526064600081905560018190556100199061002e565b60025534801561002857600080fd5b50610151565b600061003b60028361013b565b92915050565b634e487b7160e01b600052601160045260246000fd5b600181815b8085111561009257816000190482111561007857610078610041565b8085161561008557918102915b93841c939080029061005c565b509250929050565b6000826100a95750600161003b565b816100b65750600061003b565b81600181146100cc57600281146100d6576100f2565b600191505061003b565b60ff8411156100e7576100e7610041565b50506001821b61003b565b5060208310610133831016604e8410600b8410161715610115575081810a61003b565b61011f8383610057565b806000190482111561013357610133610041565b029392505050565b600061014a60ff84168361009a565b9392505050565b610203806101606000396000f3fe608060405234801561001057600080fd5b506004361061004c5760003560e01c80636b1d2c4e146100515780636e8d0c9e1461006c5780637b29290914610075578063f9bd55cc14610088575b600080fd5b61005a60025481565b60405190815260200160405180910390f35b61005a60015481565b61005a6100833660046100a4565b610091565b61005a60005481565b600061009e6002836101b7565b92915050565b6000602082840312156100b657600080fd5b5035919050565b634e487b7160e01b600052601160045260246000fd5b600181815b8085111561010e5781600019048211156100f4576100f46100bd565b8085161561010157918102915b93841c93908002906100d8565b509250929050565b6000826101255750600161009e565b816101325750600061009e565b816001811461014857600281146101525761016e565b600191505061009e565b60ff841115610163576101636100bd565b50506001821b61009e565b5060208310610133831016604e8410600b8410161715610191575081810a61009e565b61019b83836100d3565b80600019048211156101af576101af6100bd565b029392505050565b60006101c660ff841683610116565b939250505056fea264697066735822122054045e18a8100ed3162da9717094c7d7182338ecea9840a020ea0e6e11e2aef164736f6c63430008110033",
    "sourcePath": "d:/Environments/web3/WTF/wtf_3.sol",
    "compiler": {
        "name": "solc",
        "version": "0.8.17+commit.8df45f5f"
    },
    "functionHashes": {
        "_number()": "f9bd55cc",
        "_number1()": "6e8d0c9e",
        "_number2()": "6b1d2c4e",
        "square(uint256)": "7b292909"
    },
    "gasEstimates": {
        "creation": {
            "codeDepositCost": "103000",
            "executionCost": "infinite",
            "totalCost": "infinite"
        },
        "external": {
            "_number()": "2327",
            "_number1()": "2283",
            "_number2()": "2261",
            "square(uint256)": "infinite"
        }
    }
}