{
    "contractName": "wtf_5",
    "abi": [
        {
            "inputs": [],
            "name": "minusCall",
            "outputs": [],
            "stateMutability": "nonpayable",
            "type": "function"
        },
        {
            "inputs": [],
            "name": "minusPayable",
            "outputs": [
                {
                    "internalType": "uint256",
                    "name": "balance",
                    "type": "uint256"
                }
            ],
            "stateMutability": "payable",
            "type": "function"
        },
        {
            "inputs": [],
            "name": "number",
            "outputs": [
                {
                    "internalType": "uint256",
                    "name": "",
                    "type": "uint256"
                }
            ],
            "stateMutability": "view",
            "type": "function"
        }
    ],
    "bytecode": "6080604052606460005534801561001557600080fd5b5060f8806100246000396000f3fe60806040526004361060305760003560e01c8063303810a614603557806380b4ea0814604d5780638381f58a146061575b600080fd5b603b6075565b60405190815260200160405180910390f35b348015605857600080fd5b50605f6082565b005b348015606c57600080fd5b50603b60005481565b6000607d608a565b504790565b6088608a565b565b600160005460979190609c565b600055565b8181038181111560bc57634e487b7160e01b600052601160045260246000fd5b9291505056fea2646970667358221220401523fd9acd1f81b7e92db31ef7e92bea10941aed5b87612a7596cd71abd8a664736f6c63430008110033",
    "sourcePath": "d:/Environments/web3/WTF/wtf_5.sol",
    "compiler": {
        "name": "solc",
        "version": "0.8.17+commit.8df45f5f"
    },
    "functionHashes": {
        "minusCall()": "80b4ea08",
        "minusPayable()": "303810a6",
        "number()": "8381f58a"
    },
    "gasEstimates": {
        "creation": {
            "codeDepositCost": "49600",
            "executionCost": "22205",
            "totalCost": "71805"
        },
        "external": {
            "minusCall()": "24452",
            "minusPayable()": "24464",
            "number()": "2305"
        },
        "internal": {
            "minus()": "24293"
        }
    }
}